:02000002D0002C
:1040000000400D00285E0D00000006000C000501B8
:084010000401E80500000000B6
:04401800305A0D000D
:10401C0009480A49884208B505D0094A824202D0AB
:10402C00121A01F09FFC0748074A0021121A01F0EE
:10403C00A4FC014808BD00BF5CE30320945D0D00A7
:10404C00C8E30320C8E30320F0E7032070B500F0B9
:10405C0011FC074C074BE41AA40800251E46A54288
:10406C0004D056F8253098470135F8E770BD00BFED
:10407C008C5D0D00545D0D0000F016B808B500F015
:10408C003FF8BDE8084000F0B7BB00F037BA00F0CD
:10409C003DBA00F03BBA0078B0FA80F040097047A6
:1040AC0001230370704700001FB5114B114A1B7898
:1040BC008DF8003010493C2302A800F049FD039C08
:1040CC007CB16368013B63605BB9236820469B68E5
:1040DC009847A368013BA3601BB923682046DB68A3
:1040EC009847064B0121188801F058FA04B010BD0E
:1040FC00CCE30320445A0D004E5A0D005CE3032020
:10410C0010B5174C0121208801F059FA642000F0F9
:10411C0025FB0021208801F052FA642000F01EFBE0
:10412C000121208801F04BFA642000F017FB0021DC
:10413C00208801F044FA642000F010FB0121208853
:10414C0001F03DFA642000F009FB2088002101F009
:10415C0036FA4FF49660BDE8104000F0FFBA00BF8D
:10416C005CE30320024B00221A7000F013B800BF6E
:10417C00CCE3032008B5024B1B689B68019308BD78
:10418C006802030008B5024B1B68DB68019308BD8D
:10419C006802030008B5024B1B681B68019308BD3D
:1041AC002C02030008B5024B1B689B68019308BDE9
:1041BC002C02030008B5024B1B68DB68019308BD99
:1041CC002C02030008B5024B1B681B69019308BD48
:1041DC002C02030008B5024B1B68DB69019308BD78
:1041EC003002030008B5024B1B681B6A019308BD23
:1041FC003002030008B5024B1B685B68019308BDD5
:10420C001802030008B5024B1B685B69019308BDDB
:10421C001802030008B5024B1B689B68019308BD8C
:10422C004802030008B5024B1B681B69019308BDCB
:10423C004802030008B5024B1B685B69019308BD7B
:10424C004802030008B5024B1B685B6C019308BD68
:10425C004802030008B5024B1B689B6C019308BD18
:10426C004802030008B5024B1B685B69019308BD4B
:10427C006402030008B5024B1B681B68019308BD60
:10428C003C02030008B5024B1B68DB68019308BDB8
:10429C003C02030008B5024B1B681B69019308BD67
:1042AC003C02030008B5024B1B685B69019308BD17
:1042BC003C02030008B5024B1B689B69019308BDC7
:1042CC003C02030008B5024B1B68DB69019308BD77
:1042DC003C02030008B5024B1B681B6A019308BD26
:1042EC003C02030008B5024B1B689B6A019308BD96
:1042FC003C02030008B5024B1B681B6A019308BD06
:10430C002802030008B5024B1B685B6A019308BDC9
:10431C002802030008B5024B1B689B6A019308BD79
:10432C002802030008B5024B1B68DB6A019308BD29
:10433C002802030008B5024B1B681B6B019308BDD8
:10434C002802030008B5024B1B685B6B019308BD88
:10435C002802030008B5024B1B681B6C019308BDB7
:10436C002802030008B5024B1B681B68019308BDAB
:10437C004C02030008B5024B1B681B69019308BD76
:10438C004C02030008B5024B1B685B69019308BD26
:10439C004C02030008B5024B1B689B69019308BDD6
:1043AC004C02030008B5024B1B68DB69019308BD86
:1043BC004C02030008B5024B1B681B6A019308BD35
:1043CC004C02030008B5024B1B685B68019308BDE7
:1043DC002002030008B5024B1B685B69019308BD02
:1043EC002002030008B5024B1B68DB6C019308BD6F
:1043FC002002030008B5024B1B685B6D019308BDDE
:10440C002002030008B5034B1B68D3F888300193D6
:10441C0008BD00002002030008B5034B1B68D3F84D
:10442C009430019308BD00002002030008B5024B34
:10443C001B685B68019308BD4002030008B5024B82
:10444C001B689B68019308BD4002030008B5024B32
:10445C001B68DB68019308BD4002030008B5024BE2
:10446C001B681B69019308BD4002030008B5024B91
:10447C001B685B69019308BD4002030008B5024B41
:10448C001B689B69019308BD4002030008B5024BF1
:10449C001B68DB69019308BD4002030008B5024BA1
:1044AC001B681B6A019308BD4002030008B5024B50
:1044BC001B681B6B019308BD4002030008B5024B3F
:1044CC001B685B6B019308BD4002030008B5024BEF
:1044DC001B685B69019308BD4402030008B5024BDD
:1044EC001B681B6A019308BD4402030008B5024B0C
:1044FC001B68DB6B019308BD4402030008B5024B3B
:10450C001B681B68019308BD1C02030008B5024B15
:10451C001B685B68019308BD1C02030008B5024BC5
:10452C001B68DB6A019308BD1C02030008B5024B33
:10453C001B681B6B019308BD1C0203000022114673
:10454C004068FFF7ABBF002211464068FFF7B6BFCB
:10455C0000224068FFF7AABF002281F001014068E9
:10456C00FFF794BF00231A4619464068FFF786BF31
:10457C0000231A4619464068FFF778BF00221146FF
:10458C004068FFF76BBF002211464068FFF756BF2B
:10459C00002202214068FFF759BF00231A464068E9
:1045AC00FFF744BF024B03225A60024A1A6070475D
:1045BC00D0E30320605A0D0010B504460170084684
:1045CC00FFF708FE00236360204610BD0078FFF75C
:1045DC0009BE10B50446006818B1FFF797FF002319
:1045EC00236010BD10B50446FFF7F3FF204610BD45
:1045FC0010B5094C00204FF6FF732060A080A0710D
:10460C0020816381FFF7DEFE2046044A0449BDE8A1
:10461C00104001F02DB800BFD8E30320C8E30320FD
:10462C00F1450D0010B50446006808B1FFF712FE05
:10463C00204610BD10B5036804469B689847A368D4
:10464C00013BA3602BB923682046DB68BDE8104012
:10465C00184710BD0B68036013B15A6801325A60D9
:10466C00704710B50446006828B14368013B4360AD
:10467C000BB9FFF7DFFF204610BD000010B5064C4C
:10468C00002320462360FFF7DDFD2046034A044942
:10469C00BDE8104000F0ECBFE4E30320C8E30320C6
:1046AC0031460D00F8B506460D468F180024BD4264
:1046BC000CD0336815F8011B9B68304698470028CE
:1046CC0001DB0444F3E7002C08BF04462046F8BD88
:1046DC0070B505460C46084649B101F09AF92B68AD
:1046EC00024621462846DB68BDE87040184770BD7D
:1046FC0003689B68184730B58BB00B4600218DF8CA
:10470C002410012A98BF0A220DF12304B3FBF2F501
:10471C0005FB123303F0FF03092B94BF30333733FF
:10472C00DBB2214604F801392B46002DEED1FFF700
:10473C00CFFF0BB030BD0000014B024A1A6070472E
:10474C00E8E30320FF5A0D00024B1A68024B1A6073
:10475C00704700BF60E30320ECE303200021FFF768
:10476C0039BE10B58368044613B10322014698473D
:10477C00204610BD10B50446FFF7F3FF204610BDD0
:10478C0013B50B46044603C88DE8030093E80300F9
:10479C0084E803009DE8030083E8030002B010BD29
:1047AC000348044A04490023836000F061BF00BF42
:1047BC00F0E30320C8E3032081470D0008B50C4B40
:1047CC0033B100F017FC03681B699847002809DC1B
:1047DC00084B63B100F090FC03681B6998470028F4
:1047EC0003DC08BDAFF30080F2E7AFF3008008BD37
:1047FC00000000000000000008B5FFF7DFFFFFF726
:10480C0001FD014B186008BD30E703200248034A44
:10481C000349121A01F0A6B800F4032004F4032093
:10482C00905D0D0007B5002300931A466FF07701D9
:10483C00FFF7F2FD03B05DF804FB000007B54388F9
:10484C000A2B08D0502B09D1094B1B683BB103B084
:10485C005DF804EB1847FFF7E5FF06E00023009333
:10486C001A466FF07701FFF7D7FD03B05DF804FB34
:10487C0000E4032038B5104C104D2368AB42104BAC
:10488C000CBF012200221A7002D0FFF7BFFF256077
:10489C00FFF7B0FC044601F079F80A4B13B120463F
:1048AC00AFF3008000210748FFF720FE00210648E7
:1048BC00BDE83840FFF7A6BD00F403201E1C279A64
:1048CC0004E403200000000049480D00704700205C
:1048DC00704710B51021044600F0D8FE204610BDDC
:1048EC0008B508B1FFF7F5FF08BD0022026010B54E
:1048FC004FF69C728280B1F9044084808A800268F1
:10490C000C6804600A6010BD10B504460068FFF71F
:10491C00FDFD204610BD38B5C468F4B12378022BD8
:10492C0003D104F10C00FFF7EFFF656835B12846A1
:10493C00FFF717FF1021284600F0A8FEA56835B137
:10494C002846FFF70EFF1021284600F09FFE204658
:10495C001421BDE8384000F099BE38BD13B50446AB
:10496C0091E8050000234B600B602060626001A899
:10497C0001930093FFF775FE204602B010BDF7B50A
:10498C000C4602AD54F8043B45F8083D06460F466C
:10499C0001A82146FFF75EFE29463046FFF7DEFFF1
:1049AC0001A8FFF75EFE2046FFF75BFE38460821A4
:1049BC0000F06CFE304603B0F0BD000038B50023AB
:1049CC000446036010200D46FFF75FFB28B101235E
:1049DC0043608360024B0360C5602060204638BD95
:1049EC00A05B0D00826810B50AB900F062FEC368C6
:1049FC00BDE81040184708B5006800F11001FFF73A
:104A0C00F1FF08BD826810B50AB900F052FEC36808
:104A1C00BDE81040184708B5006800F11001FFF719
:104A2C00F1FF08BD38B5002383608B6804460D4642
:104A3C002BB102229847EB68E360AB68A360204679
:104A4C0038BD0000F0B589B004686846FFF74DFF2B
:104A5C0000238DF808304FF00202D4E84F3F002BB2
:104A6C0003D1C4E8412F0029F7D102D08DF80830CA
:104A7C0063E014F10C0503D069462846FFF735FFB7
:104A8C00BFF35F8F01236370002004F10803BFF3B1
:104A9C005F8F53E8006F43E80002002AF9D1BFF39F
:104AAC005F8F002E49D0FFF79DFC20B12946304680
:104ABC00FFF798FF3AE0314602A8FFF7B3FFE06832
:104ACC00B4F9105008B100F089FF06901020ADF831
:104ADC001C50FFF7DAFA0546E8B10027876018206A
:104AEC00FFF7D3FA044688B10146876002A8FFF7A6
:104AFC0047FE049BA268A360059B049206A9E2688A
:104B0C00E36004F110000592FFF7EFFE0D4BEB6034
:104B1C000D4B2C60AB6006A8FFF7F6FE02A8FFF762
:104B2C0020FE002229460948FFF764FC3046FFF7B7
:104B3C0018FE1021304600F0A9FD6846FFF7E4FE90
:104B4C0009B0F0BD034A0D00794C0D0051510D0018
:104B5C002DE9F04F8BB006460F46904699469DF8CE
:104B6C0050A0FFF7B3FC07AD834630BB4FF62E7356
:104B7C00059005A92846ADF81830FFF7B6FE1420AD
:104B8C00FFF783FA044658B10223037001234370E4
:104B9C00C0F804B0C0F808B029460C30FFF7A5FEE9
:104BAC003046214640F8044BFFF708FF2846FFF734
:104BBC00ABFE05A8FFF7A8FE52E000240C2314203E
:104BCC006C60AC600793FFF760FA014618B1047093
:104BDC0044704460846004A80391FFF7EFFE224BFD
:104BEC0008930820FFF751FA044628B1039B40F8BC
:104BFC00043B04A9FFF72EFD00955FFA8AF34A46A1
:104C0C00414638460994FFF769FC20B9039B5B7851
:104C1C0003F0FF0283B1039B059304A906A8FFF7D9
:104C2C0019FD05A93046FFF799FE06A8FFF719FDF7
:104C3C0004A8FFF716FD13E04FF69C7305A903A813
:104C4C000592ADF81830FFF7FDFE05A8FFF75CFEE6
:104C5C0005A80999FFF793FE06A8FFF702FDDAE70E
:104C6C0030460BB0BDE8F08FE94D0D00022AF8B5C7
:104C7C00044606D0032A17D0012A22D10B68036000
:104C8C001FE018200E68FFF700FA054650B13146B8
:104C9C00FFF7C8FE3069B6F9147008B100F09EFE3B
:104CAC002861AF8225600CE0046854B104F1100057
:104CBC00FFF72AFE2046FFF754FD1821204600F08E
:104CCC00E5FC0020F8BD38B5002383608B680446F2
:104CDC000D462BB102229847EB68E360AB68A360EA
:104CEC00204638BD022A70B5044606D0032A11D0DE
:104CFC00012A18D10B68036015E014200E68FFF729
:104D0C00C4F9054620B13146FFF7DDFF337C2B7427
:104D1C00256008E0046834B12046FFF722FD142119
:104D2C00204600F0B3FC002070BD0000F0B500235D
:104D3C0087B00C46BFF35F8F50E8006F40E800323D
:104D4C00002AF9D1BFF35F8F002E3FD01846FFF732
:104D5C0049FB074620B121463046FFF753FE2EE0B3
:104D6C00314601A8FFF7AFFF23788DF814301020DF
:104D7C00FFF78BF90546D0B187601420FFF785F952
:104D8C00044678B18760014601A8FFF7F9FC039B44
:104D9C00A268A360049B0392E268E3609DF8143060
:104DAC00049223740A4BEB600A4B2C60AB6001A895
:104DBC00FFF7D7FC002229460748FFF71BFB3046BC
:104DCC00FFF7CFFC1021304600F060FC07B0F0BDBF
:104DDC00234A0D00F14C0D0051510D0030B585B03A
:104DEC0004460D4668461146FFF7C9FD7CB124B256
:104DFC0028460DB100F0F2FD029002A96846ADF80C
:104E0C000C40FFF71FFE02A8FFF77EFD1DE0009887
:104E1C008DF808404FF00102D0E84F3FA34203D178
:104E2C00C0E8412F0029F7D102D08DF808300CE0F2
:104E3C0010F10C014FF0010318BF0373BFF35F8F28
:104E4C00043000F8033CFFF771FF01A8FFF709FCE1
:104E5C0005B030BD704710B51821044600F016FCA3
:104E6C00204610BDF0B5037D062B8DB00E4600F12B
:104E7C0004074FF0000402D000F1080518E00CAD57
:104E8C00394605F8304D2F232A460A20FFF7EAF958
:104E9C00284600F0BEFD33680246DB6829463046E2
:104EAC0098470FE024B12E213046FFF721FC044433
:104EBC0015F8011D0A223046FFF71DFCBD420444C3
:104ECC00F0D120460DB0F0BD10B5054B04461122B3
:104EDC0040F8043B002100F050FD204610BD00BFFF
:104EEC00BC5B0D000346074A10B543F8042B01F1D7
:104EFC00100251F8044B43F8044B9142F9D10A7853
:104F0C001A7010BDBC5B0D0010B59DF8084044EA4A
:104F1C00032343EA024242EA016104234160037520
:104F2C0010BD37B50D788B784A78C9780091294631
:104F3C00FFF7EAFF03B030BD41747047704708B506
:104F4C000021007CFFF726FA30EA200028BF4FF042
:104F5C00FF3008BD08B50121007CFFF71BFA30EAD1
:104F6C00200028BF4FF0FF3008BD08B5007CFFF7CC
:104F7C0009FA20EAE07008BD08B5007CFFF7FAF9E1
:104F8C0020EAE07008BD007CFFF714BA10B51421BC
:104F9C00044600F07BFB204610BD38B50446007C6F
:104FAC000D46FFF7EFF9002801DC607C28B129469B
:104FBC00207CFFF7F7F920EAE07038BD10B5044605
:104FCC00002363604FF47A73A360054B23600123C5
:104FDC000846217463741146FFF7C4F9204610BDCE
:104FEC00D05B0D0010B514220446002100F0C5FC66
:104FFC00204610BD30B50E4D87B001A8FFF7F2FF6B
:10500C00296811F0010410D12846FFF744F860B16B
:10501C0001AA21460748FFF7D1FF2846FFF740F8C1
:10502C00054A0649034800F023FB024807B030BD8F
:10503C0008E403200CE40320C8E30320494F0D00CF
:10504C0070474174704708B5007CFFF74BF920EAB4
:10505C00E07008BD08B5007CFFF71CF920EAE07091
:10506C0008BD08B5007CFFF725F930EA200028BF01
:10507C004FF0FF3008BD08B5007CFFF713F930EA9C
:10508C00200028BF4FF0FF3008BD007CFFF71AB995
:10509C0010B51421044600F0F9FA204610BD70B585
:1050AC00457C04460E4625B9007CFFF71BF9002809
:1050BC0005DD3146207CBDE87040FFF7E3B828469B
:1050CC0070BD000010B5044608461146002262600F
:1050DC004FF47A72A260054A226001222074627435
:1050EC001A46FFF7C7F8204610BD00BF005C0D0044
:1050FC00007CFFF7EFB8000038B50C4D296811F0B3
:10510C00010411D12846FEF7C6FF68B1084A094BC5
:10511C0009482146FFF7D6FF2846FEF7C1FF074A8C
:10512C000749054800F0A4FA034838BDB8E4032049
:10513C00BCE4032034E4032020E40320C8E3032070
:10514C004D500D0010B5836804460BB900F0B1FA50
:10515C00C3689847A3681BB1032221462046984791
:10516C0020461021BDE8104000F090BA7047F8B509
:10517C00064615460C468F18BC4206D0336814F808
:10518C00011B9B6830469847F6E72846F8BD00227D
:10519C00007CFFF7AFB80021007CFFF7B3B800210B
:1051AC00007CFFF7B7B80021007CFFF7BBB80021EB
:1051BC00007CFFF7BFB810B51421044600F066FA66
:1051CC00204610BD10B50446002363604FF47A737B
:1051DC00A360044B2174084623601146FFF7BAF80C
:1051EC00204610BD305C0D000021007CFFF7AAB8F2
:1051FC00002211464068FFF751B900221146406861
:10520C00FFF75CB900224068FFF750B9002281F02B
:10521C0001014068FFF73AB900231A4601214068A2
:10522C00FFF72CB900231A4619464068FFF71EB940
:10523C00002211464068FFF711B900221146406860
:10524C00FFF7FCB8002202214068FFF7FFB80023EB
:10525C001A464068FFF7EAB838B5054688B10468C5
:10526C004CB1A3681BB1032221462046984710215C
:10527C00204600F00BFA28461421BDE8384000F017
:10528C0005BA38BD10B103685B681847704710B594
:10529C0003680446BBB15868FEF7BCFF78B92368B5
:1052AC005A7C12B95868FEF7BDFF23685868FEF7A0
:1052BC00C1FF20680023236028B1FFF7CDFF2068D1
:1052CC0008B1FFF7C9FF204610BD38B50446D0F829
:1052DC00C40108B1FEF7DDFED4F8C00108B1FEF739
:1052EC00B9FFD4F8BC5135B12846FFF7D0FF0421E3
:1052FC00284600F0CBF9206808B1FFF7C3FF204621
:10530C0038BD000010B5044B044640F8083BFFF7CD
:10531C00DCFF204610BD00BF585C0D0038B50E4CAC
:10532C000E4B23600025022304F5E4706360A56036
:10533C00C4F8C451C4F8C851FEF784FF084BC4F834
:10534C00CC5184F8D05123602046064A0649BDE86A
:10535C00384000F08DB900BF40E50320C05C0D0063
:10536C00585C0D00C8E3032011530D0000221146B8
:10537C004068FFF773B8002211464068FFF78EB8FB
:10538C00002211464068FFF799B800224068FFF7E9
:10539C008DB8002281F001014068FFF777B8002337
:1053AC001A4619464068FFF769B800231A46194691
:1053BC004068FFF75BB8002211464068FFF73EB823
:1053CC00002202214068FFF741B800231A464068CA
:1053DC00FFF72CB8024B04225A60024A1A6070473D
:1053EC0014E703208C5C0D0000231A464068FFF77D
:1053FC001DB8002202214068FFF728B80022114690
:10540C004068FFF71BB8002211464068FFF726B82A
:10541C0000231A4619464068FFF728B800231A469D
:10542C0019464068FFF72AB8002281F00101406854
:10543C00FFF72CB800224068FFF738B8002211465D
:10544C004068FFF73BB8002211464068FFF726B8CA
:10545C002DE9F043002495B016460D460746FFF79C
:10546C0033FD214620220CA8009400F086FA40233C
:10547C000C9321466B460CAA3046FEF783FE04467D
:10548C00002844D1024601216868FEF7E7FF02219B
:10549C00804622466868FEF7E1FF009E8146214661
:1054AC00002E34D0002932D17368022B02D00A2B83
:1054BC0009D02AE0B8F1000F27D0716938460431C1
:1054CC00FFF72FFD20E0B9F1000F1ED074691122F7
:1054DC0001A800F052FA06238DF8143001AD04F146
:1054EC0008031834186859682A4603C20833A342C3
:1054FC001546F7D101A906A807ADFFF7F3FC0FCDB0
:10550C003C1D0FC42B6823700121F669C8E7009875
:10551C00FEF730FE384615B0BDE8F083024B034A67
:10552C001A6000225A6070471CE70320C05C0D0013
:10553C0070B5184E316811F0010504460AD1304699
:10554C00FEF7A9FD30B129461348FFF735F8304670
:10555C00FEF7A6FD1048FFF739F828B1A4F10B03AC
:10556C00022B01D8002070BD00F05CF8FFF73CFE68
:10557C0008B1012CF6D9FFF7BFFDFFF7B9FD18B143
:10558C00A4F10903012BEDD9232C8CBF00200120A1
:10559C0070BD00BF24E7032028E70320232838B57B
:1055AC0004460D460AD8FF2908D0FFF7C1FF28B1E1
:1055BC0029462046BDE83840FEF7F4BD38BD38B565
:1055CC0004460D46FEF7F6FDFF2810D0062804D839
:1055DC004D2323FA00F0C30709D42046FFF7A8FF98
:1055EC0028B129462046BDE83840FEF7EBBD38BD52
:1055FC0070B5044614252A46094E002100F0BDF969
:10560C00258020253146A5602561284600F040F80C
:10561C0031466060284600F03BF8E060204670BDE3
:10562C00EC5C0D0030B50E4D296811F0010487B00B
:10563C0013D12846FEF72FFD78B101A8FFF7D8FF4C
:10564C0001AA21460748FFF7BDFD2846FEF728FDB5
:10565C00054A0649034800F00BF8024807B030BD74
:10566C0034E7032038E70320C8E3032079510D0009
:10567C000B460146184600F067B90000024B18684B
:10568C00BFF35F8F704700BF4CE70320FEF7FFBCF2
:10569C0000F000B810B5002814BF044601242046C1
:1056AC00FEF72CFF20B9FFF7E9FF08B18047F6E7BA
:1056BC0010BD08B5FEF732FF184B1A68D1075CBF56
:1056CC0001221A60164B1A68D2075CBF01221A60BD
:1056DC00144B1A68D0075CBF01221A60124B1A686F
:1056EC00D1075CBF01221A60104B1A68D2075CBF4D
:1056FC0001221A600E4B1A68D0075CBF01221A6097
:10570C000C4B1A68D1075CBF01221A600A4B1A684D
:10571C00D2075CBF01221A60704700BF6CE7032000
:10572C0068E7032064E7032060E703205CE70320BD
:10573C0058E7032054E7032050E70320244B1A6852
:10574C00D0075CBF01221A60224B1A68D1075CBFDC
:10575C0001221A60204B1A68D2075CBF01221A6022
:10576C001E4B1A68D0075CBF01221A601C4B1A68CA
:10577C00D1075CBF01221A601A4B1A68D2075CBFB2
:10578C0001221A60184B1A68D0075CBF01221A60FC
:10579C00164B1A68D1075CBF01221A60144B1A68A9
:1057AC00D2075CBF01221A60124B1A68D0075CBF8B
:1057BC0001221A60104B1A68D1075CBF01221A60D3
:1057CC000E4B1A68D2075CBF01221A60704700BFEB
:1057DC009CE7032098E7032094E7032090E703203D
:1057EC008CE7032088E7032084E7032080E703206D
:1057FC007CE7032078E7032074E7032070E703209D
:10580C00244B1A68D0075CBF01221A60224B1A681D
:10581C00D1075CBF01221A60204B1A68D2075CBF0B
:10582C0001221A601E4B1A68D0075CBF01221A6055
:10583C001C4B1A68D1075CBF01221A601A4B1A68FC
:10584C00D2075CBF01221A60184B1A68D0075CBFE4
:10585C0001221A60164B1A68D1075CBF01221A602C
:10586C00144B1A68D2075CBF01221A60124B1A68DB
:10587C00D0075CBF01221A60104B1A68D1075CBFBD
:10588C0001221A600E4B1A68D2075CBF01221A6003
:10589C00704700BFCCE70320C8E70320C4E7032010
:1058AC00C0E70320BCE70320B8E70320B4E70320DC
:1058BC00B0E70320ACE70320A8E70320A4E703200C
:1058CC00A0E70320184B1A68D1075CBF01221A60AD
:1058DC00164B1A68D2075CBF01221A60144B1A6867
:1058EC00D0075CBF01221A60124B1A68D1075CBF4B
:1058FC0001221A60104B1A68D2075CBF01221A6091
:10590C000E4B1A68D0075CBF01221A600C4B1A6848
:10591C00D1075CBF01221A600A4B1A68D2075CBF20
:10592C0001221A60704700BFECE70320E8E7032070
:10593C00E4E70320E0E70320DCE70320D8E70320BB
:10594C00D4E70320D0E7032010B5054C13462CB147
:10595C000A4601460220AFF3008010BD204610BD60
:10596C000000000010B5431E0A44914204D011F807
:10597C00014B03F8014FF8E710BD02440346934274
:10598C0002D003F8011BFAE77047000038B5124B40
:10599C001C68A36B0546D3B91820FEF7AFFD43F284
:1059AC000E33A06303804AF6CD33438041F2342397
:1059BC0083804EF26D63C3804DF6EC630381052347
:1059CC0043810B23838101220023C0E90423A36BB1
:1059DC0000221D615A6138BDC4E30320024B01460D
:1059EC00186800F003B800BFC4E3032070B5064686
:1059FC0008460C4600F00DF8451C29463046FEF7CB
:105A0C0095FD064618B12A462146FFF7ABFF3046F6
:105A1C0070BD034613F8012B002AFBD1181A01386C
:105A2C00704700001D400D0059400D0085400D00D1
:105A3C0089400D0000000000486920456C696A61CE
:105A4C00680054657374696E670000000000000004
:105A5C0000000000A7450D009D450D0093450D006D
:105A6C0089450D007D450D0071450D0065450D0006
:105A7C005D450D0053450D0049450D005D540D006D
:105A8C00626175640053657269616C00536572697B
:105A9C00616C31007479706500706172616D0063C6
:105AAC006D6400696400686E64007374726D0066E6
:105ABC00696C74006C766C0061646448616E646C33
:105ACC0065720072656D6F766548616E646C6572A7
:105ADC0000656E756D48616E646C657273004A5337
:105AEC004F4E53747265616D4C6F6748616E646C98
:105AFC0065720061707000253031307520005D20BA
:105B0C00002564002C200028293A2000205B00632B
:105B1C006F6465203D200025690064657461696CC3
:105B2C0073203D20000D0A0066006C6E00666E004E
:105B3C00636F64650064657461696C006E6F6E659B
:105B4C0000747261636500696E666F007761726ED6
:105B5C00006572726F720070616E696300616C6CCB
:105B6C00005A00252B3033643A2530327500255904
:105B7C002D256D2D25645425483A254D3A25532560
:105B8C007A0061736374696D6500000000000000A9
:105B9C0000000000D9480D00DF480D0023490D001E
:105BAC00ED480D00DB480D00000000000000000077
:105BBC00714E0D00614E0D00634E0D000000000093
:105BCC0000000000494F0D00994F0D00A74F0D002C
:105BDC00B1460D00854F0D004B4F0D00614F0D0070
:105BEC00934F0D00774F0D00454F0D000000000046
:105BFC00000000004D500D009D500D00AB500D00ED
:105C0C00B1460D0061500D0083500D006F500D001A
:105C1C0097500D004F500D0053500D000000000028
:105C2C000000000079510D00C3510D009B510D0077
:105C3C007B510D00A3510D00AB510D00B3510D0064
:105C4C00BB510D0000000000000000005B520D0075
:105C5C0051520D0047520D003D520D0031520D00B6
:105C6C0025520D0019520D0011520D0007520D0056
:105C7C00FD510D005D540D000000000000000000FF
:105C8C00D7530D00CD530D00C3530D0079530D00A8
:105C9C00B7530D00AB530D009F530D0097530D00E0
:105CAC008D530D0083530D005D540D00000000005A
:105CBC0000000000F5530D00FF530D0009540D00BA
:105CCC0013540D001D540D0029540D0035540D00B6
:105CDC0041540D0049540D0053540D005D540D00FA
:105CEC0000000000000000000000000000000000A8
:105CFC000000000000000000000000000000000098
:105D0C000000000000000000000000000000000087
:105D1C000000000000000000000000000000000077
:105D2C000000000000000000000000000000000067
:105D3C000000000000000000000000000000000057
:105D4C00000000004300000071410D00B1450D0042
:105D5C00FD450D0089460D0045470D0055470D00CA
:105D6C00AD470D0029530D00E1530D0029550D00D1
:105D7C00C5560D0049570D000D580D00D1580D009A
:045D8C000000000013
:045D9000000000000F
:105D9400070000008E5B0D0000000000F05C0D00A9
:105DA400105D0D00305D0D000000000000000000DB
:105DB4000000000000000000505D0D000000000025
:105DC40000000000000000000000000000000000CF
:105DD40000000000000000000000000000000000BF
:105DE40000000000000000000000000000000000AF
:0C5DF400000000000000000064E3032039
:105E0000FFFFFFFF00000102030405060708090A5F
:105E10000B0C0D0E0F101112131415161718191A5A
:085E20001B1C1D1E1F202800A1
:045E28007856341262
:04000003D000401CCD
:00000001FF
