:02000004080AE8
:1000000000000A08805F0A080000060006000501DB
:080010000402E80500000000F5
:0400180094560A08E8
:1000200009480A4908B5884205D0094A824202D0E7
:10003000121A05F0CFFA0748074A0021121A05F0F4
:10004000D4FA064808BD00BF00000020EC5E0A0894
:100050006C0000206C00002070060020700600205C
:1000600070B501F0F7FF074B074C1E46E41AA408D1
:100070000025A54204D056F8253098470135F8E709
:1000800070BD00BFA05E0A08E05E0A0800F02AB852
:1000900008B500F0CFFABDE8084001F09DBF01F0BF
:1000A000C9BC01F0CFBC0078B0FA80F040097047BD
:1000B000012303707047000010B50446024B036033
:1000C00000F0F4FF204610BDB0560A0810B50446F3
:1000D000FFF7F2FF20464FF4987102F0B9FE204678
:1000E00010BD000008B502F079FB4FF4165102F084
:1000F0005BFB322001F00EFF0420002102F0ECFD3A
:10010000244801F026F918B102F068FB224902E008
:1001100002F064FB214901F065FE02F065FE02F089
:1001200093FC1F4801F08EF91D4801F0F7F91C48B7
:1001300001F05BFA1A4801F09AF9002202211848EE
:1001400001F0A2F91749164801F00AFA002203212A
:10015000134801F099F91449114801F001FA0022FD
:1001600004210F4801F090F90D48104901F0F8F909
:100170000F4800F06DFF18B102F030FB0D4902E0AE
:1001800002F02CFB0C4901F02DFE01F0ABFA0B4BF9
:10019000186008BDCC000020B8560A08D2560A08DC
:1001A000FC000020EC560A08F5560A0801570A0818
:1001B0008800002009570A081E570A08E800002096
:1001C00038B50446114801F0F1F8054610492046BB
:1001D00001F091FD0F4B1B689D4201D10E4910E0CB
:1001E0000E4B1B689D4201D10D490AE00D4B1B6867
:1001F0009D4201D10C4904E00C4B1B689D4203D188
:100200000B49204601F0A4FD204638BDCC0000205B
:1002100033570A08F0580A0838570A08EC580A08F1
:100220003F570A08E4580A084E570A08E8580A08CF
:100230005C570A08F8B50D4C0746204615460E4691
:1002400000F098FB04F0CAFF3860204600F0BCFBC9
:10025000074904F0B1FE04F0C1FF3060204600F011
:10026000F3FC04F0BBFF28600120F8BD88000020EB
:100270000000C842000000002DE9F74F444C454BF8
:10028000226812B91B68236000E01A60206804F03D
:100290005BF937A3D3E9002304F0F6FA04F07AFC03
:1002A0003D4D3E4E286004F071F900223C4B02F0B7
:1002B0002DFF2F6880463846894604F067F92EA343
:1002C000D3E9002382468B464046494604F0B2F902
:1002D0005246804689465B465046594604F0AAF984
:1002E00027A3D3E9002304F0A5F902460B464046B4
:1002F000494603F0EBFF804689463846294904F019
:10030000A7FD04F043F902460B464046494603F078
:10031000DFFF1DA3D3E9002303F0DAFF04F03AFC6A
:10032000306002F05BFA23681F4A012101F083FD6F
:1003300002F054FA0446286804F028F91B4ACDE973
:1003400000010121204601F076FD02F047FA044643
:10035000306804F01BF9164ACDE90001012120465E
:1003600001F069FD03B0BDE8F08F00BFAFF300807E
:1003700000000000804F12419A9999999999F13F94
:100380006666666666660E40D7A3703D0AD7E33F91
:10039000740000207C0000208400002070000020F9
:1003A000000008400000024466570A086E570A0819
:1003B0007A570A08F8B51F4606460D4614462E48D9
:1003C00001F0ACF8032200212B4801F05DF83968F8
:1003D000294801F0C5F800220221274801F054F80D
:1003E0002649254801F0BCF83146234801F0C5F8FC
:1003F0002349214801F0B4F8002203211E4801F0EE
:1004000043F820491C4801F0ABF829461A4801F08E
:10041000B4F81D49184801F0A3F800220421164839
:1004200001F032F81949144801F09AF821461248AF
:10043000174C01F0A2F817490F4801F091F84FF05E
:100440007E51206804F0C0FEA8B1002205210A48B0
:1004500001F01AF81049084801F082F8206804F009
:10046000BDFE0146044801F088F8BDE8F8400B499C
:10047000014801F075B8F8BDFC00002092570A0849
:1004800099570A089B570A0878570A08A6570A0876
:1004900070000020AE570A08B3570A088B570A08A5
:1004A00070B504460E46154600F008FF012231469D
:1004B000204600F077FE20463A2100F027FE2A462B
:1004C0002046BDE87040014900F05FBE6B570A0846
:1004D00070B504460E46154600F0F0FE3146204643
:1004E000012200F05FFE20463A2100F00FFE29466F
:1004F0002046BDE8704000F005BF0000F0B507469B
:100500000E4615461C46D5B04FF4807214A908A8B3
:1005100000F0EAFD394B7D227B2108A8089300F00A
:10052000D8FE3A46364908A8FFF7BAFF32463549A1
:1005300008A8FFF7B5FF2A46334908A8FFF7B0FF20
:10054000214604A801F0F9FB08A800F0B7FE01223B
:100550002E4908A800F026FE3A2108A800F0D6FD92
:100560000122049908A800F01DFE04A801F07CFBFC
:10057000274B1C68E4B108A800F0A0FE0122254921
:1005800008A800F00FFE3A2108A800F0BFFD22469F
:10059000214908A800F0F9FD204B21491A6808A854
:1005A000FFF796FF1F4B20491A6808A8FFF790FF36
:1005B00008A800F0B9FD099B1C4903931C4B039A42
:1005C0001B7804A88DF800303C2301F0B1FE059C97
:1005D0007CB16368013B63605BB9236820469B681C
:1005E0009847A368013BA3601BB923682046DB68DA
:1005F000984708A8FFF760FD55B0F0BDB0560A084F
:10060000BA570A08BF570A08C8570A08D1570A0834
:1006100074000020DD570A08E6570A08840000200D
:10062000EA570A0870000020F5570A0808580A0817
:10063000800000202DE9F04100218CB0042002F060
:100640009FFB314C314B324D1860236818442060B9
:1006500001F048F82B68C01A47F2305398424FD93E
:1006600004A8FFF7ADFD02F0B9F8049B294A012167
:1006700001F0E1FB03AA02A901A8FFF7DBFD02F0EC
:10068000ADF8019B244A012101F0D5FB02F0A6F848
:10069000029B224A012101F0CEFB02F09FF8039B4E
:1006A0001F4A012101F0C7FBFFF7E6FD019E039FF2
:1006B000DDF8088004A908A801F03FFB424608AB1A
:1006C00039463046FFF776FE08A801F0CDFA019EC4
:1006D000039FDDF8088004A908A801F02EFB08ABF1
:1006E000424639463046FFF709FF08A801F0BCFA38
:1006F0000023236000F0F6FF286004A801F0B4FA9C
:100700000CB0BDE8F08100BF74000020780000202C
:10071000E800002011580A0821580A082A580A0837
:1007200037580A0810B5094B01241C7000F062FF0D
:100730002046002101F0EAF80C21054800F004FEF3
:10074000BDE81040034800F03BB800BF8000002027
:10075000CC0000208800002010B50446806808B155
:1007600000F0D0FF204610BD7FB502461379084641
:10077000956833B13DB90C4904B0BDE8704001F053
:100780001EBB0A4B00E00A4B167B0A4C0A49527BFF
:10079000012E08BF2146029201910095074A0021CF
:1007A00001F049FB04B070BD61580A08A35C0A0857
:1007B00050580A0859580A085D580A0877580A0814
:1007C000FF22027442748274C274704738B50B4DB4
:1007D000296811F001040FD12846FFF764FC58B1D5
:1007E0002146074801F064F92846FFF761FC054AF5
:1007F0000549034802F01EFB014838BDEC0000200B
:10080000F00000206C00002059070A082DE9F04193
:1008100090F91330054601330F4606D1FFF7D6FF96
:100820003946BDE8F04101F0ECB9072600244FF04D
:10083000010895F91300002180B202F05EFA95F9E3
:10084000110008FA06F1394080B202F056FA95F923
:100850001300012180B202F050FA95F912006400F1
:1008600080B2E4B202F062FA08B144F0010416F179
:10087000FF36DED22046BDE8F08108B5FFF7A6FFBF
:10088000BDE8084001F033B910B50446FFF79EFFFC
:100890002146BDE8104001F045B9000030B590F99F
:1008A000103085B0013304460D4621D1017900682E
:1008B00002F001F92068294603689B689847206880
:1008C00002F004F903222179206802F0F1F820688F
:1008D00003685B6998470502206803685B6998476D
:1008E00028430502206803685B699847054339E09F
:1008F00090F9133001330ED11C4B1D4A0093029224
:100900000023012268468DF804308DF80C208DF804
:100910000D30FFF7B9FF94F91000002180B202F00A
:10092000ECF945F080012046FFF770FF00212046DA
:10093000FFF76CFF002105022046FFF767FF284301
:10094000050200212046FFF761FF054394F91000DE
:10095000012180B202F0D1F994F91330013301D1B1
:10096000FFF78BFF284605B030BD00BF4C580A0882
:1009700020A1070010B5FA210446FFF78FFFB0F55C
:10098000000F1BD0A28AC2EB20235B435200C2EBB4
:10099000E010B4F916201B135043B4F91820534348
:1009A0009B1303EBE020E06000EB8000803000123E
:1009B00004F0FAF9024904F0FFFA10BD014810BD35
:1009C0000000C8420000C07F2DE9F84F0646FFF73F
:1009D000D1FFF7213046FFF761FFB0F5000F074662
:1009E00000F0BF80F468B6F91C20E517B4F5FA34BE
:1009F00045F1FF35A4FB048904FB05F302FB05F177
:100A000009EB4309D31704FB0311A2FB04230B4496
:100A1000190341EA12511003B6F91E2002FB09FE28
:100A2000D31708FB03EEA2FB082373444FEA122AF4
:100A30004AEA036A1AEB000A728B4FEA232B4BEB4C
:100A4000010B1AF100004BF50041A0FB02AB02FBC9
:100A500001BB4FEA6B024FEAEB7352EA030100F06D
:100A60008380381140F63547B6F924A0C0F58010D0
:100A70000AFB09F14FEAEA7B08FB0B11AAFB088984
:100A8000B6F922A089440AFB05F14FEAEA7B04FB90
:100A90000B11AAFB04450D444FEA454B4FEA444A6B
:100AA0001AEB080A4BEAD43B4BEB090B4FEAE0790F
:100AB0004FEAC97545EA5005C407B6F920004FF062
:100AC000000818EB0A084FEAC00949EB0B09B4EB20
:100AD0000804A4FB070165EB090507FB051104F0F9
:100AE000A3FBB6F92A204C1302FB04F7450B45EA99
:100AF000C145D31705FB0377A2FB052354433B44B1
:100B000005FB0344A2FB05232344540E44EAC3140B
:100B1000B6F9282024184FEA63654D415143D31795
:100B200000FB0313A2FB00011944C20C42EA41324C
:100B30001219B6F926404FEAE1436B41100AE51756
:100B4000220140EA036019122B0143EA1473801852
:100B5000594104F03FF94FF06E5104F079F9BDE8C6
:100B6000F88F0348BDE8F88F0020BDE8F88F00BF7C
:100B70000000C07F30B590F9103085B001330446D5
:100B80000D461DD10179006801F095FF20682946C6
:100B900003689B689847206801F098FF022221793A
:100BA000206801F085FF206803685B699847054667
:100BB000206803685B69984740EA052085B235E004
:100BC00090F9133001330ED11A4B1B4A0093029255
:100BD0000023012268468DF804308DF80C208DF832
:100BE0000D30FFF751FE94F91000002180B202F0A1
:100BF00084F845F080012046FFF708FE00212046DA
:100C0000FFF704FE002105462046FFF7FFFD40EAFE
:100C1000052085B294F91000012180B202F06DF830
:100C200094F91330013301D1FFF727FE284605B0B0
:100C300030BD00BF4C580A0820A1070008B5FFF7D7
:100C400099FF40BA80B208BD10B50446FFF792FE86
:100C5000FD212046FFF78EFFB0F5004F3AD0B4F9E2
:100C60003230E268B4F934101B05A2F59632C3EBBA
:100C7000803302FB113303F58043D81394F83030EE
:100C800094F9361053434A43DB12921203F50043A2
:100C90005343B4F92E209B1203F50013534303F57D
:100CA00000539B134343D813404394F82C20C011A6
:100CB0005043A3EB201020EAE070B0F1C85FA8BF5A
:100CC0004FF0C850001304F06FF84FF06A5104F071
:100CD000BFF810BD004810BD0000C07F30B590F9CE
:100CE000103085B0013304460D4616D101790068F5
:100CF00001F0E1FE2068294603689B689847206858
:100D000001F0E4FE01222179206801F0D1FE206883
:100D100003685B699847C5B22EE090F91330013340
:100D20000ED1174B174A0093029200230122684606
:100D30008DF804308DF80C208DF80D30FFF7A4FDF0
:100D400094F91000002180B201F0D7FF45F0800136
:100D50002046FFF75BFD00212046FFF757FD0546C3
:100D600094F91000012180B201F0C7FF94F913300B
:100D7000013301D1FFF781FD284605B030BD00BF2A
:100D80004C580A0820A1070008B5F321FFF7A6FF79
:100D900000F0010008BD38B588210446FFF74EFF7A
:100DA0008A21A0822046FFF749FF8C21E08220465D
:100DB000FFF744FF8E2120832046FFF73FFF90215D
:100DC00060832046FFF73AFF9221A0832046FFF779
:100DD00035FF9421E0832046FFF730FF96212084E1
:100DE0002046FFF72BFF982160842046FFF726FF5F
:100DF0009A21A0842046FFF721FF9C21E084204611
:100E0000FFF71CFF9E2120852046FFF717FFA12139
:100E100060852046FFF762FFE12184F82C00204620
:100E2000FFF70CFFE321E0852046FFF757FFE421A1
:100E300084F830002046FFF751FFE52105462046A3
:100E4000FFF74CFF00F00F0040EA05106086E62136
:100E50002046FFF743FFE52105462046FFF73EFF0A
:100E6000001140EA0510A086E7212046FFF736FF73
:100E700084F8360038BD00007FB590F91030044684
:100E800001330E46154611D10179006801F013FEB9
:100E90002068314603689B689847206829460368A4
:100EA0009B689847206801F011FE2DE090F91330FF
:100EB00001330ED1154B164A0093029200230122F2
:100EC00068468DF804308DF80C208DF80D30FFF752
:100ED000DBFC94F91000002180B201F00EFF06F057
:100EE0007F012046FFF792FC29462046FFF78EFC43
:100EF00094F91000012180B201F0FFFE94F9133043
:100F0000013301D1FFF7B9FC04B070BD4C580A0899
:100F100020A10700F8B5044690F83C509DF81860F1
:100F200061F3871562F3020563F3C50590F840305D
:100F30009DF81CE066F3471380F8403090F8383095
:100F40009DF820706EF3C50367F3020380F83C50F0
:100F500080F8383006F00702F221FFF78DFF94F891
:100F600038202046C2F3C20302F007019B0043EA87
:100F7000411343EAD212F521FFF77EFF94F83C209B
:100F80002046C2F3C20302F007019B0043EA41136B
:100F900043EA9212F421BDE8F840FFF76DBF30B587
:100FA000044690F9100085B0421C03D1206801F07E
:100FB0004BFD22E0012180B201F09FFE94F9100068
:100FC000012180B201F088FE94F91300431C04D182
:100FD000FFF7FCFB00F07BFD0FE0012180B201F088
:100FE0007BFE94F91100012180B201F075FE94F9A5
:100FF0001200002180B201F06FFED0212046FFF7E1
:101000006DFE6028A06020D12046B622E021FFF7C7
:1010100033FF4FF4967000F07DFF2046FFF7B4FEDB
:10102000054608B16420F6E72046FFF7B4FE052325
:1010300000931A460321204602950195FFF76AFFA7
:10104000642000F067FF012000E0002005B030BD03
:10105000772310B50371044601F0C6FE20602046D8
:10106000FFF79DFF30B9762323712046BDE810407D
:10107000FFF795BF10BD00F0BDBA000010B5054BDD
:1010800004460360037C1BB9406808B100F0DAFC39
:10109000204610BDA0580A0810B50446FFF7EEFF21
:1010A0002046142101F0D4FE204610BD10B50446A0
:1010B000024B0360FFF7E2FF204610BDB0580A085C
:1010C00010B50446FFF7F2FF2046302101F0C0FEC4
:1010D000204610BD00230122C3604361027643769F
:1010E00080F82A30704700000023C36010B5012348
:1010F0000374054B416003604FF0FF338260C362AD
:10110000FFF7E8FF10BD00BFB0580A08C368826847
:1011100010B593423DBF42685C1CC460012334BFDC
:10112000D15480F82A3010BD10B54369044643B14C
:1011300000EB4303597E09B1FFF7E8FF6369013B08
:101140006361A368E068616898424FF000022ABFBB
:101150005B180A5403F8012C10BD70B50446C06832
:10116000A56866682D1A134630440A46294600F0E1
:1011700079FC854235BFA368E368E360C01836BFD9
:101180000123E06084F82A3070BD0EB403B503AAD1
:1011900052F8041B0192FFF7E0FF02B05DF804EB88
:1011A00003B070472DE9F04104460E46174612B1D0
:1011B0002221FFF7ABFF0025715D06EB0508002932
:1011C00071D0E268A3689A426DD20B0633D501F064
:1011D000F003E02B17D198F8013003F0C002802A09
:1011E00011D105F1020816F8082002F0C00080288D
:1011F00009D102F03F029B0142EA013203F47C6311
:101200001A4392B211E001F0E003C02B46D105F180
:10121000010816F8083003F0C002802A3ED1890187
:1012200001F4F86203F03F031A4323492046FFF715
:10123000ACFF454635E00C2918D00BD8092921D040
:101240000A2919D0082929D15C212046FFF75EFF21
:10125000622123E022291BD05C2919D00D291DD140
:101260005C212046FFF752FF722117E05C212046E7
:10127000FFF74CFF662111E05C212046FFF746FF97
:101280006E210BE05C212046FFF740FF742105E052
:101290005C212046FFF73AFF98F800102046FFF740
:1012A00035FF013588E72FB12046BDE8F041222106
:1012B000FFF72CBFBDE8F081BD580A08426900EB7A
:1012C00042031A7E12B100221A7670472C21FFF7D2
:1012D0001DBFF8B543690E460133082B17460ED8DB
:1012E000FFF7ECFF436901245A1C00EB4303426102
:1012F00031469C76DF76FFF709FF2046F8BD0020D7
:10130000F8BD000037B50446E56A0846002D0ADB43
:1013100003F03CF92A46CDE9000108492046FFF7D1
:1013200034FF03B030BD03F031F902460B462046CE
:10133000034903B0BDE83040FFF727BFCF580A0884
:10134000D4580A0800F056B90022016002614261D7
:10135000704710B50446008801F0FBFC40F21233E0
:10136000A0F10B029A4207D8A0606060E06000F034
:10137000B9F9A061012010BD002010BD10B50446D0
:1013800000F0B0F9A369C01A074B98420AD9236943
:10139000626993FBF2F3E36000F0A4F90023A0611B
:1013A0002361636110BD00BF20A1070010B58368F1
:1013B00004464360008801F0CCFC2369A060184417
:1013C00063692061013363612046FFF7D7FFA2689C
:1013D0006168511AB1F5C87F10DCB2F52F7F0DDCC2
:1013E000E368D31A962B0BDCC82902DDB2F52F7FF8
:1013F00008D1322BCCBF0220032010BD002010BD2D
:10140000012010BD022010BD00F0F4B80368C9B27D
:101410009B68184710B50C4601F0E6FC3C2101F032
:101420004EFB01F0E1FC8021FFF7F0FF01F0DCFC56
:10143000036821469B68984701F0D6FCBDE8104040
:1014400001F044BB10B50446AE21FFF7E3FF0520D1
:1014500000F060FDAF212046FFF7DCFF052000F023
:1014600059FD2046BDE81040A621FFF7D3BF10B5B7
:101470000446012303702021FFF7CCFF2046BDE87E
:1014800010400221FFF7C6BF38B514460546503953
:10149000E400C9B2FFF7BEFF04F008012846FFF7D9
:1014A000B9FFC4F303112846BDE838401031FFF7F7
:1014B000B1BF10B50C4601F097FC3C2101F0FFFADA
:1014C00001F092FC4021FFF7A1FF01F08DFC0368C1
:1014D00021469B68984701F087FCBDE8104001F069
:1014E000F5BA000070B50646A1F120035F2B0A4B48
:1014F00088BF202103EBC1056FF4807203EBC103A9
:101500001544A3F1F90415F8011F3046FFF7D1FF88
:10151000A542F8D170BD00BFF4580A0870B5AE21DD
:101520000546FFF777FF00260022F1B22846FFF7B5
:10153000ABFF102420212846013CFFF7D3FF14F015
:10154000FF04F7D10136082EEED12846AF21FFF770
:1015500061FF224621462846BDE87040FFF794BF50
:1015600070B505460E460024E3B2F15C013419B1B2
:101570002846FFF7B7FFF7E770BDF0B5002385B049
:101580000E1E074601930293ADF80C3007DA2D21A9
:10159000FFF7A8FF7642012300240A2105E0FBD1D2
:1015A0003021FFF79FFF01201DE004AA651C1444B1
:1015B00096FBF1F201FB1266EDB204F80C6C2C46BE
:1015C0001646002AF1D12B44DCB25DB104AB2B44AA
:1015D00013F80D1C38463031C9B2013DFFF782FFC8
:1015E000EDB2F2E7204605B0F0BDA621FFF712BF2D
:1015F00000F000B808B5024B1B681B68019308BDDA
:10160000B001060808B5024B1B685B68019308BD72
:10161000B001060808B5024B1B689B68019308BD22
:10162000B001060808B5024B1B68DB68019308BDD2
:10163000B001060808B5024B1B681B69019308BD81
:10164000B001060808B5024B1B685B69019308BD31
:10165000B001060808B5024B1B681B6B019308BD5F
:10166000B001060808B5024B1B68DB6C019308BD8E
:10167000B001060808B5024B1B681B68019308BD42
:10168000B401060808B5024B1B685B69019308BDED
:10169000B401060808B5024B1B68DB69019308BD5D
:1016A000B401060808B5024B1B681B6A019308BD0C
:1016B000B401060808B5024B1B685B6A019308BDBC
:1016C000B401060808B5024B1B68DB6B019308BD2B
:1016D000B401060808B5024B1B685B68019308BD9E
:1016E0009C01060808B5024B1B685B69019308BDA5
:1016F0009C01060808B5024B1B685B6C019308BD92
:10170000D001060808B5024B1B689B6C019308BD0D
:10171000D001060808B5024B1B68DB6C019308BDBD
:10172000D001060808B5024B1B685B6D019308BD2C
:10173000D001060808B5024B1B689B69019308BDE0
:10174000C401060808B5024B1B685B6A019308BD1B
:10175000C401060808B5024B1B689B6A019308BDCB
:10176000C401060808B5024B1B68DB6A019308BD7B
:10177000C401060808B5024B1B681B6B019308BD2A
:10178000C401060808B5024B1B685B6B019308BDDA
:10179000C401060808B5024B1B689B6B019308BD8A
:1017A000C401060808B5024B1B681B6C019308BDF9
:1017B000C401060808B5024B1B68DB6C019308BD29
:1017C000AC01060808B5024B1B689B6D019308BD70
:1017D000AC01060808B5024B1B68DB6D019308BD20
:1017E000AC01060808B5024B1B681B6E019308BDCF
:1017F000AC01060808B5024B1B685B6E019308BD7F
:10180000AC01060808B5024B1B689B6E019308BD2E
:10181000AC01060808B5024B1B68DB6E019308BDDE
:10182000AC01060808B5024B1B681B6F019308BD8D
:10183000AC01060808B5024B1B685B6F019308BD3D
:10184000AC01060808B5034B1B68D3F88030019340
:1018500008BD0000AC01060808B5034B1B68D3F8AF
:101860009030019308BD0000AC01060808B5024B9A
:101870001B681B68019308BDD801060808B5024B18
:101880001B685B68019308BDD801060808B5024BC8
:101890001B681B69019308BDD801060808B5024BF7
:1018A0001B685B69019308BDD801060808B5024BA7
:1018B0001B689B69019308BDD801060808B5024B57
:1018C0001B68DB69019308BDD801060808B5024B07
:1018D0001B681B6A019308BDD801060808B5024BB6
:1018E0001B689B6C019308BDC001060808B5024B3C
:1018F0001B685B68019308BDA401060808B5024B8C
:101900001B685B69019308BDA401060808B5024B7A
:101910001B68DB6A019308BDA401060808B5024BE9
:101920001B68DB6C019308BDA401060808B5024BD7
:101930001B685B6D019308BDA401060808B5034B45
:101940001B68D3F89030019308BD0000A40106087D
:1019500008B5034B1B68D3F89C30019308BD000009
:10196000A401060808B5024B1B685B68019308BD1B
:10197000C801060808B5024B1B689B68019308BDA7
:10198000C801060808B5024B1B68DB68019308BD57
:10199000C801060808B5024B1B681B69019308BD06
:1019A000C801060808B5024B1B685B69019308BDB6
:1019B000C801060808B5024B1B689B69019308BD66
:1019C000C801060808B5024B1B68DB69019308BD16
:1019D000C801060808B5024B1B681B6A019308BDC5
:1019E000C801060808B5024B1B681B6B019308BDB4
:1019F000C801060808B5024B1B685B6B019308BD64
:101A0000C801060808B5024B1B685B69019308BD55
:101A1000CC01060808B5024B1B681B6A019308BD80
:101A2000CC01060808B5024B1B68DB6B019308BDAF
:101A3000CC01060808B5024B1B681B68019308BD62
:101A4000A001060808B5024B1B685B68019308BD3E
:101A5000A001060808B5024B1B689B68019308BDEE
:101A6000A001060808B5024B1B685B6A019308BD1C
:101A7000A001060808B5024B1B68DB6A019308BD8C
:101A8000A001060808B5024B1B681B6B019308BD3B
:101A9000A001060808B5024B1B68DB6B019308BD6B
:101AA000A00106080068FFF735BE0068FFF73ABEE0
:101AB00070B504460E46002540F8085FFFF71AFE91
:101AC00030462670FFF7E6FD6560204670BD38B5EC
:101AD000054600F108042046FFF7E4FF28784FF69A
:101AE000FF71FFF7C7FD2046FFF7DFFF38BD08B5E0
:101AF0000830FFF7DAFF08BD400830B51860002451
:101B00001868E5B2884206D90134082C02D0400892
:101B10001860F5E70725024B5B5D137030BD00BF11
:101B2000F45B0A082DE9F04380468FB008300E467A
:101B3000FFF7B8FF98F800401422002109A803F02D
:101B400054FD0B232046002209A9ADF82430FFF7ED
:101B5000B1FD9DF82D404CB19DF82C502DB90C9F36
:101B60009DF834909DF8354003E00024A1462746B7
:101B7000012533790DB1002B3FD19D420BD1B268C5
:101B8000BA4208D18DF820908DF82140BDF8201080
:101B9000B289914231D03BB1002398F80000019303
:101BA00000931A46012116E08DF80F30B16804AB9E
:101BB0000DF10F020A98FFF79FFF317905B1C9B9FE
:101BC000A9420BD000240194747B337B9DF80F2035
:101BD00098F800000094FFF775FD0EE0B368BB4273
:101BE000F0D38DF820908DF82140BDF82020B389E6
:101BF0009A42E7D1049BBB42E4D100200FB0BDE87C
:101C0000F08308B50078FFF73DFDC0B208BD00784D
:101C1000FFF748BD10B50446006818B1FFF712FF82
:101C20000023236010BD10B50446FFF7F3FF2046E4
:101C300010BD00004FF6FF7310B5084C0020206067
:101C4000A080A07120816381FFF750FE2046BDE88F
:101C50001040034A034901F0EDB800BF0001002025
:101C60006C000020271C0A0810B504460068FFF726
:101C7000E9FE204610BD10B50446006808B1FFF724
:101C8000E1FE00232360A360636010BD38B5044605
:101C90000D4600680131FFF7DDFE10B184E8210038
:101CA000012038BD10B50368044613B143688B4268
:101CB00007D22046FFF7EAFF20B1A3680BB92268DC
:101CC0001370012010BD70B50E461146044615462E
:101CD000FFF7E8FF18B92046FFF7CDFF09E02A46D5
:101CE0003146A560206803F075FC2268A3680021D6
:101CF000D154204670BD38B50023044603604360CC
:101D0000836003730D4639B1084603F0BAFC2946D7
:101D100002462046FFF7D7FF204638BD884210B55F
:101D20000B46044607D0096819B19A68FFF7CBFF44
:101D300001E0FFF7A0FF204610BD10B504460023C8
:101D40000360436083600373FFF7E8FF204610BD24
:101D500038B505460C4641B1084603F092FC2146D1
:101D600002462846FFF7AFFF01E0FFF784FF284651
:101D700038BDF8B506460D468F180024BD420CD07C
:101D8000336815F8011B9B6830469847002801DB33
:101D90000444F3E7002C08BF04462046F8BD70B5A4
:101DA00005460C46084649B103F06BFC2B68024619
:101DB00021462846BDE87040DB68184770BD08B56D
:101DC000FFF7EDFF08BD03689B68184738B50D2184
:101DD0000546FFF7F8FF0A2104462846FFF7F3FF00
:101DE000204438BD38B50546FFF7D9FF04462846DC
:101DF000FFF7ECFF204438BD012A98BF0A2230B516
:101E00000B468BB000218DF824100DF12304B3FB99
:101E1000F2F505FB1233DBB2092B94BF30333733B5
:101E2000DBB2214604F801392B46002DEFD1FFF734
:101E3000B6FF0BB030BD0CB42DE9F04387B000AF56
:101E400007F1380454F8049B05460E4623464A46DB
:101E50001421381D3C60FFF705FE132805D8391DF5
:101E60002846FFF79CFF044613E000F1080323F027
:101E70000703E846ADEB030D411C23464A4668467E
:101E80003C60FFF7EFFD69462846FFF788FF0446F0
:101E9000C5461EB12846FFF799FF044420461C376B
:101EA000BD46BDE8F04302B0704700231A4619460C
:101EB0004068FFF777BD38B5046805467CB16368B4
:101EC000013B63605BB9236820469B689847A36821
:101ED000013BA3601BB923682046DB68984728466E
:101EE00038BD0B68036013B15A6801325A607047FD
:101EF000014A024B1A607047725C0A080C0100200C
:101F0000024B1A68024B1A60704700BF00000020A5
:101F1000100100200021FFF7F1BC10B583680446D2
:101F200013B1032201469847204610BD10B5044660
:101F3000FFF7F3FF204610BD13B50B46044603C858
:101F40008DE8030093E8030084E803009DE80300A4
:101F500083E8030002B010BD034800238360034AF6
:101F6000034900F067BF00BF140100206C0000208F
:101F70002D1F0A0808B5144B33B100F02FFC03687D
:101F80001B699847002816DC104B33B100F0E4FCC5
:101F900003681B699847002810DC0D4B0BB1AFF3A9
:101FA00000800C4B7BB100F055FC03681B6998471F
:101FB000002806DC08BDAFF30080E5E7AFF3008042
:101FC000EBE7AFF3008008BD000000000000000058
:101FD000000000000000000008B5FFF7CBFFFFF78E
:101FE00081FB014B186008BD980500200248034A98
:101FF0000349121A03F0EEBA0040024004400240C6
:10200000E85E0A0807B5002300931A466FF07701CF
:10201000FFF79EFC03B05DF804FB000007B54388A2
:102020000A2B08D0502B09D1094B1B683BB103B0D8
:102030005DF804EB1847FFF7E5FF06E00023009387
:102040001A466FF07701FFF783FC03B05DF804FBDD
:102050002401002038B5104C104D2368AB42104BC2
:102060000CBF012200221A7002D0FFF7BFFF2560CB
:10207000FFF730FB044603F0C1FA0A4B13B12046C8
:10208000AFF3008000210748FFF7CCFCBDE83840E3
:1020900000210548FFF752BC004002401E1C279A51
:1020A00028010020000000001D200A0870470020C1
:1020B000704710B50446102100F0CAFE204610BD3E
:1020C00008B508B1FFF7F5FF08BD002202604FF622
:1020D0009C72828010B5B1F9044084808A800268C5
:1020E0000C6804600A6010BD10B504460068FFF774
:1020F000A9FC204610BD38B5C468F4B12378022B82
:1021000003D104F10C00FFF7EFFF656835B12846F5
:10211000FFF703FF1021284600F09AFEA56835B1AD
:102120002846FFF7FAFE1021284600F091FE2046CF
:10213000BDE83840142100F08BBE38BD13B504460D
:1021400091E8050000234B600B602060626001A8ED
:1021500001930093FFF7AFFE204602B010BDF7B524
:102160000C4606460F4654F8043B02AD45F8083DC0
:10217000214601A8FFF7B5FE29463046FFF7DEFFEE
:1021800001A8FFF798FE2046FFF795FE3846082184
:1021900000F05EFE304603B0F0BD000038B500230D
:1021A0000446036010200D46FDF779FF28B1012396
:1021B00043608360024BC56003602060204638BDE9
:1021C0000C5D0A08826810B50AB900F054FEC368B5
:1021D000BDE81040184708B5006800F11001FFF78E
:1021E000F1FF08BD826810B50AB900F044FEC3686B
:1021F000BDE81040184708B5006800F11001FFF76E
:10220000F1FF08BD38B5002383608B6804460D4696
:102210002BB102229847EB68E360AB68A3602046CD
:1022200038BD0000F0B589B004686846FFF74DFF7F
:102230004FF0020200238DF80830D4E84F3F002B06
:1022400003D1C4E8412F0029F7D102D08DF808301E
:1022500063E014F10C0503D069462846FFF735FF0B
:10226000BFF35F8F01236370BFF35F8F04F1080337
:10227000002053E8006F43E80002002AF9D1BFF3C1
:102280005F8F002E49D0FFF749FB20B12946304629
:10229000FFF798FF3AE0314602A8FFF7B3FFE06886
:1022A000B4F9105008B103F0D1F906901020ADF840
:1022B0001C50FDF7F4FE0546E8B1002787601820A2
:1022C000FDF7EDFE044688B10146876002A8FFF7DE
:1022D00033FE049BA268A360059B0492E26806A9F2
:1022E000E36004F110000592FFF7EFFE0D4B2C6048
:1022F000EB600D4BAB6006A8FFF7F6FE02A8FFF7F8
:102300000CFE002229460948FFF710FB3046FFF774
:1023100004FE1021304600F09BFD6846FFF7E4FE06
:1023200009B0F0BDD7210A084D240A08A5290A08DA
:102330002DE9F04F8BB006460F46904699469DF822
:1023400050A0FFF75FFB07AD834630BB4FF62E73FF
:10235000059005A92846ADF81830FFF7B6FE142001
:10236000FDF79DFE044658B102230370012343701C
:10237000C0F804B0C0F808B029460C30FFF7A5FE3D
:102380003046214640F8044BFFF708FF2846FFF788
:10239000ABFE05A8FFF7A8FE52E000240C23142092
:1023A0006C60AC600793FDF77AFE014618B10470CB
:1023B00044704460846004A80391FFF7EFFE224B51
:1023C00008200893FDF76BFE044628B1039B04A97F
:1023D00040F8043BFFF785FD00955FFA8AF34A4613
:1023E000414638460994FFF715FB20B9039B5B78FB
:1023F00003F0FF0283B1039B04A906A80593FFF72E
:1024000070FD05A93046FFF799FE06A8FFF753FDBA
:1024100004A8FFF750FD13E04FF69C7305A903A82D
:102420000592ADF81830FFF7FDFE05A8FFF75CFE3A
:1024300005A80999FFF793FE06A8FFF73CFDDAE728
:1024400030460BB0BDE8F08FBD250A08022AF8B56A
:10245000044606D0032A17D0012A22D10B68036054
:102460001FE018200E68FDF71AFE054650B13146F0
:10247000FFF7C8FE3069B6F9147008B103F0E6F84A
:102480002861AF8225600CE0046854B104F11000AB
:10249000FFF72AFE2046FFF740FD1821204600F0F6
:1024A000D7FC0020F8BD38B5002383608B68044654
:1024B0000D462BB102229847EB68E360AB68A3603E
:1024C000204638BD022A70B5044606D0032A11D032
:1024D000012A18D10B68036015E014200E68FDF77F
:1024E000DEFD054620B13146FFF7DDFF337C2B745E
:1024F000256008E0046834B12046FFF70EFD142182
:10250000204600F0A5FC002070BD0000F0B50C4690
:10251000BFF35F8F87B0002350E8006F40E80032C0
:10252000002AF9D1BFF35F8F002E3FD01846FFF786
:10253000F5F9074620B121463046FFF753FE2EE05D
:10254000314601A8FFF7AFFF237810208DF8143033
:10255000FDF7A5FD0546D0B187601420FDF79FFD6E
:10256000044678B18760014601A8FFF7E5FC039BAC
:10257000A268A360049B0392E268E3609DF81430B4
:10258000049223740A4B2C60EB600A4BAB6001A8E9
:10259000FFF7C3FC002229460748FFF7C7F930467A
:1025A000FFF7BBFC1021304600F052FC07B0F0BD35
:1025B000F7210A08C5240A08A5290A0830B50446E7
:1025C00085B00D4668461146FFF7C9FD7CB124B2BF
:1025D00028460DB103F03AF8029002A96846ADF81A
:1025E0000C40FFF71FFE02A8FFF77EFD1DE04FF035
:1025F000010200988DF80840D0E84F3FA34203D174
:10260000C0E8412F0029F7D102D08DF808300CE046
:1026100010F10C014FF0010318BF0373BFF35F8F7C
:10262000043000F8033CFFF771FF01A8FFF743FCFB
:1026300005B030BD704710B50446182100F008FC05
:10264000204610BDF8B50F4600F10806051D002410
:1026500016F8011D0A223846FFF7CEFBAE420444AD
:1026600007D0002CF4D02E213846FFF7ACFB0444F1
:10267000EEE72046F8BD000010B50446044B1122D9
:1026800040F8043B002102F0B0FF204610BD00BF1F
:10269000285D0A080346074A10B543F8042B01F1E8
:1026A000100251F8044B914243F8044BF9D10A78D7
:1026B0001A7010BD285D0A08024A416002600422B7
:1026C00002757047285D0A0810B59DF8084044EA75
:1026D000032343EA024242EA016104234160037595
:1026E00010BD000037B5044D05609DF818500095E9
:1026F000FFF7EAFF03B030BD285D0A084174704758
:10270000704708B50021007CFFF7D0F830EA2000C0
:1027100028BF4FF0FF3008BD08B50121007CFFF74E
:10272000C5F830EA200028BF4FF0FF3008BD08B5DB
:10273000007CFFF7B3F820EAE07008BD08B5007C24
:10274000FFF7A4F820EAE07008BD007CFFF7BEB8F0
:1027500010B50446142100F07BFB204610BD38B5AF
:102760000446007C0D46FFF799F8002801DC607CE8
:1027700028B12946207CFFF7A1F820EAE07038BD97
:1027800010B50446002363604FF47A73A360054BD1
:10279000084623600123217463741146FFF766F82D
:1027A000204610BD3C5D0A080022007CFFF766B899
:1027B00010B504461422002102F017FF054B2046F5
:1027C0006360054BE36040F2011323818123238280
:1027D00010BD00BFB10100203001002030B50E4D0A
:1027E00087B001A8FFF7E4FF296811F0010410D1B8
:1027F0002846FDF758FC60B101AA21460748FFF7BB
:10280000BFFF2846FDF754FC054A0649034800F07F
:1028100011FB024807B030BD2C010020B40200209B
:102820006C00002001270A0810B50446142200217C
:1028300002F0DBFE054B20466360054BE36040F28F
:10284000011323818123238210BD00BF6403002074
:10285000CC02002010B50E4C86B001A8FFF7E4FFB3
:102860002368DB0710D42046FDF71DFC60B101AAE8
:1028700001210848FFF784FF2046FDF719FC064AAE
:102880000649044800F0D6FA024806B010BD00BF61
:10289000C8020020500300206C00002001270A0815
:1028A00070474174704708B5007CFEF77BFF20EA53
:1028B000E07008BD08B5007CFEF74CFF20EAE07030
:1028C00008BD08B5007CFEF755FF30EA200028BFA0
:1028D0004FF0FF3008BD08B5007CFEF743FF30EA3B
:1028E000200028BF4FF0FF3008BD007CFEF74ABF34
:1028F00010B50446142100F0ABFA204610BD70B5A7
:10290000457C04460E4625B9007CFEF74BFF0028A7
:1029100005DD3146207CBDE87040FEF713BF284638
:1029200070BD000010B504460846114600226260E2
:102930004FF47A72A260054A207422600122627408
:102940001A46FEF7F7FE204610BD00BF6C5D0A0870
:10295000007CFEF71FBF000038B50C4D296811F050
:10296000010411D12846FDF79EFB68B1084A2146B3
:10297000084B0948FFF7D6FF2846FDF799FB074AA1
:102980000749054800F056FA034838BD0005002005
:10299000040500207C040020680400206C00002056
:1029A000A1280A0810B5836804460BB900F063FA41
:1029B000C3689847A3681BB1032221462046984765
:1029C0002046BDE81040102100F042BA7047F8B52B
:1029D000064615460C468F18BC4206D0336814F8DC
:1029E000011B9B6830469847F6E72846F8BD002251
:1029F000007CFEF7F7BE0021007CFEF7FBBE002145
:102A0000007CFEF7FFBE0021007CFEF703BF002123
:102A1000007CFEF707BF10B50446142100F018FA39
:102A2000204610BD10B50446002363604FF47A734E
:102A3000A360044B2174084623601146FEF702FF91
:102A4000204610BD9C5D0A0800231A461946007CEA
:102A5000FEF7B0BE70B50C46064686B014252A4671
:102A6000002101A802F0C1FD237800228DF8083072
:102A7000636801A90393E368307C0493237AADF87B
:102A800004500593FEF7E8FE06B070BD1FB5003395
:102A90008DF800104FF06401039118BF01236946BF
:102AA00001928DF80830FFF7D5FF05B05DF804FB03
:102AB0000123FFF7EBBF0022007CFEF783BEC9B203
:102AC000FFF7F9BF0022007CFEF784BE0121FFF76B
:102AD000F9BF0021007CFEF7ADBE00221146406820
:102AE000FEF758BFF0B5164689B011220F460446CE
:102AF000002103A802F079FD304602F0C2FD002556
:102B0000009581B27B6803AA3046FEF7E7FE20B14C
:102B100029462046FFF7D0FD03E003A92046FFF732
:102B2000B9FD204609B0F0BD002211464068FEF70D
:102B300051BF002211464068FEF75CBF002240688A
:102B4000FEF750BF002281F001014068FEF73ABF56
:102B500000231A4619464068FEF72CBF0022114692
:102B60004068FEF707BF002202214068FEF70ABF57
:102B700000231A464068FEF7F5BE0000024B04220F
:102B80005A60024A1A60704788050020C45D0A082E
:102B900000231A464068FEF7E5BE00220221406885
:102BA000FEF7F0BE002211464068FEF7E3BE0022A9
:102BB00011464068FEF7EEBE00231A4619464068EB
:102BC000FEF7F0BE00231A4619464068FEF7F2BE33
:102BD000002281F001014068FEF7F4BE0022406847
:102BE000FEF700BF002211464068FEF703BF002237
:102BF00011464068FEF7EEBE70B516468EB004462C
:102C000008A8FFF739FD1122002103A802F0EDFC0E
:102C1000304602F036FD00250A4B009581B25B6814
:102C200003AA3046FEF75AFE20B129462046FFF798
:102C300043FD03E003A92046FFF72CFD20460EB01C
:102C400070BD00BF88050020024B034A1A600022B5
:102C50005A60704790050020F85D0A0870B51A4E5A
:102C60000446316811F001050FD13046FDF71BFA1B
:102C700058B129461548FEF71BFF3046FDF718FAF4
:102C8000134A1449114800F0D5F81048FEF7BFFF69
:102C900028B1A4F10D03022B01D8002070BD00F073
:102CA000A3F8FFF716FF08B1012CF6D9FFF754FE81
:102CB000FFF74EFE18B1A4F11203012BEDD9172C2A
:102CC0008CBF0020012070BDEC000020F00000202F
:102CD0006C00002059070A08172838B504460D462D
:102CE0000AD8FF2908D0FFF7B9FF28B129462046A6
:102CF000BDE83840FEF78EBC38BD38B504460D46F9
:102D0000FEF790FCFF2810D0062804D84D2323FAA4
:102D100000F0C30709D42046FFF7A0FF28B12946D9
:102D20002046BDE83840FEF785BC38BD10B50446E6
:102D3000FEF778FC0438C0B2012808D92046FFF716
:102D40008DFF20B12046BDE81040FEF77BBC00207F
:102D500010BD10B5044609289CBF0A34A4B2204611
:102D6000FFF77CFF50B103212046FEF74BFC032800
:102D700004D12046BDE81040FEF76CBC002010BD19
:102D8000FEF770BC13B5084C00231A461946009391
:102D90002046FFF7A7FC2046044A054902B0BDE8DB
:102DA000104000F047B800BF9C0500206C000020D8
:102DB00035260A0870B5044614252A46094E002116
:102DC00002F013FC258020253146A56025612846A8
:102DD00000F040F831466060284600F03BF8E060C3
:102DE000204670BD245E0A0830B50E4D87B02968B4
:102DF00011F0010413D12846FDF755F978B101A867
:102E0000FFF7D8FF01AA21460748FFF70BFE284627
:102E1000FDF74EF9054A0649034800F00BF8024851
:102E200007B030BDB4050020B80500206C000020BC
:102E3000CD290A080B460146184602F0BDBB00002A
:102E4000024B1868BFF35F8F704700BFCC050020AE
:102E5000FDF727B900F000B810B5002814BF0446EC
:102E600001242046FEF7E6FD20B9FFF7E9FF08B18F
:102E70008047F6E710BD08B5FEF7FCFD184B1A6851
:102E8000D1075CBF01221A60164B1A68D2075CBFDB
:102E900001221A60144B1A68D0075CBF01221A6025
:102EA000124B1A68D1075CBF01221A60104B1A68D6
:102EB000D2075CBF01221A600E4B1A68D0075CBFB4
:102EC00001221A600C4B1A68D1075CBF01221A60FC
:102ED0000A4B1A68D2075CBF01221A60704700BF14
:102EE000EC050020E8050020E4050020E0050020B6
:102EF000DC050020D8050020D4050020D0050020E6
:102F0000244B1A68D0075CBF01221A60224B1A6852
:102F1000D1075CBF01221A60204B1A68D2075CBF40
:102F200001221A601E4B1A68D0075CBF01221A608A
:102F30001C4B1A68D1075CBF01221A601A4B1A6831
:102F4000D2075CBF01221A60184B1A68D0075CBF19
:102F500001221A60164B1A68D1075CBF01221A6061
:102F6000144B1A68D2075CBF01221A60124B1A6810
:102F7000D0075CBF01221A60104B1A68D1075CBFF2
:102F800001221A600E4B1A68D2075CBF01221A6038
:102F9000704700BF1C060020180600201406002001
:102FA000100600200C060020080600200406002061
:102FB00000060020FC050020F8050020F405002094
:102FC000F0050020244B1A68D0075CBF01221A606C
:102FD000224B1A68D1075CBF01221A60204B1A6885
:102FE000D2075CBF01221A601E4B1A68D0075CBF73
:102FF00001221A601C4B1A68D1075CBF01221A60BB
:103000001A4B1A68D2075CBF01221A60184B1A6863
:10301000D0075CBF01221A60164B1A68D1075CBF4B
:1030200001221A60144B1A68D2075CBF01221A6091
:10303000124B1A68D0075CBF01221A60104B1A6845
:10304000D1075CBF01221A600E4B1A68D2075CBF21
:1030500001221A60704700BF4C060020480600207D
:1030600044060020400600203C06002038060020D0
:1030700034060020300600202C0600202806002000
:103080002406002020060020184B1A68D1075CBFD8
:1030900001221A60164B1A68D2075CBF01221A601F
:1030A000144B1A68D0075CBF01221A60124B1A68D1
:1030B000D1075CBF01221A60104B1A68D2075CBFAF
:1030C00001221A600E4B1A68D0075CBF01221A60F9
:1030D0000C4B1A68D1075CBF01221A600A4B1A68B0
:1030E000D2075CBF01221A60704700BF6C06002047
:1030F0006806002064060020600600205C060020B0
:103100005806002054060020500600202DE9F04FFC
:103110008DB006460F4614461D4600F091F9DFF8C3
:103120001093CDE9000199F90080B8F1FF3F46D036
:1031300022462B462046294601F016FD83460028EC
:103140003DD132463B463046394601F00DFD8246C0
:10315000002874D1304639460022002301F0D2FC09
:10316000002833D0002200232046294601F0CAFC63
:103170008346B8B1A94A012300200021CDF828A038
:10318000CDE90467CDE90645CDE908010392029334
:10319000B8F1000F6CD0A24B0022104619460DB0BA
:1031A000BDE8F08F2046294600F074FF38B10022B8
:1031B00000232046294601F0AFFC00286AD1DDE952
:1031C0000023104619460DB0BDE8F08FDDE900017F
:1031D00000F060FF804600287DD0DDE900014FF05F
:1031E000000A4FF0000B52465B4601F08BFC0028B2
:1031F000E5D03046394600F04DFF0028DFD02046AC
:10320000294600F047FF0028D9D099F900308348BB
:1032100004210022022BCDE90467CDE90645CDE962
:1032200008AB039002910A9204D002A800F038FF84
:10323000002847D1FEF72EFC2223036042E0002243
:1032400000232046294601F05DFC0028B7D0744BCE
:10325000724800220121B8F1020FCDF828B0CDE963
:103260000467CDE90645CDE9082303900291A8D073
:1032700002A800F015FF00287ED00A9B43B3FEF79A
:1032800009FCDDE908230A990160104619460DB0D2
:10329000BDE8F08F614999F900300122CDF828B0DE
:1032A000CDE90467CDE9064503910292002B68D071
:1032B0005C490020022BCDE9080166D1FEF7EAFB4C
:1032C000212303600A9B1BB1FEF7E4FB0A9B03600A
:1032D000DDE9082375E73046394600F0DBFE0028BB
:1032E0003FF47BAF2046294600F0D4FE00283FF48F
:1032F00074AFDDE900231046194601F035FC0028C3
:103300006FD1464B99F90080039303230A90CDE9CE
:103310000467CDE906450293B8F1000F3BD1DFF811
:1033200014B14FF0604A0022002330463946CDE9FF
:1033300008AB01F0F1FB00283FF477AF00223A4BD5
:103340002046294601F076F904460D4600F0B0FE0D
:1033500002460B462046294601F0D4FB00283DD109
:10336000324B4FF06042CDE9082399F90080B8F163
:10337000020F7FF45AAF5DE7FEF78CFB2123036059
:103380007BE700230024CDE9083402A800F088FE82
:10339000002897D192E7DFF8A0B04FF0000A002292
:1033A000002330463946CDE908AB01F0B5FB0028D3
:1033B000DDD000221C4B2046294601F03BF9044693
:1033C0000D4600F075FE02460B462046294601F0E8
:1033D00099FB18B9134B0022CDE9082399F9008015
:1033E000C5E70E4A99F900900123CDF82880CDE970
:1033F0000467CDE9064503920293B9F1000FC0D0EE
:10340000002200231046194601F03EFAB9F1020FDE
:10341000CDE908013FF452AFB7E700BF285E0A08C4
:103420000000F03F0000F0FF0000E03FFFFFEFC7AB
:1034300004000020FFFFEF470000F07F00000000C5
:103440002DE9F04F23F0004858EA020993B03CD030
:10345000714C21F00046A64283460D460CDD06F174
:10346000404606F5801656EA0B0038D183466B4974
:10347000584613B0BDE8F08F9A4696462BD0A0452B
:10348000EDDC654CA04578D0002D0F468146CDE996
:10349000002376DB0024BEF1000F27D15E4B984558
:1034A00000F08B805D4B984552D0BAF1804F00F010
:1034B000C9835B4B9A4519D1002D17DB4846394625
:1034C00013B0BDE8F04F00F01DBDCB465846534940
:1034D00013B0BDE8F08F0028C1D1B045D1DD51480F
:1034E00013B0BDE8F04F00F0DDBD0024484639467A
:1034F00000F0CCFDBBF1000F1CD0ED0F013D54EAF4
:10350000050370D0484B984540F3948003F1047351
:10351000984540F30D84454B9E4270DDBAF1000F93
:1035200070DD3BA3D3E900231046194601F082F871
:1035300083469DE726B1394B25F040429A42DCD1C3
:10354000BAF1000FC0F2B783002D08DB83468FE786
:10355000BAF1000FC0F25E84CB46394688E706F127
:10356000404606F5801656EA040300F08384012CD9
:10357000ECD101F1004183467AE7BEF1000F83D020
:103580006DE72B4B98452CDCA3F15473984581DDF6
:103590004FEA2853A3F2FF33142B40F35384C3F1B3
:1035A00034032EFA03F202FA03F39E457FF472AF5E
:1035B00002F00102C2F102046DE706F1404303F597
:1035C000801353EA0B0300F03A83184B9E4240F3FA
:1035D0006783BAF1000F15DBDDE900349B46214615
:1035E00046E7022457E74A4648463B46394600F03C
:1035F0006DFE02460B4601F047F9834638E7BAF103
:10360000000F8EDB4FF0000B594631E7AFF300801F
:103610009C7500883CE4377E0000F07F0000F03F9E
:103620000000E03F2C5E0A080000E041FFFFEF3F92
:10363000FFFF3F43B6F5801F4FF0000205DAD04B85
:1036400000F0F8FF0E466FF03402DFF844E3331564
:10365000C6F31306A3F2FF3346F07F57764503EB1C
:10366000020A47F4401740F3C983C64B00229E422A
:1036700040F304840023CDE90823CDE90C23C24B99
:103680000022CDE906230AF1010AA7F580170026DA
:103690003946DDE90623CDE90A0100F017FEDDE930
:1036A000062380468946DDE90A0100F011FE024644
:1036B0000B460020B44901F0E7F80A4601461346DC
:1036C000CDE90E1202464946404600F0B3FF8C4653
:1036D00083467B1043F0005303F500239919002023
:1036E000CDE904BC06460F464FF0000B6146584634
:1036F00032463B46CDE910BCCDE9020100F09AFF0D
:1037000002460B464046494600F0E0FDDDE906234F
:10371000804689463046394600F0D8FD02460B46C1
:10372000DDE90A0100F0D2FDDDE9022300F082FFAD
:1037300002460B464046494600F0C8FDDDE90E232F
:1037400000F078FFDDE90478CDE906013A4643460A
:103750003846414600F06EFF77A3D3E900230646C2
:103760000F4600F067FF76A3D3E9002300F0B0FD19
:1037700032463B4600F05EFF73A3D3E9002300F01E
:10378000A7FD32463B4600F055FF71A3D3E9002365
:1037900000F09EFD32463B4600F04CFF6EA3D3E99D
:1037A000002300F095FD32463B4600F043FF6CA33A
:1037B000D3E9002300F08CFD3246804689463B4623
:1037C0003046394600F036FF02460B464046494631
:1037D00000F030FFDDE9022306460F46DDE9040173
:1037E00000F076FDDDE9062300F024FF32463B467B
:1037F00000F06EFDDDE902678046894632463B46B1
:103800003046394600F016FF0022604BCDE90A0130
:1038100000F05EFD42464B4600F05AFDDDE910BC6B
:103820000F46DDE902015A463B46CDE90EBC5E4635
:1038300000F000FF0022CDE90201544B304639462A
:1038400000F044FDDDE90A2300F040FD02460B468E
:103850004046494600F03AFDDDE9042300F0EAFE67
:10386000324680468946DDE906013B4600F0E2FE2D
:1038700002460B464046494600F02AFD80468946EE
:1038800002460B46DDE9020100F022FDDDE90EBC37
:1038900035A3D3E900235846CDE906BC5E460F4662
:1038A00000F0C8FEDDE90223CDE9040130463946C7
:1038B00000F00CFD02460B464046494600F006FD6E
:1038C0002BA3D3E9002300F0B5FE2BA3D3E90023FB
:1038D000804689463046394600F0ACFE02460B462B
:1038E0004046494600F0F4FCDDE90C2300F0F0FC12
:1038F00080465046894600F037FE06460F46DDE911
:10390000040142464B4600F0E3FCDDE9082300F0E9
:10391000DFFC32463B4600F0DBFCDDE906BC32460C
:1039200058463B46DA468B4600F0D0FCDDE90823DA
:1039300030E000BFAFF30080EF4E454A287ECA3F1B
:1039400065DBC9934A86CD3F01411DA96074D13F13
:103950004D268F515555D53FFFAB6FDBB66DDB3F25
:10396000033333333333E33F000000E009C7EE3F56
:10397000FD033ADC09C7EE3FF5015B14E02F3EBEC4
:103980000000404379B60B000000F03F0000084003
:103990008E98030000F09AFCDDE9042300F096FC09
:1039A00002460B464046494600F090FC8046894658
:1039B000DDE90012013C54EA050314BFD64CD74C94
:1039C0000023CDE904340B461446CDE9023400232C
:1039D0000293DDE9024508462B461146224600F0D7
:1039E00075FC52465B4600F025FEDDE900230646E5
:1039F0000F464046494600F01DFE02460B46304643
:103A0000394600F065FC06460F4622462B465046D6
:103A10005946CDE9006700F00DFE0B460246804690
:103A200089463046394600F053FCBD4B0646994264
:103A30000D460C4640F30E8101F13F4303F5E003D0
:103A4000034340F0F081A0A3D3E90023DDE90001A6
:103A500000F03EFC424682468B464B4630462946A5
:103A600000F034FC02460B465046594601F072F80D
:103A7000002840F0D8812F463B154FF48012A3F266
:103A8000FE3342FA03F32344C3F30A52A54EA2F2D3
:103A9000FF321641C3F3130B0020C2F1140523EAD1
:103AA00006014BF4801B02460B46002C4BFA05FB2B
:103AB00040464946B8BFCBF1000B00F007FC024678
:103AC0000B4680468946DDE9000100F001FC4FEA23
:103AD0000B5A00247EA3D3E9002320460D4600F0B4
:103AE000A9FD424606460F464B462046294600F0B1
:103AF000EDFB02460B46DDE9000100F0E7FB76A393
:103B0000D3E9002300F096FD75A3D3E90023804696
:103B100089462046294600F08DFD02460B46404668
:103B2000494600F0D5FB8046894602460B463046A2
:103B3000394600F0CDFB32463B4604460D4600F0C8
:103B4000C5FB02460B464046494600F0BFFB2246F5
:103B5000804689462B462046294600F06BFD62A32D
:103B6000D3E9002306460F4600F064FD60A3D3E9C5
:103B7000002300F0ABFB32463B4600F05BFD5EA34A
:103B8000D3E9002300F0A4FB32463B4600F052FD8F
:103B90005BA3D3E9002300F099FB32463B4600F0DB
:103BA00049FD59A3D3E9002300F092FB32463B467E
:103BB00000F040FD02460B462046294600F086FBF9
:103BC00006460F4602460B462046294600F032FDC7
:103BD0000022CDE900014FF080433046394600F025
:103BE00075FB02460B46DDE9000100F04DFE424642
:103BF00006460F464B462046294600F01BFD42462E
:103C00004B4600F065FB02460B463046394600F055
:103C10005DFB22462B4600F059FB02460B46002076
:103C20003D4900F053FB8A44BAF5801FC0F237814A
:103C30005146DDE9042300F0FDFC834618E4F34619
:103C4000354915E44A4648463B46394600F0F2FC01
:103C500083460DE4344B21F000479F4240F301813D
:103C6000324B0B4403430CD142464B4600F02EFB33
:103C700002460B46DDE9000100F058FF00283FF442
:103C8000FBAE23A3D3E90023DDE9040100F0D2FC5D
:103C90001FA3D3E9002300F0CDFC8346FFF7E8BB68
:103CA000BAF1000FBFF6AEACDDE900349B4604F17B
:103CB0000041FFF7DDBB02460B460020164900F02D
:103CC000E3FD41E4AFF30080FE822B654715973C8E
:103CD00000000000432EE63FEF39FAFE422EE63F99
:103CE000396CA80C615C20BED0A4BE726937663EF8
:103CF000F16BD2C541BDBB3E2CDE25AF6A56113FEC
:103D000093BDBE166CC1663F3E5555555555C53FD2
:103D100059F3F8C21F6EA5010000F03F0000F0BF8C
:103D2000FFFF8F40FFFF0F00FFCB904000346F3F3D
:103D30006F4B9E427FF763AC6E4B9E423FF7EEABFC
:103D400000226C4B00F0C2FA5BA3D3E900230646C5
:103D50000F4600F06FFC5AA3D3E900238046894642
:103D60003046394600F066FC002282468B46624BA4
:103D70003046394600F05EFC02460B4652A1D1E9BE
:103D8000000100F0A3FA32463B4600F053FC024625
:103D90000B460020594900F099FA3246CDE902015C
:103DA0003B463046394600F045FC02460B46DDE90D
:103DB000020100F03FFC46A3D3E9002300F03AFCE7
:103DC00002460B465046594600F080FA02460B4622
:103DD00006460F464046494600F07AFA42464B46B0
:103DE000002082468B4600F071FA02460B463046B0
:103DF000394600F06BFA80468946D9E50022002357
:103E0000CDE90823CDE90C233A4B00220026CDE969
:103E100006233DE44A463B460020364900F034FD87
:103E20008346FFF725BB2CA3D3E90023DDE904017A
:103E300000F000FC28A3D3E9002300F0FBFB83463D
:103E4000FFF716BBBEF1000F7FF44FABC3F11403B5
:103E500048FA03F202FA03F3984524D07446FFF7B8
:103E600021BB264B9F423FF707AEDDE902349A465D
:103E70009B462EE602460B46FFF7B9BB204B4FF49C
:103E80008026CDE9062316A3D3E90023CDE9082334
:103E900015A3D3E90023CDE90C23FFF7F9BB5A465C
:103EA00000F096F9C5E602F00102C2F10204FFF744
:103EB000F9BA00BFAFF30080000000604715F73F7C
:103EC00044DF5DF80BAE543E555555555555D53F1D
:103ED000FE822B654715F73F9C7500883CE4377ED2
:103EE0000000004003B8E23F06D0CF43EBFD4C3E5C
:103EF000FEFFEF3F0000F03F0000D03F0000E03F3A
:103F00000000F83F2DE9F0415F4E0C46B6460E40EA
:103F10007645054600F0988000290B46024674DD80
:103F20005FEA215E7FD0AEF2FF3EC3F313031EF0C3
:103F3000010F43F4801363D100273E4603EBD27197
:103F40000B444FEA6E0E520016204FF40011741805
:103F50009C424FEAD2754FEA420202DC1B1B6618F4
:103F60000F44013805EB43034FEA5101EFD184467A
:103F700020244FF0004109E020D003EBD275013C32
:103F80004FEA51012B444FEA420220D09E4201EBFE
:103F90000C05F1DA002D05EB010C09DBB04695426A
:103FA000A3EB060300D9013B4646521B0844E4E755
:103FB000BCF1000FF2DB06F10108F0E7954217D8DB
:103FC000002D05EB010C49DB98460023ECE7134379
:103FD00010D140087B1003F17F5303F50013FA075B
:103FE00003EB0E57394648BF40F00040BDE8F08172
:103FF0003346C2E7411C35D000F001031844E8E71E
:104000005B0003EBD273520096E721F000460643B3
:10401000ECD079BB8E46D30AAEF1150E5205002BBB
:10402000F9D0DD0221D4002100E001465B00DC0272
:1040300001F10100F9D5C0F1200422FA04F4234370
:10404000C1EB0E0E82406EE702460B4600F0F2FA1C
:104050002A46234600F03CF9BDE8F081BCF1000F90
:10406000A9DAB1E701372046B4E720244FF0FF3149
:104070000020E2E702460B4600F028F902460B4614
:1040800000F002FCB2E700BF0000F07F21F0004129
:10409000704700BF41F0004101F58010C00F70472C
:1040A0000020704700200149704700BF0000F87FE2
:1040B000F0B5C1F30A5EAEF2FF36132E83B00246AE
:1040C0000B460C464FEAD17507462EDC002E49DB25
:1040D0003D49314103EA010010432BD049080B4010
:1040E00053EA02070CD04FF48023132E24EA010177
:1040F00043FA06F444EA01040CBF4FF000470027DE
:10410000324B214603EBC505D5E90045384622462A
:104110002B4600F0DDF8CDE90001DDE90001224683
:104120002B4600F0D3F803B0F0BD332E06DDB6F514
:10413000806F45D01046194603B0F0BDAEF2134E65
:104140004FF0FF3121FA0EF10842F3D0490808423E
:10415000D6D04FF0804320EA010143FA0EFE4EEA2A
:104160000107CDE721F0004101431946E4D0C3F334
:10417000130343EA000CCCF1000343EA0C0C134B8D
:10418000640C4FEA1C3C0CF4002C03EBC5036404E4
:10419000D3E900674CEA040132463B4600F098F848
:1041A000CDE90001DDE9000132463B4600F08EF822
:1041B000024621F0004141EAC57310461946BBE7AB
:1041C00000F086F8B8E700BFFFFF0F00305E0A0876
:1041D000F8B5C1F30A5604460D460B46174606BB12
:1041E00021F00043034325D000222F4B00F022FA98
:1041F0002E4A044697420D460B462ADBC1F30A5667
:10420000363E40F2FE723E44964228DC002E12DD1D
:1042100023F0FF4323F4E00343EA065520462946F2
:10422000F8BD40F2FF729642EBD102460B4600F019
:104230004FF8F8BDF8BD16F1350F1DDA4CF25033CA
:104240009F420CDC14A1D1E9000122462B4600F06C
:1042500031F811A3D3E9002300F0ECF9F8BD2246B0
:104260000FA1D1E900012B4600F024F80CA3D3E9FB
:10427000002300F0DFF9F8BD23F0FF4323F4E0034F
:10428000363643EA0655204629460022084B00F000
:10429000D1F9F8BDAFF3008059F3F8C21F6EA50144
:1042A0009C7500883CE4377E00005043B03CFFFF23
:1042B0000000903C03F0004321F0004242EA030179
:1042C000704700BF81F0004102E000BF83F000436F
:1042D00030B54FEA41044FEA430594EA050F08BFA1
:1042E00090EA020F1FBF54EA000C55EA020C7FEA65
:1042F000645C7FEA655C00F0E2804FEA5454D4EBE2
:104300005555B8BF6D420CDD2C4480EA020281EAAB
:10431000030382EA000083EA010180EA020281EAE3
:104320000303362D88BF30BD11F0004F4FEA013135
:104330004FF4801C4CEA113102D0404261EB410144
:1043400013F0004F4FEA03334CEA133302D05242CA
:1043500063EB430394EA050F00F0A780A4F1010486
:10436000D5F1200E0DDB02FA0EFC22FA05F28018C0
:1043700041F1000103FA0EF2801843FA05F35941A6
:104380000EE0A5F120050EF1200E012A03FA0EFC25
:1043900028BF4CF0020C43FA05F3C01851EBE3714F
:1043A00001F0004507D54FF0000EDCF1000C7EEB6C
:1043B00000006EEB0101B1F5801F1BD3B1F5001FAA
:1043C0000CD349085FEA30004FEA3C0C04F10104C9
:1043D0004FEA445212F5800F80F09A80BCF1004FF2
:1043E00008BF5FEA500C50F1000041EB045141EA74
:1043F000050130BD5FEA4C0C404141EB010111F475
:10440000801FA4F10104E9D191F0000F04BF01461F
:104410000020B1FA81F308BF2033A3F10B03B3F1FD
:1044200020020CDA0C3208DD02F1140CC2F10C028D
:1044300001FA0CF021FA02F10CE002F11402D8BFEB
:10444000C2F1200C01FA02F120FA0CFCDCBF41EAB7
:104450000C019040E41AA2BF01EB0451294330BD86
:104460006FEA04041F3C1CDA0C340EDC04F1140463
:10447000C4F1200220FA04F001FA02F340EA03003A
:1044800021FA04F345EA030130BDC4F10C04C4F180
:10449000200220FA02F001FA04F340EA0300294660
:1044A00030BD21FA04F0294630BD94F0000F83F4AA
:1044B000801306BF81F480110134013D4EE77FEA8D
:1044C000645C18BF7FEA655C29D094EA050F08BFD9
:1044D00090EA020F05D054EA000C04BF19461046BA
:1044E00030BD91EA030F1EBF0021002030BD5FEAFE
:1044F000545C05D14000494128BF41F0004130BD26
:1045000014F580043CBF01F5801130BD01F0004579
:1045100045F0FE4141F470014FF0000030BD7FEAEC
:10452000645C1ABF194610467FEA655C1CBF0B46E7
:10453000024650EA013406BF52EA033591EA030FFE
:1045400041F4002130BD00BF90F0000F04BF0021F6
:10455000704730B54FF4806404F132044FF0000529
:104560004FF0000150E700BF90F0000F04BF0021A2
:10457000704730B54FF4806404F1320410F0004508
:1045800048BF40424FF000013EE700BF42004FEA03
:10459000E2014FEA31014FEA02701FBF12F07F4380
:1045A00093F07F4F81F06051704792F0000F14BF7D
:1045B00093F07F4F704730B54FF4607401F00045C1
:1045C00021F0004120E700BF50EA010208BF704718
:1045D00030B54FF000050AE050EA010208BF70470D
:1045E00030B511F0004502D5404261EB41014FF476
:1045F000806404F132045FEA915C3FF4DCAE4FF07A
:1046000003025FEADC0C18BF03325FEADC0C18BF60
:10461000033202EBDC02C2F1200300FA03FC20FAB1
:1046200002F001FA03FE40EA0E0021FA02F11444FE
:10463000C1E600BF70B54FF0FF0C4CF4E06C1CEA13
:1046400011541DBF1CEA135594EA0C0F95EA0C0F88
:1046500000F0DEF82C4481EA030621EA4C5123EAFB
:104660004C5350EA013518BF52EA033541F480112A
:1046700043F4801338D0A0FB02CE4FF00005E1FBDD
:1046800002E506F00042E0FB03E54FF00006E1FB27
:1046900003569CF0000F18BF4EF0010EA4F1FF046A
:1046A000B6F5007F64F5407404D25FEA4E0E6D41AA
:1046B00046EB060642EAC62141EA55514FEAC520BB
:1046C00040EA5E504FEACE2EB4F1FD0C88BFBCF537
:1046D000E06F1ED8BEF1004F08BF5FEA500E50F1E8
:1046E000000041EB045170BD06F0004646EA0101AE
:1046F00040EA020081EA0301B4EB5C04C2BFD4EBE0
:104700000C0541EA045170BD41F480114FF0000ED8
:10471000013C00F3AB8014F1360FDEBF002001F046
:10472000004170BDC4F10004203C35DA0C341BDCC0
:1047300004F11404C4F1200500FA05F320FA04F092
:1047400001FA05F240EA020001F0004221F00041C6
:1047500010EBD37021FA04F642EB06015EEA430E39
:1047600008BF20EAD37070BDC4F10C04C4F1200569
:1047700000FA04F320FA05F001FA04F240EA02001C
:1047800001F0004110EBD37041F100015EEA430EED
:1047900008BF20EAD37070BDC4F1200500FA05F20D
:1047A0004EEA020E20FA04F301FA05F243EA02038C
:1047B00021FA04F001F0004121FA04F220EA02009B
:1047C00000EBD3705EEA430E08BF20EAD37070BDE1
:1047D00094F0000F0FD101F00046400041EB0101C1
:1047E00011F4801F08BF013CF7D041EA060195F0A3
:1047F000000F18BF704703F00046520043EB03035D
:1048000013F4801F08BF013DF7D043EA0603704749
:1048100094EA0C0F0CEA135518BF95EA0C0F0CD054
:1048200050EA410618BF52EA4306D1D181EA03019A
:1048300001F000414FF0000070BD50EA410606BF94
:104840001046194652EA430619D094EA0C0F02D1D9
:1048500050EA013613D195EA0C0F05D152EA03361E
:104860001CBF104619460AD181EA030101F000413C
:1048700041F0FE4141F470014FF0000070BD41F085
:10488000FE4141F4780170BD70B54FF0FF0C4CF45F
:10489000E06C1CEA11541DBF1CEA135594EA0C0F7E
:1048A00095EA0C0F00F0A7F8A4EB050481EA030ECB
:1048B00052EA03354FEA013100F088804FEA0333B2
:1048C0004FF0805545EA131343EA12634FEA022280
:1048D00045EA111545EA10654FEA00260EF0004141
:1048E0009D4208BF964244F1FD0404F5407402D293
:1048F0005B084FEA3202B61A65EB03055B084FEA24
:1049000032024FF480104FF4002CB6EB020E75EB20
:10491000030E22BFB61A754640EA0C005B084FEA48
:104920003202B6EB020E75EB030E22BFB61A7546C5
:1049300040EA5C005B084FEA3202B6EB020E75EB10
:10494000030E22BFB61A754640EA9C005B084FEA88
:104950003202B6EB020E75EB030E22BFB61A754695
:1049600040EADC0055EA060E18D04FEA051545EA84
:1049700016754FEA06164FEAC30343EA52734FEA2D
:10498000C2025FEA1C1CC0D111F4801F0BD141EAA6
:1049900000014FF000004FF0004CB6E711F4801F0B
:1049A00004BF01430020B4F1FD0C88BFBCF5E06FEB
:1049B0003FF6AFAEB5EB030C04BFB6EB020C5FEAFB
:1049C000500C50F1000041EB045170BD0EF0004E50
:1049D0004EEA113114EB5C04C2BFD4EB0C0541EA82
:1049E000045170BD41F480114FF0000E013C90E67F
:1049F00045EA060E8DE60CEA135594EA0C0F08BF43
:104A000095EA0C0F3FF43BAF94EA0C0F0AD150EA41
:104A100001347FF434AF95EA0C0F7FF425AF1046D4
:104A200019462CE795EA0C0F06D152EA03353FF4FC
:104A3000FDAE1046194622E750EA410618BF52EA79
:104A400043067FF4C5AE50EA41047FF40DAF52EA4D
:104A500043057FF4EBAE12E74FF0FF3C06E000BFEA
:104A60004FF0010C02E000BF4FF0010C4DF804CDF7
:104A70004FEA410C7FEA6C5C4FEA430C18BF7FEAB7
:104A80006C5C1BD001B050EA410C0CBF52EA430CE5
:104A900091EA030F02BF90EA020F0020704710F165
:104AA000000F91EA030F58BF994208BF90422CBFF4
:104AB000D8176FEAE37040F0010070474FEA410CED
:104AC0007FEA6C5C02D150EA013C07D14FEA430C0B
:104AD0007FEA6C5CD6D152EA033CD3D05DF8040B7C
:104AE000704700BF8446104662468C4619466346AE
:104AF00000E000BF01B5FFF7B7FF002848BF10F185
:104B0000000F01BD4DF808EDFFF7F4FF0CBF0120C9
:104B100000205DF808FB00BF4DF808EDFFF7EAFF45
:104B200034BF012000205DF808FB00BF4DF808ED00
:104B3000FFF7E0FF94BF012000205DF808FB00BFF5
:104B40004DF808EDFFF7CEFF94BF012000205DF87F
:104B500008FB00BF4DF808EDFFF7C4FF34BF01208C
:104B600000205DF808FB00BF4FEA410C7FEA6C5C57
:104B700002D150EA013C0AD14FEA430C7FEA6C5C57
:104B800002D152EA033C02D14FF0000070474FF0CF
:104B9000010070474FEA4102B2F1E04324BFB3F590
:104BA000001CDCF1FE5C0DD901F0004C4FEAC002A4
:104BB0004CEA5070B2F1004F40EB830008BF20F088
:104BC0000100704711F0804F21D113F13872BCBF42
:104BD00001F00040704741F480114FEA5252C2F197
:104BE0001802C2F1200C10FA0CF320FA02F018BFE0
:104BF00040F001004FEAC1234FEAD32303FA0CFC33
:104C000040EA0C0023FA02F34FEA4303CCE77FEAC1
:104C1000625307D150EA01331EBF4FF0FE4040F40B
:104C20004000704701F0004040F0FE4040F40000BA
:104C3000704700BF80F0004002E000BF81F00041FB
:104C400042001FBF5FEA410392EA030F7FEA226C32
:104C50007FEA236C6AD04FEA1262D2EB1363C1BFC2
:104C6000D218414048404140B8BF5B42192B88BF31
:104C7000704710F0004F40F4000020F07F4018BF54
:104C8000404211F0004F41F4000121F07F4118BF74
:104C9000494292EA030F3FD0A2F1010241FA03FC1C
:104CA00010EB0C00C3F1200301FA03F100F0004304
:104CB00002D5494260EB4000B0F5000F13D3B0F1CC
:104CC000807F06D340084FEA310102F10102FE2A3B
:104CD00051D2B1F1004F40EBC25008BF20F00100AB
:104CE00040EA03007047490040EB000010F4000F59
:104CF000A2F10102EDD1B0FA80FCACF1080CB2EBEC
:104D00000C0200FA0CF0AABF00EBC250524218434A
:104D1000BCBFD0401843704792F0000F81F40001EF
:104D200006BF80F400000132013BB5E74FEA4103C2
:104D30007FEA226C18BF7FEA236C21D092EA030F2E
:104D400004D092F0000F08BF0846704790EA010FA8
:104D50001CBF0020704712F07F4F04D1400028BFD5
:104D600040F00040704712F100723CBF00F50000B7
:104D7000704700F0004343F0FE4040F400007047ED
:104D80007FEA226216BF08467FEA23630146420299
:104D900006BF5FEA412390EA010F40F480007047AC
:104DA0004FF0000304E000BF10F0004348BF404252
:104DB0005FEA000C08BF704743F0964301464FF08E
:104DC00000001CE050EA010208BF70474FF00003EA
:104DD0000AE000BF50EA010208BF704711F000432B
:104DE00002D5404261EB41015FEA010C02BF8446FB
:104DF0000146002043F0B64308BFA3F18053A3F55A
:104E00000003BCFA8CF2083AA3EBC25310DB01FAA0
:104E100002FC634400FA02FCC2F12002BCF1004F24
:104E200020FA02F243EB020008BF20F001007047B5
:104E300002F1200201FA02FCC2F1200250EA4C0009
:104E400021FA02F243EB020008BF20EADC7070474F
:104E50004FF0FF0C1CEAD0521EBF1CEAD15392EA5D
:104E60000C0F93EA0C0F6FD01A4480EA010C400239
:104E700018BF5FEA41211ED04FF0006343EA501093
:104E800043EA5111A0FB01310CF00040B1F5000FD5
:104E90003EBF490041EAD3715B0040EA010062F184
:104EA0007F02FD2A1DD8B3F1004F40EBC25008BF6E
:104EB00020F00100704790F0000F0CF0004C08BF8C
:104EC00049024CEA502040EA51207F3AC2BFD2F159
:104ED000FF0340EAC250704740F400004FF0000367
:104EE000013A5DDC12F1190FDCBF00F000407047A1
:104EF000C2F10002410021FA02F1C2F1200200FADF
:104F000002FC5FEA310040F1000053EA4C0308BFA5
:104F100020EADC70704792F0000F00F0004C02BFF6
:104F2000400010F4000F013AF9D040EA0C0093F071
:104F3000000F01F0004C02BF490011F4000F013BCB
:104F4000F9D041EA0C018FE70CEAD15392EA0C0F39
:104F500018BF93EA0C0F0AD030F0004C18BF31F0A4
:104F6000004CD8D180EA010000F00040704790F07A
:104F7000000F17BF90F0004F084691F0000F91F01E
:104F8000004F14D092EA0C0F01D142020FD193EAE4
:104F90000C0F03D14B0218BF084608D180EA01006C
:104FA00000F0004040F0FE4040F40000704740F048
:104FB000FE4040F4400070474FF0FF0C1CEAD05216
:104FC0001EBF1CEAD15392EA0C0F93EA0C0F69D072
:104FD000A2EB030280EA010C49024FEA402037D0DD
:104FE0004FF0805343EA111143EA10130CF00040D4
:104FF0008B4238BF5B0042F17D024FF4000C8B42C4
:1050000024BF5B1A40EA0C00B3EB510F24BFA3EBA3
:10501000510340EA5C00B3EB910F24BFA3EB910373
:1050200040EA9C00B3EBD10F24BFA3EBD10340EACD
:10503000DC001B0118BF5FEA1C1CE0D1FD2A3FF613
:1050400050AF8B4240EBC25008BF20F001007047C8
:105050000CF0004C4CEA50207F32C2BFD2F1FF036B
:1050600040EAC250704740F400004FF00003013A9C
:1050700037E792F0000F00F0004C02BF400010F440
:10508000000F013AF9D040EA0C0093F0000F01F054
:10509000004C02BF490011F4000F013BF9D041EA76
:1050A0000C0195E70CEAD15392EA0C0F08D14202A9
:1050B0007FF47DAF93EA0C0F7FF470AF084676E77C
:1050C00093EA0C0F04D14B023FF44CAF08466EE755
:1050D00030F0004C18BF31F0004CCAD130F0004223
:1050E0007FF45CAF31F000437FF43CAF5FE700BF7B
:1050F0004FF0FF3C06E000BF4FF0010C02E000BFA4
:105100004FF0010C4DF804CD4FEA40024FEA410345
:105110007FEA226C18BF7FEA236C11D001B052EAFB
:10512000530C18BF90EA010F58BFB2EB030088BFC1
:10513000C81738BF6FEAE17018BF40F00100704730
:105140007FEA226C02D15FEA402C05D17FEA236C12
:10515000E4D15FEA412CE1D05DF8040B704700BF59
:10516000844608466146FFE70FB5FFF7C9FF0028F0
:1051700048BF10F1000F0FBD4DF808EDFFF7F4FF29
:105180000CBF012000205DF808FB00BF4DF808EDC2
:10519000FFF7EAFF34BF012000205DF808FB00BFE5
:1051A0004DF808EDFFF7E0FF94BF012000205DF807
:1051B00008FB00BF4DF808EDFFF7D2FF94BF0120B8
:1051C00000205DF808FB00BF4DF808EDFFF7C8FFB1
:1051D00034BF012000205DF808FB00BF4FEA400209
:1051E000B2F1FE4F0FD34FF09E03B3EB12620DD915
:1051F0004FEA002343F0004310F0004F23FA02F07F
:1052000018BF404270474FF00000704712F1610F25
:1052100001D1420205D110F0004008BF6FF00040FC
:1052200070474FF0000070477BB972B90029BEBFCC
:1052300000204FF0004106E008BF00281CBF6FF0BF
:1052400000414FF0FF3000F0B5B9ADF1080C6DE949
:1052500004CE002909DB002B1ADB00F035F8DDF85D
:1052600004E0DDE9022304B07047404261EB4101F4
:10527000002B1BDB00F028F8DDF804E0DDE9022359
:1052800004B0404261EB4101524263EB430370477B
:10529000524263EB430300F017F8DDF804E0DDE968
:1052A000022304B0404261EB41017047524263EB7C
:1052B000430300F009F8DDF804E0DDE9022304B05F
:1052C000524263EB430370472DE9F04F8C460C4686
:1052D0000546099E002B4FD18A4217466BD9B2FA78
:1052E00082FEBEF1000F0BD0CEF1200520FA05F5AD
:1052F00001FA0EF345EA030C02FA0EF700FA0EF576
:10530000390CBCFBF1F0BAB201FB10C300FB02F890
:105310004FEA154C4CEA0344A04509D9E41900F1C1
:10532000FF3380F02881A04540F2258102383C44BB
:10533000C8EB0404B4FBF1F301FB134C03FB02F2D2
:10534000ACB244EA0C418A4209D9C91903F1FF34CD
:1053500080F00F818A4240F20C81023B39448A1A64
:1053600043EA00400021002E63D022FA0EF200230F
:1053700086E80C00BDE8F08F8B4207D9002E56D08E
:10538000002186E811000846BDE8F08FB3FA83F1EA
:10539000002940F09380A34202D3824200F2FE80B3
:1053A000851A64EB03039C460120002E41D086E859
:1053B0002010BDE8F08F12B90127B7FBF2F7B7FA5A
:1053C00087FEBEF1000F36D1E41B4FEA17481FFAE3
:1053D00087F90121B4FBF8F308FB134409FB03F23E
:1053E0004FEA154C4CEA0444A24207D9E41903F1F0
:1053F000FF3002D2A24200F2D3800346A41AB4FBCB
:10540000F8F008FB104809FB00F9ACB244EA084286
:10541000914507D9D21900F1FF3402D2914500F22B
:10542000BA802046C9EB020240EA03409BE73146BE
:105430003046BDE8F08F07FA0EF7CEF1200C24FAC3
:105440000CF34FEA1748B3FBF8FA1FFA87F908FB89
:105450001A3520FA0CFC04FA0EF40AFB09FB4CEA9C
:10546000040C4FEA1C4242EA05439B4500FA0EF544
:105470000AD9DB190AF1FF3280F08B809B4540F29C
:105480008880AAF1020A3B44CBEB0303B3FBF8F09C
:1054900008FB103300FB09F41FFA8CFC4CEA0343B1
:1054A0009C4207D9DB1900F1FF326ED29C426CD9C5
:1054B00002383B441C1B40EA0A418BE7C1F1200E35
:1054C0008B4022FA0EFC4CEA030C24FA0EF74FEA4A
:1054D0001C49B7FBF9FA1FFA8CF309FB1A7720FA7B
:1054E0000EF88C400AFB03F548EA04044FEA14481E
:1054F00048EA0747BD4202FA01F200FA01FB09D966
:1055000017EB0C070AF1FF3041D2BD423FD9AAF197
:10551000020A67447F1BB7FBF9F509FB157705FB0A
:1055200003F3A4B244EA0747BB4208D917EB0C07C0
:1055300005F1FF3027D2BB4225D9023D674445EA39
:105540000A40A0FB0289FF1A4F4545464C4614D33A
:1055500029D066B3BBEB050367EB040707FA0EFE21
:10556000CB40CF404EEA030386E888000021BDE827
:10557000F08F2346F3E61846DAE6B8EB020569EB4E
:105580000C040138E5E70546D9E7104692E7824664
:10559000C0E7924678E702383A4443E7084604E712
:1055A000023B3C442AE7C345E7D33C46D1E73146BA
:1055B000BDE8F08F704700BF10B5054C13462CB105
:1055C0000A4601460220AFF3008010BD204610BD00
:1055D0000000000010B5431E0A44914204D011F8A7
:1055E000014B03F8014FF8E710BD03460244934214
:1055F00002D003F8011BFAE77047000038B5124BE0
:1056000005461C68A36BD3B91820FCF713FA43F2C4
:105610000E33A06303804AF6CD33438041F2342336
:1056200083804EF26D63C3804DF6EC6303810523E6
:1056300043810B23838101220023C0E90423A36B50
:1056400000221D615A6138BD68000020024B0146EE
:10565000186800F003B800BF6800002070B5064667
:1056600008460C4600F00DF8451C29463046FCF76C
:1056700009FA064618B12A462146FFF7ABFF304625
:1056800070BD034613F8012B002AFBD1181A01380C
:105690007047000021000A0861000A088D000A080E
:1056A00091000A0800000000000000000000000057
:1056B000B9000A08CD000A08416972205175616C71
:1056C0006974792053656E736F72207265616479B5
:1056D0002E00416972205175616C6974792053659F
:1056E0006E736F72204552524F5221005061727496
:1056F00069636C6500416972205175616C697479E8
:10570000004D6F6E69746F7200424D453238302023
:1057100053656E736F722072656164792E00424D1D
:10572000453238302053656E736F72204552524FA8
:105730005221004E6F6E650044616E6765720048CD
:1057400069676820506F6C6C7574696F6E004C6F80
:105750007720506F6C6C7574696F6E00467265735C
:105760006820416972004C504F3A20256400526114
:1057700074696F3A202566252500436F6E63656E58
:1057800074726174696F6E3A202566207063732F9E
:105790004C0054656D703A2000430048756D696493
:1057A0006974793A200050726573733A200020685A
:1057B000506100447573743A200074656D70006820
:1057C000756D69646974790070726573737572655B
:1057D000006169722D7175616C697479006475730B
:1057E000742D6C706F00256C7500647573742D7268
:1057F0006174696F00647573742D636F6E63656E99
:1058000074726174696F6E00656E762D76616C736B
:1058100000416972205175616C6974793A20257371
:105820000054656D703A202564005072657373757D
:1058300072653A2025640048756D69646974793A27
:1058400020256400000000000000000069070A082D
:1058500064656661756C7420004D5342004C534280
:10586000003C53504953657474696E6773206465D6
:105870006661756C743E003C53504953657474699D
:105880006E6773202573256C75202573204D4F445A
:105890004525643E000000000000000000000000FC
:1058A0007D100A0899100A0800000000000000009E
:1058B000AD100A08C1100A0825303478005C75253F
:1058C00030345800747275650066616C736500252C
:1058D0002E2A6600256600252E2A6C6600256C6639
:1058E00000000000020000000300000001000000B2
:1058F00000000000000000000000000000005F0049
:1059000000000000000007000700000000147F14E2
:105910007F14000000242A7F2A12000000231308AD
:105920006462000000364955225000000000050363
:1059300000000000001C2241000000000041221C69
:105940000000000000082A1C2A0800000008083E89
:105950000808000000A0600000000000000808081F
:10596000080800000060600000000000002010082F
:1059700004020000003E5149453E00000000427F05
:1059800040000000006251494946000000224149A0
:1059900049360000001814127F100000002745450A
:1059A00045390000003C4A494930000000017109B6
:1059B0000503000000364949493600000006494900
:1059C000291E000000003636000000000000AC6C0C
:1059D000000000000008142241000000001414140C
:1059E00014140000004122140800000000020151BC
:1059F0000906000000324979413E0000007E090995
:105A0000097E0000007F494949360000003E4141BF
:105A100041220000007F4141221C0000007F4949D3
:105A200049410000007F090909010000003E414191
:105A300051720000007F0808087F000000417F418C
:105A400000000000002040413F010000007F0814DA
:105A500022410000007F404040400000007F020CD7
:105A6000027F0000007F0408107F0000003E4141DB
:105A7000413E0000007F090909060000003E415137
:105A8000215E0000007F09192946000000264949CF
:105A9000493200000001017F01010000003F404049
:105AA000403F0000001F2040201F0000003F403802
:105AB000403F0000006314081463000000030478F2
:105AC000040300000061514945430000007F41414B
:105AD0000000000000020408102000000041417F87
