:02000002D0002C
:1040000000400D00E09E0D00000006000C000501C0
:084010000401E80500000000B6
:0440180080950D0082
:1040200009480A49884208B505D0094A824202D0A7
:10403000121A05F045FA0748074A0021121A05F03E
:104040004AFA014808BD00BFE0E203204C9E0D0083
:104050004CE303204CE30320F0E7032070B502F0AB
:1040600081F8074C074BE41AA40800251E46A54218
:1040700004D056F8253098470135F8E770BD00BFE9
:10408000409E0D00F89D0D0000F02CB808B500F022
:10409000F5FABDE8084002F027B801F011BD01F0C3
:1040A00017BD01F015BD0078B0FA80F040097047E7
:1040B000012303707047000010B5034B03600446F2
:1040C00001F014F8204610BD9C950D0010B5044673
:1040D000FFF7F2FF20464FF4987102F0C3FF20462D
:1040E00010BD000008B502F001FC4FF4165102F0BB
:1040F000F1FB322001F0AAFF0420002102F00EFFA4
:10410000244801F048F918B102F0F0FB224902E01E
:1041100002F0ECFB214901F022FF02F06FFF02F0F8
:10412000DFFC1F4801F0B0F91D4801F019FA1C48E6
:1041300001F07DFA1A4801F0BCF90022022118486A
:1041400001F0C4F91749164801F02CFA00220321A6
:10415000134801F0BBF91449114801F023FA002279
:1041600004210F4801F0B2F90D48104901F01AFA84
:104170000F4800F08DFF18B102F0B8FB0D4902E0C6
:1041800002F0B4FB0C4901F0EAFE01F0EDFA0B4B32
:10419000186008BDACE30320A4950D00BE950D008A
:1041A000D8E30320D8950D00E1950D00ED950D00A5
:1041B00068E30320F5950D000A960D00C8E303207F
:1041C00038B50446114801F013F911490546204657
:1041D00001F00FFE0F4B1B689D4201D10E4910E00C
:1041E0000E4B1B689D4201D10D490AE00D4B1B6827
:1041F0009D4201D10C4904E00C4B1B689D4203D148
:104200000B49204601F022FE204638BDACE30320D6
:104210001F960D00E0970D0024960D00DC970D0011
:104220002B960D00D4970D003A960D00D8970D00EF
:1042300048960D00F8B50F4C074620460E46154629
:1042400000F0ACFBBDEEC00A204687ED000A00F08E
:10425000D3FBDFED097A80EE270A2046BDEEC00AC7
:1042600086ED000A00F010FDBDEEC00A012085EDCC
:10427000000AF8BD68E303200000C8420000000007
:104280002DE9F0472DED028B4D4C4E4B226884B04A
:1042900012B91B68236000E01A6020684A4DDFF8FD
:1042A0003CA104F0B7FA3CA3D3E9002304F052FC8C
:1042B00004F0D6FD286004F0CFFA9FED391B41ECE5
:1042C000100B03F02DF895ED008A18EE100A8DED15
:1042D000020B04F0C1FA9DED020B8046894632A321
:1042E000D3E9002351EC100B04F00AFB42460646CA
:1042F0000F464B464046494604F002FB2CA3D3E947
:10430000002304F0FDFA02460B463046394604F01D
:1043100043F9DFED2E7A68EE277A064617EE900A0B
:104320000F4604F099FA02460B463046394604F02F
:1043300035F921A3D3E9002304F030F904F090FD0E
:10434000CAF8000002F0D2FA2368214A012101F0E4
:1043500030FE02F0CBFA0446286804F07DFA1D4ACC
:10436000CDE900010121204601F023FE02F0BEFA52
:104370000446DAF8000004F06FFA174ACDE90001AC
:104380000121204601F015FE04B0BDEC028BBDE812
:10439000F08700BFAFF3008000000000804F1241A3
:1043A00000000000000008409A9999999999F13FFE
:1043B0006666666666660E40D7A3703D0AD7E33F21
:1043C00054E303205CE3032064E303200000024481
:1043D00052960D005A960D0066960D0050E303208C
:1043E000F8B51F460646324814460D4601F0B8F8A7
:1043F000032200212E4801F069F839682C4801F0A9
:10440000D1F8002202212A4801F060F82949284801
:1044100001F0C8F83146264801F0D1F82649244871
:1044200001F0C0F800220321214801F04FF8234990
:104430001F4801F0B7F829461D4801F0C0F820498F
:104440001B4801F0AFF800220421194801F03EF8A2
:104450001C49174801F0A6F8214615481A4C01F0EE
:10446000AEF81A49124801F09DF894ED007AF7EE83
:10447000007AB4EEE77AF1EE10FA17DD002205219A
:104480000B4801F023F81249094801F08BF8D4EDEC
:10449000007A0748FDEEE77A17EE901A01F08FF8E0
:1044A0000C490348BDE8F84001F07CB8F8BD00BFF6
:1044B000D8E303207E960D0085960D0087960D00AB
:1044C00064960D0092960D0050E303209A960D001D
:1044D0009F960D0077960D0070B504460E46154662
:1044E00000F00CFF01223146204600F07BFE204602
:1044F0003A2100F02BFE2A4620460249BDE87040D2
:1045000000F063BE57960D0038B504462DED028BC2
:104510000D46B0EE408A00F0F1FE29462046012209
:1045200000F060FE20463A2100F010FEB0EE480A8E
:10453000BDEC028B2046BDE8384000F003BF000010
:10454000F0B5D5B007460E46154614A94FF4807253
:1045500008A81C4600F0E8FD3A4B08937D227B2119
:1045600008A800F0D6FE3A46374908A8FFF7B4FF7E
:104570003246364908A8FFF7AFFF2A46344908A853
:10458000FFF7AAFF214604A801F055FC08A800F097
:10459000B5FE01222F4908A800F024FE3A2108A800
:1045A00000F0D4FD0122049908A800F01BFE04A825
:1045B00001F0D8FB284B1C68F4B108A800F09EFE5F
:1045C0000122264908A800F00DFE3A2108A800F0B3
:1045D000BDFD2246224908A800F0F7FD214B2249E3
:1045E00093ED000A08A8FFF78FFF204B204993EDB9
:1045F000000A08A8FFF788FF08A800F0B5FD099B8E
:1046000003931C4B039A1B788DF800301A493C2306
:1046100004A801F015FF059C7CB16368013B636051
:104620005BB9236820469B689847A368013BA36059
:104630001BB923682046DB68984708A8FFF73CFDB4
:1046400055B0F0BD9C950D00A6960D00AB960D00E3
:10465000B4960D00BD960D0054E30320C9960D00DD
:10466000D2960D0064E30320D6960D0050E303209C
:10467000E1960D0060E30320F4960D002DE9F04172
:1046800000218CB0042002F09DFC314C314B324DA6
:10469000186023681844206001F066F82B68C01A7F
:1046A00047F2305398424FD904A8FFF789FD02F032
:1046B0001DF9049B294A012101F07BFC03AA02A9F0
:1046C00001A8FFF7B7FD02F011F9019B244A01216F
:1046D00001F06FFC02F00AF9029B224A012101F06D
:1046E00068FC02F003F9039B1F4A012101F061FC01
:1046F000FFF7C6FD019E039FDDF8088004A908A806
:1047000001F099FB424608AB39463046FFF768FE98
:1047100008A801F027FB019E039FDDF8088004A98B
:1047200008A801F088FB08AB424639463046FFF73F
:1047300007FF08A801F016FB0023236001F014F81E
:10474000286004A801F00EFB0CB0BDE8F08100BFAA
:1047500054E3032058E30320C8E30320FD960D0033
:104760000E970D0017970D0024970D0010B5094BFB
:1047700001241C7000F070FF2046002101F00CF9AC
:104780001121054800F002FE0448BDE8104000F089
:1047900033B800BF60E30320ACE3032068E30320E9
:1047A0007FB5024608461379956833B13DB90C4987
:1047B00004B0BDE8704001F0BFBB0A4B00E00A4BFB
:1047C000167B0A4C0A49527B0292012E08BF2146F1
:1047D00001910095074A002101F0EBFB04B070BD88
:1047E00051970D00C49B0D0040970D0049970D0097
:1047F0004D970D0067970D00FF220274427482747A
:10480000C274704738B5094D296811F001040AD106
:104810002846FFF748FC30B12146054801F0CCF9A5
:104820002846FFF745FC024838BD00BFCCE3032013
:10483000D0E303202DE9F04190F913300133054610
:104840000F4606D1FFF7DEFF3946BDE8F04101F023
:1048500057BA072600244FF0010895F913000021EC
:1048600080B202F06CFB95F9110008FA06F13940AC
:1048700080B202F064FB95F91300012180B202F0CE
:104880005EFB95F91200640080B2E4B202F070FBA6
:1048900008B144F0010416F1FF36DED22046BDE82F
:1048A000F08108B5FFF7AEFFBDE8084001F09FB901
:1048B00010B50446FFF7A6FF2146BDE8104001F001
:1048C000AFB9000030B590F91030013385B004461F
:1048D0000D4621D10179006802F039F9206803689A
:1048E00029469B689847206802F03CF90322217909
:1048F000206802F029F9206803685B69984705027F
:10490000206803685B6998472843050220680368AC
:104910005B699847054339E090F9133001330ED1B4
:104920001C4B1D4A009302920023012268468DF819
:1049300004308DF80C208DF80D30FFF7B9FF94F995
:104940001000002180B202F0FAFA45F08001204602
:10495000FFF770FF00212046FFF76CFF00210502E2
:104960002046FFF767FF2843050200212046FFF796
:1049700061FF054394F91000012180B202F0DFFAD3
:1049800094F91330013301D1FFF78BFF284605B0AE
:1049900030BD00BF3C970D0020A1070010B5FA21E3
:1049A0000446FFF78FFFB0F5000F1ED0A28A9FEDDF
:1049B000107AC2EB20235200C2EBE010B4F91620AB
:1049C0005B435043B4F918201B1353439B1303EB71
:1049D000E020E06000EB80008030001207EE900ADB
:1049E000F8EEE77A87EE870A10BD9FED020A10BD48
:1049F0000000C8420000C07F2DE9F84F0646FFF7CF
:104A0000CDFFF7213046FFF75DFFB0F5000F0746F9
:104A100000F0C180F468B6F91C20E517B4F5FA344B
:104A200045F1FF35A4FB048904FB05F309EB4309B9
:104A300002FB05F1D31704FB0311A2FB04230B4473
:104A4000190341EA12511003B6F91E20D31702FBD5
:104A500009FE08FB03EEA2FB082373444FEA122A67
:104A60004AEA036A1AEB000A728B4FEA232B4BEBDC
:104A7000010B1AF100004BF50041A0FB02AB02FB59
:104A800001BB4FEA6B024FEAEB7352EA030100F0FD
:104A90008680B6F924A04FEAEA7B0AFB09F108FBFD
:104AA0000B11AAFB0889B6F922A089444FEAEA7BD8
:104AB0000AFB05F104FB0B11AAFB04450D444FEA68
:104AC000454B4FEA444A38111AEB080AC0F58010EA
:104AD0004BEAD43B4BEB090B4FEAE0794FEAC9753F
:104AE00045EA5005C407B6F920004FF0000818EB5E
:104AF0000A084FEAC00949EB0B0940F63547B4EB09
:104B0000080465EB0905A4FB070107FB051104F088
:104B100005FBB6F92A204C13450B45EAC14502FBBB
:104B200004F7D31705FB0377A2FB05233B4454434B
:104B300005FB0344A2FB05232344540E44EAC3149B
:104B4000B6F9282024184FEA63654D41D317514325
:104B500000FB0313A2FB00011944C20C42EA4132DC
:104B60001219B6F926404FEAE1436B41100AE517E6
:104B7000220140EA036019122B0143EA14738018E2
:104B8000594104F08DFA9FED080A07EE900A27EECE
:104B9000800ABDE8F88F9FED050ABDE8F88F9FED0C
:104BA000040ABDE8F88F00BF0000803B0000C07F12
:104BB0000000000030B590F91030013385B0044694
:104BC0000D461DD10179006801F0C1FF206803681E
:104BD00029469B689847206801F0C4FF022221798A
:104BE000206801F0B1FF206803685B6998470546BB
:104BF000206803685B69984740EA052085B235E084
:104C000090F9133001330ED11A4B1B4A00930292D4
:104C10000023012268468DF804308DF80C208DF8B1
:104C20000D30FFF745FE94F91000002180B202F02C
:104C300086F945F080012046FFF7FCFD0021204663
:104C4000FFF7F8FD002105462046FFF7F3FD40EA97
:104C5000052085B294F91000012180B202F06FF9AD
:104C600094F91330013301D1FFF71BFE284605B03C
:104C700030BD00BF3C970D0020A1070008B5FFF72D
:104C800099FF40BA80B208BD10B50446FFF786FE12
:104C9000FD212046FFF78EFFB0F5004F38D0B4F964
:104CA0003230E268B4F934101B05A2F59632C3EB3A
:104CB000803302FB113303F58043D91394F830306D
:104CC00094F936005343DB124243921203F500433A
:104CD00053439B12B4F92E2003F50013534303F5FD
:104CE00000539B134B43DA1394F82C105243D21108
:104CF0004A43A3EB221323EAE373B3F1C85FA8BFCF
:104D00004FF0C8531B1300EE103ABAEECB0A10BD99
:104D10009FED010A10BD00BF0000C07F30B590F9C3
:104D20001030013385B004460D4616D10179006874
:104D300001F00DFF2068036829469B6898472068AA
:104D400001F010FF01222179206801F0FDFE2068AA
:104D500003685B699847C5B22EE090F913300133C0
:104D60000ED1174B174A0093029200230122684686
:104D70008DF804308DF80C208DF80D30FFF798FD7C
:104D800094F91000002180B202F0D9F845F08001BA
:104D90002046FFF74FFD00212046FFF74BFD05465B
:104DA00094F91000012180B202F0C9F894F913308F
:104DB000013301D1FFF775FD284605B030BD00BFB6
:104DC0003C970D0020A1070008B5F321FFF7A6FFCF
:104DD00000F0010008BD38B588210446FFF74EFFFA
:104DE0008A21A0822046FFF749FF8C21E0822046DD
:104DF000FFF744FF8E2120832046FFF73FFF9021DD
:104E000060832046FFF73AFF9221A0832046FFF7F8
:104E100035FF9421E0832046FFF730FF9621208460
:104E20002046FFF72BFF982160842046FFF726FFDE
:104E30009A21A0842046FFF721FF9C21E084204690
:104E4000FFF71CFF9E2120852046FFF717FFA121B9
:104E500060852046FFF762FFE12184F82C002046A0
:104E6000FFF70CFFE321E0852046FFF757FFE42121
:104E700084F830002046FFF751FFE5210546204623
:104E8000FFF74CFF00F00F0040EA05106086E621B6
:104E90002046FFF743FFE52105462046FFF73EFF8A
:104EA000001140EA0510A086E7212046FFF736FFF3
:104EB00084F8360038BD00007FB590F9103001331A
:104EC00004460E46154611D10179006801F03FFEF7
:104ED0002068036831469B68984720680368294624
:104EE0009B689847206801F03DFE2DE090F9133053
:104EF00001330ED1154B164A009302920023012272
:104F000068468DF804308DF80C208DF80D30FFF7D1
:104F1000CFFC94F91000002180B202F010F806F0E6
:104F20007F012046FFF786FC29462046FFF782FCDA
:104F300094F91000012180B202F001F894F91330C5
:104F4000013301D1FFF7ADFC04B070BD3C970D00FB
:104F500020A10700F8B590F83C509DF818609DF826
:104F60001CE09DF8207061F3871562F3020563F37E
:104F7000C50590F8403080F83C5066F3471380F840
:104F8000403090F838306EF3C503044667F30203EF
:104F900080F8383006F00702F221FFF78DFF94F811
:104FA0003820C2F3C20302F007019B0043EA411319
:104FB00043EAD2122046F521FFF77EFF94F83C2009
:104FC000C2F3C20302F007019B0043EA411343EA24
:104FD00092122046F421BDE8F840FFF76DBF30B5CE
:104FE000044690F91000421C85B003D1206801F0FE
:104FF00077FD22E0012180B201F0A1FF94F91000B9
:10500000012180B201F08AFF94F91300431C04D1FE
:10501000FFF7F8FB00F0DAFD0FE0012180B201F0AC
:105020007DFF94F91100012180B201F077FF94F91E
:105030001200002180B201F071FFD0212046FFF75D
:105040006DFE6028A06020D12046B622E021FFF747
:1050500033FF4FF4967000F0F9FF2046FFF7B4FEDF
:10506000054608B16420F6E72046FFF7B4FE0523A5
:1050700000931A460321204602950195FFF76AFF27
:10508000642000F0E3FF012000E0002005B030BD07
:10509000772310B50371044601F0B0FF206020466D
:1050A000FFF79DFF30B9762323712046BDE81040FD
:1050B000FFF795BF10BD00F0CFBA000010B5054B4B
:1050C0000360037C04461BB9406808B100F000FD92
:1050D000204610BD90970D0010B50446FFF7EEFF77
:1050E0002046142101F0BEFF204610BD10B5034B31
:1050F00003600446FFF7E2FF204610BDA0970D00B5
:1051000010B50446FFF7F2FF2046302101F0AAFF58
:10511000204610BD00230122C3604361027643761E
:1051200080F82A3070470000002310B5C3600123C7
:105130000374054B03604FF0FF3341608260C3622C
:10514000FFF7E8FF10BD00BFA0970D00C36882689D
:1051500010B593423FBF42685C1CC460D15424BF69
:10516000012380F82A3010BD10B54369044643B1CD
:1051700000EB4303597E09B1FFF7E8FF6369013B88
:105180006361A368E068616898424FF000022ABF3B
:105190005B180A5403F8012C10BD70B50446C068B2
:1051A000A56866682D1A134630440A46294600F061
:1051B0009FFC85422DBFE368A368E360C01836BF3B
:1051C0000123E06084F82A3070BD0EB403B503AA51
:1051D00052F8041B0192FFF7E0FF02B05DF804EB08
:1051E00003B070472DE9F04104460E46174612B150
:1051F0002221FFF7ABFF0025715D06EB05080029B2
:1052000071D0E268A3689A426DD20B0633D501F0E3
:10521000F003E02B17D198F8013003F0C002802A88
:1052200011D105F1020816F8082002F0C00080280C
:1052300009D102F03F029B0142EA013203F47C6390
:105240001A4392B211E001F0E003C02B46D105F100
:10525000010816F8083003F0C002802A3ED1890107
:1052600001F4F86203F03F031A4323492046FFF795
:10527000ACFF454635E00C2918D00BD8092921D0C0
:105280000A2919D0082929D15C212046FFF75EFFA1
:10529000622123E022291BD05C2919D00D291DD1C0
:1052A0005C212046FFF752FF722117E05C21204667
:1052B000FFF74CFF662111E05C212046FFF746FF17
:1052C0006E210BE05C212046FFF740FF742105E0D2
:1052D0005C212046FFF73AFF98F800102046FFF7C0
:1052E00035FF013588E72FB120462221BDE8F04186
:1052F000FFF72CBFBDE8F081AD970D00426900EBD0
:1053000042031A7E12B100221A7670472C21FFF751
:105310001DBFF8B543690133082B0E4617460ED85A
:10532000FFF7ECFF43695A1C00EB43030124426181
:1053300031469C76DF76FFF709FF2046F8BD002056
:10534000F8BD000037B5044610EE100AE56A002DDE
:105350000ADB03F081FA2A46CDE90001084920461C
:10536000FFF733FF03B030BD03F076FA0B46054973
:105370000246204603B0BDE83040FFF726BF00BF1D
:10538000BF970D00C4970D0000F066B900220160C0
:1053900002614261704710B50446008801F0FBFDD0
:1053A00040F21233A0F10B029A4207D8A06060606D
:1053B000E06000F0D9F9A061012010BD002010BD0F
:1053C00010B5044600F0D0F9A369C01A074B984203
:1053D0000AD92369626993FBF2F3E36000F0C4F930
:1053E0000023A0612361636110BD00BF20A10700FD
:1053F00010B5836843600446008801F0CCFD236942
:10540000A060184463692061013363612046FFF79F
:10541000D7FFA2686168511AB1F5C87F10DCB2F5F8
:105420002F7F0DDCE368D31A962B0BDCC82902DD35
:10543000B2F52F7F08D1322BCCBF0220032010BD44
:10544000002010BD012010BD022010BD00F004B9E5
:105450000368C9B29B68184710B50C4601F0CEFD31
:105460003C2101F078FB01F0C9FD8021FFF7F0FF3E
:1054700001F0C4FD036821469B68984701F0BEFD1A
:10548000BDE8104001F06EBB10B5AE210446FFF739
:10549000E3FF052000F0DAFDAF212046FFF7DCFF37
:1054A000052000F0D3FD2046A621BDE81040FFF7FF
:1054B000D3BF10B50123044603702021FFF7CCFFB2
:1054C00020460221BDE81040FFF7C6BF38B550396D
:1054D0001446C9B20546FFF7BFFFE100284601F0B8
:1054E0000801FFF7B9FFC4F3430128461031BDE8B6
:1054F0003840FFF7B1BF10B50C4601F07FFD3C21ED
:1055000001F029FB01F07AFD4021FFF7A1FF01F036
:1055100075FD036821469B68984701F06FFDBDE863
:10552000104001F01FBB0000A1F120035F2B0B4BCB
:1055300088BF202170B56FF4807203EBC10503EBC7
:10554000C10306461544A3F1F90415F8011F3046BE
:10555000FFF7D1FFA542F8D170BD00BFE4970D0061
:1055600070B5AE210546FFF777FF00260022F1B2A5
:105570002846FFF7ABFF102420212846013CFFF707
:10558000D3FF14F0FF04F7D10136082EEED12846E0
:10559000AF21FFF761FF224621462846BDE8704053
:1055A000FFF794BF70B505460E460024E3B2013400
:1055B000F15C19B12846FFF7B7FFF7E770BDF0B50A
:1055C00085B000230E1E074601930293ADF80C3000
:1055D00007DA2D21FFF7A8FF7642012300240A21D4
:1055E00005E0FBD13021FFF79FFF01201DE004AA59
:1055F000651C1444EDB296FBF1F201FB126604F84F
:105600000C6C2C461646002AF1D12B44DCB25DB15D
:1056100004AB2B44384613F80D1C3031C9B2013DA0
:10562000FFF782FFEDB2F2E7204605B0F0BDA621FC
:10563000FFF712BF00F010B808B5024B1B689B685B
:10564000019308BD6802030008B5024B1B68DB68C4
:10565000019308BD6802030008B5024B1B681B6874
:10566000019308BD2C02030008B5024B1B685B6860
:10567000019308BD2C02030008B5024B1B689B6810
:10568000019308BD2C02030008B5024B1B68DB68C0
:10569000019308BD2C02030008B5024B1B681B696F
:1056A000019308BD2C02030008B5024B1B685B691F
:1056B000019308BD2C02030008B5024B1B681B6B4D
:1056C000019308BD2C02030008B5024B1B68DB6C7C
:1056D000019308BD2C02030008B5024B1B681B6830
:1056E000019308BD3002030008B5024B1B685B69DB
:1056F000019308BD3002030008B5024B1B68DB694B
:10570000019308BD3002030008B5024B1B681B6AF9
:10571000019308BD3002030008B5024B1B685B6AA9
:10572000019308BD3002030008B5024B1B68DB6B18
:10573000019308BD3002030008B5024B1B681B6CC7
:10574000019308BD3002030008B5024B1B685B6C77
:10575000019308BD3002030008B5024B1B685B686B
:10576000019308BD1802030008B5024B1B685B6972
:10577000019308BD1802030008B5024B1B689B6823
:10578000019308BD4802030008B5024B1B681B6962
:10579000019308BD4802030008B5024B1B685B6912
:1057A000019308BD4802030008B5024B1B685B6CFF
:1057B000019308BD4802030008B5024B1B689B6CAF
:1057C000019308BD4802030008B5024B1B685B69E2
:1057D000019308BD6402030008B5024B1B681B68F7
:1057E000019308BD3C02030008B5024B1B68DB684F
:1057F000019308BD3C02030008B5024B1B681B69FE
:10580000019308BD3C02030008B5024B1B685B69AD
:10581000019308BD3C02030008B5024B1B689B695D
:10582000019308BD3C02030008B5024B1B68DB690D
:10583000019308BD3C02030008B5024B1B681B6ABC
:10584000019308BD3C02030008B5024B1B689B6A2C
:10585000019308BD3C02030008B5024B1B68DB68DE
:10586000019308BD2802030008B5024B1B689B6921
:10587000019308BD2802030008B5024B1B68DB69D1
:10588000019308BD2802030008B5024B1B681B6A80
:10589000019308BD2802030008B5024B1B685B6A30
:1058A000019308BD2802030008B5024B1B689B6AE0
:1058B000019308BD2802030008B5024B1B68DB6A90
:1058C000019308BD2802030008B5024B1B681B6B3F
:1058D000019308BD2802030008B5024B1B685B6BEF
:1058E000019308BD2802030008B5024B1B681B6C1E
:1058F000019308BD2802030008B5024B1B681B6D0D
:10590000019308BD2802030008B5024B1B681B6801
:10591000019308BD4C02030008B5024B1B685B688D
:10592000019308BD4C02030008B5024B1B681B69BC
:10593000019308BD4C02030008B5024B1B685B696C
:10594000019308BD4C02030008B5024B1B689B691C
:10595000019308BD4C02030008B5024B1B68DB69CC
:10596000019308BD4C02030008B5024B1B681B6A7B
:10597000019308BD4C02030008B5024B1B685B682D
:10598000019308BD2002030008B5024B1B685B6948
:10599000019308BD2002030008B5024B1B68DB6AB7
:1059A000019308BD2002030008B5024B1B68DB6CA5
:1059B000019308BD2002030008B5024B1B685B6D14
:1059C000019308BD2002030008B5034B1B68D3F800
:1059D0008830019308BD00002002030008B5034B86
:1059E0001B68D3F89430019308BD00002002030027
:1059F00008B5024B1B685B68019308BD40020300B9
:105A000008B5024B1B689B68019308BD4002030068
:105A100008B5024B1B68DB68019308BD4002030018
:105A200008B5024B1B681B69019308BD40020300C7
:105A300008B5024B1B685B69019308BD4002030077
:105A400008B5024B1B689B69019308BD4002030027
:105A500008B5024B1B68DB69019308BD40020300D7
:105A600008B5024B1B681B6A019308BD4002030086
:105A700008B5024B1B681B6B019308BD4002030075
:105A800008B5024B1B685B6B019308BD4002030025
:105A900008B5024B1B685B69019308BD4402030013
:105AA00008B5024B1B681B6A019308BD4402030042
:105AB00008B5024B1B68DB6B019308BD4402030071
:105AC00008B5024B1B681B68019308BD1C0203004C
:105AD00008B5024B1B685B68019308BD1C020300FC
:105AE00008B5024B1B689B68019308BD1C020300AC
:105AF00008B5024B1B685B6A019308BD1C020300DA
:105B000008B5024B1B68DB6A019308BD1C02030049
:105B100008B5024B1B681B6B019308BD1C020300F8
:105B200008B5024B1B68DB6B019308BD1C02030028
:105B3000002211464068FFF793BF002211464068DB
:105B4000FFF79EBF00224068FFF792BF002281F05E
:105B500001014068FFF77CBF00231A4619464068E0
:105B6000FFF76EBF00231A4619464068FFF760BF73
:105B7000002211464068FFF753BF002211464068DB
:105B8000FFF73EBF002202214068FFF741BF00231C
:105B90001A464068FFF72CBF024B03225A60024AA4
:105BA0001A607047DCE30320EC9A0D000021FFF738
:105BB000C3BD0021FFF7C8BD10B5044601700846FB
:105BC000FFF79AFD00236360204610BD10B5044620
:105BD0000078FFF7EBFF48B920784FF6FF71FFF729
:105BE0007BFD2078BDE81040FFF7E3BF10BD0078D3
:105BF000FFF7DFBF400830B51860002418688842FE
:105C0000E5B206D90134082C02D040081860F5E747
:105C10000725024B5B5D137030BD00BF189B0D0064
:105C20002DE9F04307468FB000780E46FFF7BEFF20
:105C3000002862DB3C781422002109A803F04BFC09
:105C40000B232046002209A9ADF82430FFF764FD9C
:105C50009DF82D4054B19DF82C5035B9DDF83080B9
:105C60009DF834909DF8354003E00024A146A046FD
:105C70000125337905B1BBB99D420BD1B2684245CC
:105C800008D18DF820908DF82140BDF82010B28900
:105C9000914209D053B100243878019400942346EE
:105CA00022460121FFF740FD002026E08DF80F304D
:105CB000B1680A9804AB0DF10F02FFF79BFF317931
:105CC00005B1B1B9A94208D0002438780194747B99
:105CD000337B9DF80F200094E4E7B3684345F3D38A
:105CE0008DF820908DF82140BDF82020B3899A428C
:105CF000EAD1049B4345E7D1D6E70FB0BDE8F08376
:105D000008B50078FFF7F0FCC0B208BD0078FFF7D7
:105D1000FBBC10B50446006818B1FFF7D9FE00239C
:105D2000236010BD10B50446FFF7F3FF204610BDF9
:105D300010B5094C00204FF6FF732060A080A071C1
:105D400020816381FFF718FE2046044A0449BDE81C
:105D5000104001F079B900BFE4E303204CE30320D5
:105D6000255D0D0010B504460068FFF7B1FE204622
:105D700010BD10B50446006808B1FFF7A9FE002366
:105D80002360A360636010BD38B504460D4600680B
:105D90000131FFF7A5FE10B184E82100012038BDD4
:105DA00010B50368044613B143688B4207D22046FE
:105DB000FFF7EAFF20B1A3680BB922681370012036
:105DC00010BD70B50E46114604461546FFF7E8FFB4
:105DD00018B92046FFF7CDFF09E02A463146A560F5
:105DE000206803F06DFB2268A3680021D15420468F
:105DF00070BD38B5002304460360436083600373BD
:105E00000D4639B1084603F0B2FB2946024620464A
:105E1000FFF7D7FF204638BD884210B50B46044631
:105E200007D0096819B19A68FFF7CBFF01E0FFF7C7
:105E3000A0FF204610BD10B5002304460360436058
:105E400083600373FFF7E8FF204610BD38B50546B1
:105E50000C4641B1084603F08AFB2146024628461B
:105E6000FFF7AFFF01E0FFF784FF284638BD10B50C
:105E70000446006808B1FFF79FFC204610BD10B52E
:105E8000036804469B689847A368013BA3602BB94D
:105E900023682046DB68BDE81040184710BD0B683A
:105EA000036013B15A6801325A60704710B5044656
:105EB000006828B14368013B43600BB9FFF7DFFF7F
:105EC000204610BD10B5064C002320462360FFF786
:105ED0006BFC2046034A0449BDE8104001F0B4B809
:105EE000F0E303204CE303206F5E0D00F8B5064697
:105EF0000D468F180024BD420CD0336815F8011BE5
:105F00009B6830469847002801DB0444F3E7002CE7
:105F100008BF04462046F8BD70B505460C46084645
:105F200049B103F024FB2B68024621462846DB6872
:105F3000BDE87040184770BD08B5FFF7EDFF08BD1C
:105F400003689B68184738B50D210546FFF7F8FF31
:105F50000A2104462846FFF7F3FF204438BD38B530
:105F60000546FFF7D9FF04462846FFF7ECFF20441B
:105F700038BD30B58BB00B4600218DF82410012AB6
:105F800098BF0A220DF12304B3FBF2F505FB12338F
:105F900003F0FF03092B94BF30333733DBB22146C4
:105FA00004F801392B46002DEED1FFF7B5FF0BB0F9
:105FB00030BD0CB42DE9F04387B000AF07F13804D1
:105FC000054654F8049B3C600E4623464A4614217D
:105FD000381DFFF78DFD132805D8391D2846FFF71A
:105FE0009BFF044613E000F1080323F00703E84693
:105FF000ADEB030D411C23464A4668463C60FFF763
:1060000077FD69462846FFF787FF0446C5461EB15F
:106010002846FFF798FF044420461C37BD46BDE8DC
:10602000F04302B070470000014B024A1A6070470B
:10603000F4E30320939B0D00024B1A68024B1A6095
:10604000704700BFE0E20320F8E303200021FFF7E0
:106050009BBC10B58368044613B1032201469847E0
:10606000204610BD10B50446FFF7F3FF204610BDD3
:1060700013B50B46044603C88DE8030093E80300FC
:1060800084E803009DE8030083E8030002B010BD2C
:106090000348044A04490023836000F0D5BF00BFD1
:1060A000FCE303204CE3032065600D0008B50C4BB6
:1060B00033B100F01BFC03681B699847002809DC1A
:1060C000084B63B100F094FC03681B6998470028F3
:1060D00003DC08BDAFF30080F2E7AFF3008008BD3A
:1060E000000000000000000008B5FFF7DFFFFFF729
:1060F0003BFB014B186008BD30E703200248034A10
:106100000349121A03F0DCB900F4032004F403205D
:10611000489E0D0007B5002300931A466FF07701E3
:10612000FFF75CFC03B05DF804FB000007B5438893
:106130000A2B08D0502B09D1094B1B683BB103B087
:106140005DF804EB1847FFF7E5FF06E00023009336
:106150001A466FF07701FFF741FC03B05DF804FBCE
:106160000CE4032038B5104C104D2368AB42104BA3
:106170000CBF012200221A7002D0FFF7BFFF25607A
:10618000FFF7EAFA044603F0AFF90A4B13B12046D1
:10619000AFF3008000210748FFF78AFC0021064882
:1061A000BDE83840FFF710BC00F403201E1C279AFE
:1061B00010E40320000000002D610D007047002056
:1061C000704710B51021044600F04CFF204610BD6A
:1061D00008B508B1FFF7F5FF08BD0022026010B551
:1061E0004FF69C728280B1F9044084808A800268F4
:1061F0000C6804600A6010BD10B504460068FFF723
:1062000067FC204610BD38B5C468F4B12378022B72
:1062100003D104F10C00FFF7EFFF656835B12846A4
:10622000FFF717FF1021284600F01CFFA56835B1C5
:106230002846FFF70EFF1021284600F013FF2046E6
:106240001421BDE8384000F00DBF38BD13B5044639
:1062500091E8050000234B600B602060626001A89C
:1062600001930093FFF722FE204602B010BDF7B560
:106270000C4602AD54F8043B45F8083D06460F466F
:1062800001A82146FFF70BFE29463046FFF7DEFF47
:1062900001A8FFF70BFE2046FFF708FE384608214D
:1062A00000F0E0FE304603B0F0BD000038B500233A
:1062B0000446036010200D46FDF7EFFE28B10123D0
:1062C00043608360024B0360C5602060204638BD98
:1062D000309C0D00826810B50AB900F0D6FEC36884
:1062E000BDE81040184708B5006800F11001FFF73D
:1062F000F1FF08BD826810B50AB900F0C6FEC36898
:10630000BDE81040184708B5006800F11001FFF71C
:10631000F1FF08BD38B5002383608B6804460D4645
:106320002BB102229847EB68E360AB68A36020467C
:1063300038BD0000F0B589B004686846FFF74DFF2E
:1063400000238DF808304FF00202D4E84F3F002BB5
:1063500003D1C4E8412F0029F7D102D08DF80830CD
:1063600063E014F10C0503D069462846FFF735FFBA
:10637000BFF35F8F01236370002004F10803BFF3B4
:106380005F8F53E8006F43E80002002AF9D1BFF3A2
:106390005F8F002E49D0FFF707FB20B1294630461A
:1063A000FFF798FF3AE0314602A8FFF7B3FFE06835
:1063B000B4F9105008B103F0BFF806901020ADF802
:1063C0001C50FDF76AFE0546E8B1002787601820DB
:1063D000FDF763FE044688B10146876002A8FFF717
:1063E00047FE049BA268A360059B049206A9E2688D
:1063F000E36004F110000592FFF7EFFE0D4BEB6038
:106400000D4B2C60AB6006A8FFF7F6FE02A8FFF765
:1064100020FE002229460948FFF7CEFA3046FFF752
:1064200018FE1021304600F01DFE6846FFF7E4FE1E
:1064300009B0F0BDE7620D005D650D003D6A0D001D
:106440002DE9F04F8BB006460F46904699469DF8D1
:1064500050A0FFF71DFB07AD834630BB4FF62E73F0
:10646000059005A92846ADF81830FFF7B6FE1420B0
:10647000FDF713FE044658B1022303700123437055
:10648000C0F804B0C0F808B029460C30FFF7A5FEEC
:106490003046214640F8044BFFF708FF2846FFF737
:1064A000ABFE05A8FFF7A8FE52E000240C23142041
:1064B0006C60AC600793FDF7F0FD014618B1047005
:1064C00044704460846004A80391FFF7EFFE224B00
:1064D00008930820FDF7E1FD044628B1039B40F82E
:1064E000043B04A9FFF7DBFC00955FFA8AF34A46F8
:1064F000414638460994FFF7D3FA20B9039B5B78ED
:1065000003F0FF0283B1039B059304A906A8FFF7DC
:10651000C6FC05A93046FFF799FE06A8FFF7C6FCA2
:1065200004A8FFF7C3FC13E04FF69C7305A903A86A
:106530000592ADF81830FFF7FDFE05A8FFF75CFEE9
:1065400005A80999FFF793FE06A8FFF7AFFCDAE765
:1065500030460BB0BDE8F08FCD660D00022AF8B5CD
:10656000044606D0032A17D0012A22D10B68036003
:106570001FE018200E68FDF790FD054650B131462A
:10658000FFF7C8FE3069B6F9147008B102F0D4FF05
:106590002861AF8225600CE0046854B104F110005A
:1065A000FFF72AFE2046FFF754FD1821204600F091
:1065B00059FD0020F8BD38B5002383608B68044680
:1065C0000D462BB102229847EB68E360AB68A360ED
:1065D000204638BD022A70B5044606D0032A11D0E1
:1065E000012A18D10B68036015E014200E68FDF72E
:1065F00054FD054620B13146FFF7DDFF337C2B7497
:10660000256008E0046834B12046FFF722FD14211C
:10661000204600F027FD002070BD0000F0B50023EB
:1066200087B00C46BFF35F8F50E8006F40E8003240
:10663000002AF9D1BFF35F8F002E3FD01846FFF735
:10664000B3F9074620B121463046FFF753FE2EE04E
:10665000314601A8FFF7AFFF23788DF814301020E2
:10666000FDF71BFD0546D0B187601420FDF715FD31
:10667000044678B18760014601A8FFF7F9FC039B47
:10668000A268A360049B0392E268E3609DF8143063
:10669000049223740A4BEB600A4B2C60AB6001A898
:1066A000FFF7D7FC002229460748FFF785F9304657
:1066B000FFF7CFFC1021304600F0D4FC07B0F0BD4E
:1066C00007630D00D5650D003D6A0D0030B585B03E
:1066D00004460D4668461146FFF7C9FD7CB124B259
:1066E00028460DB102F028FF029002A96846ADF8D5
:1066F0000C40FFF71FFE02A8FFF77EFD1DE000988B
:106700008DF808404FF00102D0E84F3FA34203D17B
:10671000C0E8412F0029F7D102D08DF808300CE0F5
:1067200010F10C014FF0010318BF0373BFF35F8F2B
:10673000043000F8033CFFF771FF01A8FFF7B6FB38
:1067400005B030BD704710B51821044600F08AFC32
:10675000204610BDF0B5037D062B8DB00E4600F12E
:1067600004074FF0000402D000F1080518E00CAD5A
:10677000394605F8304D2F232A460A20FFF724F822
:10678000284602F0F4FE33680246DB6829463046AC
:1067900098470FE024B12E213046FFF7D1FB044487
:1067A00015F8011D0A223046FFF7E3FBBD42044401
:1067B000F0D120460DB0F0BD10B5054B04461122B6
:1067C00040F8043B002102F086FE204610BD00BFC9
:1067D0004C9C0D000346074A10B543F8042B01F109
:1067E000100251F8044B43F8044B9142F9D10A7856
:1067F0001A7010BD4C9C0D0010B59DF8084044EA7D
:10680000032343EA024242EA016104234160037523
:1068100010BD37B50D788B784A78C9780091294634
:10682000FFF7EAFF03B030BD41747047704708B509
:106830000021007CFFF788F830EA200028BF4FF0E5
:10684000FF3008BD08B50121007CFFF77DF830EA74
:10685000200028BF4FF0FF3008BD08B5007CFFF7CF
:106860006BF820EAE07008BD08B5007CFFF75CF823
:1068700020EAE07008BD007CFFF776B810B514215F
:10688000044600F0EFFB204610BD38B50446007CFE
:106890000D46FFF751F8002801DC607C28B129463D
:1068A000207CFFF759F820EAE07038BD10B50446A7
:1068B000002363604FF47A73A360054B23600123C8
:1068C0000846217463741146FFF71EF8204610BD78
:1068D000609C0D000022007CFFF71EB810B514224A
:1068E0000446002102F0F7FD204610BD30B50E4DE4
:1068F00087B001A8FFF7F2FF296811F0010410D159
:106900002846FDF7D0FB60B101AA21460748FFF7F2
:10691000CDFF2846FDF7CCFB054A0649034800F0A9
:1069200093FB024807B030BD14E4032018E40320B1
:106930004CE303202D680D0070474174704708B583
:10694000007CFEF781FF20EAE07008BD08B5007CFE
:10695000FEF752FF20EAE07008BD08B5007CFEF7A4
:106960005BFF30EA200028BF4FF0FF3008BD08B5BC
:10697000007CFEF749FF30EA200028BF4FF0FF30CF
:1069800008BD007CFEF750BF10B51421044600F08E
:1069900069FB204610BD70B5457C04460E4625B9FE
:1069A000007CFEF751FF002805DD3146207CBDE864
:1069B0007040FEF719BF284670BD000010B50446B0
:1069C00008461146002262604FF47A72A260054ABE
:1069D00022600122207462741A46FEF7FDFE2046F2
:1069E00010BD00BF909C0D00007CFEF725BF00008D
:1069F00038B50C4D296811F0010411D12846FDF776
:106A000052FB68B1084A094B09482146FFF7D6FFF7
:106A10002846FDF74DFB074A0749054800F014FBDF
:106A2000034838BDC4E40320C8E4032040E4032045
:106A30002CE403204CE3032039690D0010B5836872
:106A400004460BB900F021FBC3689847A3681BB14B
:106A5000032221462046984720461021BDE81040D9
:106A600000F000BB7047F8B5064615460C468F1877
:106A7000BC4206D0336814F8011B9B683046984727
:106A8000F6E72846F8BD0022007CFEF7FDBE002197
:106A9000007CFEF701BF0021007CFEF705BF00214E
:106AA000007CFEF709BF0021007CFEF70DBF10B58A
:106AB0001421044600F0D6FA204610BD10B5044655
:106AC000002363604FF47A73A360044B217408467B
:106AD00023601146FEF708FF204610BDC09C0D0044
:106AE00000231A461946007CFEF7B6BE70B50C4668
:106AF00086B0142506462A46002101A802F0EBFCC8
:106B000023788DF8083063680393E36804930022C8
:106B1000237A307CADF8045001A90593FEF7ECFE12
:106B200006B070BD1FB500338DF800104FF0640142
:106B3000039118BF0123694601928DF80830FFF7D1
:106B4000D5FF05B05DF804FB0123FFF7EBBF002282
:106B5000007CFEF789BEC9B2FFF7F9BF0022007CB6
:106B6000FEF78ABE0121FFF7F9BF0021007CFEF786
:106B7000B3BE002211464068FEF772BF00221146E4
:106B80004068FEF77DBF00224068FEF771BF00221B
:106B900081F001014068FEF75BBF00231A46012126
:106BA0004068FEF74DBF00231A4619464068FEF7BD
:106BB0003FBF002211464068FEF732BF0022114657
:106BC0004068FEF71DBF002202214068FEF720BF8B
:106BD00000231A464068FEF70BBF38B5054688B15A
:106BE00004684CB1A3681BB1032221462046984794
:106BF0001021204600F036FA28461421BDE838401E
:106C000000F030BA38BD10B103685B6818477047B0
:106C100010B503680446BBB15868FEF7ADFD78B9FE
:106C200023685A7C12B95868FEF7AEFD236858688D
:106C3000FEF7B2FD20680023236028B1FFF7CDFFE7
:106C4000206808B1FFF7C9FF204610BD38B50446DB
:106C5000D0F8C40108B1FDF724FAD4F8C00108B196
:106C6000FEF7AAFDD4F8BC5135B12846FFF7D0FF96
:106C70000421284600F0F6F9206808B1FFF7C3FFA9
:106C8000204638BD10B5044B044640F8083BFFF7DA
:106C9000DDFF204610BD00BFE89C0D0038B50E4C4E
:106CA0000E4B23600025022304F5E4706360A560A9
:106CB000C4F8C451C4F8C851FEF776FD084BC4F8B7
:106CC000CC5184F8D05123602046064A0649BDE8DD
:106CD000384000F0B9B900BF4CE50320509D0D00CD
:106CE000E89C0D004CE30320856C0D00002211464A
:106CF0004068FEF795BE002211464068FEF7B0BE20
:106D0000002211464068FEF7BBBE00224068FEF735
:106D1000AFBE002281F001014068FEF799BE00235A
:106D20001A4619464068FEF78BBE00231A461946DC
:106D30004068FEF77DBE002211464068FEF760BE47
:106D4000002202214068FEF763BE00231A46406815
:106D5000FEF74EBE024B04225A60024A1A60704788
:106D600020E703201C9D0D0000231A464068FEF713
:106D70003FBE002202214068FEF74ABE00221146B3
:106D80004068FEF73DBE002211464068FEF748BE4F
:106D900000231A4619464068FEF74ABE00231A46E9
:106DA00019464068FEF74CBE002281F001014068A0
:106DB000FEF74EBE00224068FEF75ABE0022114682
:106DC0004068FEF75DBE002211464068FEF748BEEF
:106DD0002DE9F043002495B016460D460746FFF70F
:106DE000EBFC214620220CA8009402F074FB402307
:106DF0000C9321466B460CAA3046FEF725FC044650
:106E0000002844D1024601216868FEF709FE0221EC
:106E1000804622466868FEF703FE009E81462146B2
:106E2000002E34D0002932D17368022B02D00A2BF5
:106E300009D02AE0B8F1000F27D071693846043133
:106E4000FFF7E7FC20E0B9F1000F1ED074691122B2
:106E500001A802F040FB06238DF8143001AD04F1C7
:106E600008031834186859682A4603C20833A34235
:106E70001546F7D101A906A807ADFFF7ABFC0FCD6A
:106E80003C1D0FC42B6823700121F669C8E70098E8
:106E9000FEF7D2FB384615B0BDE8F083024B034A3B
:106EA0001A6000225A60704728E70320509D0D00A9
:106EB00070B5184E316811F0010504460AD130460C
:106EC000FDF7F1F830B129461348FEF775FE30465C
:106ED000FDF7EEF81048FEF719FF28B1A4F10B03F7
:106EE000022B01D8002070BD00F088F8FFF73DFEAE
:106EF00008B1012CF6D9FFF77BFDFFF775FD18B13E
:106F0000A4F10903012BEDD9232C8CBF0020012013
:106F100070BD00BFCCE30320D0E30320232838B5A5
:106F200004460D460AD8FF2908D0FFF7C1FF28B153
:106F300029462046BDE83840FEF79EBB38BD38B52F
:106F400004460D46FEF7A0FBFF2810D0062804D803
:106F50004D2323FA00F0C30709D42046FFF7A8FF0A
:106F600028B129462046BDE83840FEF795BB38BD1C
:106F700010B50446FEF788FB0438C0B2012808D9D2
:106F80002046FFF795FF20B12046BDE81040FEF7F0
:106F90008BBB002010BD0D2810B504469CBF0E34DD
:106FA000A4B22046FFF784FF50B103212046FEF72C
:106FB0005BFB032804D12046BDE81040FEF77CBBF4
:106FC000002010BDFEF780BB70B5044614252A468C
:106FD000094E002102F07FFA258020253146A56068
:106FE0002561284600F040F831466060284600F0F0
:106FF0003BF8E060204670BD7C9D0D0030B50E4D25
:10700000296811F0010487B013D12846FDF74BF829
:1070100078B101A8FFF7D8FF01AA21460748FFF77A
:107020004DFD2846FDF744F8054A0649034800F09F
:107030000BF8024807B030BD34E7032038E70320DF
:107040004CE30320656A0D000B460146184602F02A
:1070500029BA0000024B1868BFF35F8F704700BF6A
:107060004CE70320FDF71BB800F000B810B500286E
:1070700014BF044601242046FEF722FD20B9FFF785
:10708000E9FF08B18047F6E710BD08B5FEF738FD07
:10709000184B1A68D1075CBF01221A60164B1A6898
:1070A000D2075CBF01221A60144B1A68D0075CBF7C
:1070B00001221A60124B1A68D1075CBF01221A60C4
:1070C000104B1A68D2075CBF01221A600E4B1A6877
:1070D000D0075CBF01221A600C4B1A68D1075CBF55
:1070E00001221A600A4B1A68D2075CBF01221A609B
:1070F000704700BF6CE7032068E7032064E70320C4
:1071000060E703205CE7032058E7032054E70320EF
:1071100050E70320244B1A68D0075CBF01221A6095
:10712000224B1A68D1075CBF01221A60204B1A68F3
:10713000D2075CBF01221A601E4B1A68D0075CBFE1
:1071400001221A601C4B1A68D1075CBF01221A6029
:107150001A4B1A68D2075CBF01221A60184B1A68D2
:10716000D0075CBF01221A60164B1A68D1075CBFBA
:1071700001221A60144B1A68D2075CBF01221A6000
:10718000124B1A68D0075CBF01221A60104B1A68B4
:10719000D1075CBF01221A600E4B1A68D2075CBF90
:1071A00001221A60704700BF9CE7032098E7032084
:1071B00094E7032090E703208CE7032088E703206F
:1071C00084E7032080E703207CE7032078E703209F
:1071D00074E7032070E70320244B1A68D0075CBFD4
:1071E00001221A60224B1A68D1075CBF01221A6083
:1071F000204B1A68D2075CBF01221A601E4B1A6826
:10720000D0075CBF01221A601C4B1A68D1075CBF13
:1072100001221A601A4B1A68D2075CBF01221A6059
:10722000184B1A68D0075CBF01221A60164B1A6807
:10723000D1075CBF01221A60144B1A68D2075CBFE9
:1072400001221A60124B1A68D0075CBF01221A6033
:10725000104B1A68D1075CBF01221A600E4B1A68E6
:10726000D2075CBF01221A60704700BFCCE7032041
:10727000C8E70320C4E70320C0E70320BCE70320DE
:10728000B8E70320B4E70320B0E70320ACE703200E
:10729000A8E70320A4E70320A0E70320184B1A68FF
:1072A000D1075CBF01221A60164B1A68D2075CBF77
:1072B00001221A60144B1A68D0075CBF01221A60C1
:1072C000124B1A68D1075CBF01221A60104B1A6872
:1072D000D2075CBF01221A600E4B1A68D0075CBF50
:1072E00001221A600C4B1A68D1075CBF01221A6098
:1072F0000A4B1A68D2075CBF01221A60704700BFB0
:10730000ECE70320E8E70320E4E70320E0E70320BD
:10731000DCE70320D8E70320D4E70320D0E70320ED
:107320002DE9F04F2DED028BDFF824A38BB057EC45
:10733000106B55EC114B00F08FF99AF90080B0EE0C
:10734000408AF0EE608AB8F1FF3F48D022462B46D3
:107350002046294601F06EFD834600283FD1324683
:107360003B463046394601F065FD8146002840F035
:107370009080304639460022002301F029FD002884
:1073800036D0002200232046294601F021FD834605
:10739000B8B19FEDA57B0122A94BCDF820900092BA
:1073A000CDE90267CDE904458DED067B0193B8F187
:1073B000000F5BD09FED9E0B0BB0BDEC028BBDE8C8
:1073C000F08F45EC104B00F0A7FF40B100220023E6
:1073D0002046294601F006FD002840F0C580B0EEA9
:1073E000480AF0EE680A0BB0BDEC028BBDE8F08FE6
:1073F000B0EE480AF0EE680A00F08EFF80460028E2
:1074000061D04FF000084FF0000951EC180B4246D4
:107410004B4601F0DDFC0028E1D047EC106B00F09A
:107420007BFF0028DBD045EC104B00F075FF0028F7
:10743000D5D09AF90030824A019204210022022B11
:10744000CDE90267CDE90445CDE9068900910892AE
:1074500003D0684600F068FF70B9FEF761FB222395
:10746000036009E09FED707B8DED067B684600F0C0
:107470005BFF002800F08E80089B1BB1FEF750FBDD
:10748000089B03609DED060B0BB0BDEC028BBDE8C5
:10749000F08F002200232046294601F099FC0028A5
:1074A0009DD09FED630B664BCDF820B00122B8F163
:1074B000020FCDE90267CDE904458DED060B8DE89D
:1074C0000C00D3D18FE747EC106B00F025FF0028AC
:1074D00097D045EC104B00F01FFF002891D053ECE3
:1074E000182B18EE100A194601F0A4FC00287CD1D4
:1074F00003239AF900800093514B0890CDE902676D
:10750000CDE904450193B8F1000F48D1DFF844916B
:107510004FF060480022002330463946CDE9068905
:1075200001F060FC002894D00022464B20462946FA
:1075300001F0E6F904460D4645EC104B00F000FF63
:10754000204653EC102B294601F042FC002849D17B
:107550003D4B9AF900804FF06042CDE90623B8F127
:10756000020F7FF476AF78E7354A9AF90030CDF80C
:1075700020B00121CDE90267CDE904458DE8060080
:10758000002B3FF46FAF31490020022BCDE90601FB
:107590007FF46CAFFEF7C4FA212303606CE79FED24
:1075A000267B00220023304639468DED067B01F014
:1075B00019FC0028D3D00022224B2046294601F096
:1075C0009FF904460D4645EC104B00F0B9FE2046ED
:1075D00053EC102B294601F0FBFB18B91B4B002282
:1075E000CDE906239AF90080B9E7154B9AF9009086
:1075F000CDF820800122CDE90267CDE904458DE870
:107600000C00B9F1000F3FF42DAF0022002310460B
:10761000194601F09FFAB9F1020FCDE90601B9D080
:1076200024E700BFAFF3008000000000000000006E
:10763000000000000000F03F000000000000F07FAC
:10764000809D0D000000E03FFFFFEFC70000F0FF4E
:10765000E4E20320FFFFEF472DE9F04F51EC110B5F
:1076600021F0004858EA000493B03CD053EC102BB2
:107670006D4E23F00044B44210EE10AA1D462BDCE0
:10768000894611EE10EA26D0B04525DC664EB0459D
:1076900077D0002D16461F46CDE9000175DB4FF06F
:1076A000000BBEF1000F2DD15F4B984500F0898093
:1076B0005E4B98455ED0B9F1804F00F0DE835C4BA5
:1076C00099451FD1002D1DDB47EC106B13B0BDE8B1
:1076D000F04F00F049BD5AB104F1404404F5801464
:1076E00054EA0A0306D19FED4A0B13B0BDE8F08FB0
:1076F000A045CBDD4F4813B0BDE8F04F00F018BEF9
:107700004FF0000B47EC106B00F0FEFD51EC100B3E
:10771000BAF1000F1ED0ED0F05F1FF3A5BEA0A0344
:1077200063D0454B984540F38D8003F10473984531
:1077300040F33884414B9C4262DDB9F1000F62DDB9
:1077400035A3D3E900231046194601F0D9F841ECDE
:10775000100BCAE724B1354B25F040429A42DAD1EA
:10776000B9F1000FC0F2CB83002DC0F2748341EC5D
:10777000100BBAE7B9F1000FC0F27A8447EC106B36
:10778000B3E7BEF1000F84D0A6E72D4B984529DC66
:10779000A3F15473984582DD4FEA2853A3F2FF33D7
:1077A000142B40F37F84C3F134032EFA03F202FA60
:1077B00003F39E457FF473AF02F00102C2F1020BA6
:1077C0006FE704F1404303F5801353EA0A038AD0BC
:1077D0001A4B9C4240F38583B9F1000F13DB9DEDFA
:1077E000000B82E74FF0020B5BE732463B46104648
:1077F000194600F0D1FE02460B4601F0ABF9B6E7A0
:10780000B9F1000F9CDB9FED060B6EE7AFF3008034
:10781000000000000000F03F9C7500883CE4377ECB
:1078200000000000000000000000F07F0000F03FBA
:107830000000E03F849D0D000000E041FFFFEF3FAE
:10784000FFFF3F43B4F5801F4FF0000205DAD64B2F
:1078500001F056F86FF034020C462315D34EC4F3F2
:107860001304A3F2FF33134444F07F55B4421A4685
:107870000D9345F4401540F34983CD4B9C4240F3B2
:107880002D849FEDB37B8DED087B8DED0E7B9FED01
:10789000B27B13468DED067B01330D93A5F5801564
:1078A0004FF00008DDE906232946CDE90A0100F082
:1078B00073FEDDE9062306460F46DDE90A0100F006
:1078C0006DFE02460B460020BA4901F043F903461B
:1078D0000C46CDE9103402460B463046394601F0DD
:1078E0000FF86B1043F0005303F5002303EB08057A
:1078F0000A4600230146CDE902120293DDE902891E
:107900000024CDE904122B4622464046494600F0A9
:10791000F7FF02460B463046394600F03DFEDDE9F2
:10792000062306460F462046294600F035FE02464D
:107930000B46DDE90A0100F02FFE42464B4600F0FF
:10794000DFFF02460B463046394600F025FEDDE9F2
:10795000102300F0D5FFDDE90445CDE906012246FC
:107960002B462046294600F0CBFF7DA3D3E9002318
:1079700004460D4600F0C4FF7BA3D3E9002300F0CA
:107980000DFE22462B4600F0BBFF79A3D3E900236E
:1079900000F004FE22462B4600F0B2FF76A3D3E9A6
:1079A000002300F0FBFD22462B4600F0A9FF74A344
:1079B000D3E9002300F0F2FD22462B4600F0A0FFA1
:1079C00071A3D3E9002300F0E9FD224606460F46E5
:1079D0002B462046294600F093FF02460B463046D0
:1079E000394600F08DFF424604460D464B46DDE920
:1079F000040100F0D3FDDDE9062300F081FF2246FB
:107A00002B4600F0CBFD424606460F464B4640460D
:107A1000494600F075FF0022674BCDE90A0100F0EE
:107A2000BDFD32463B4600F0B9FD02980D460446C6
:107A300022462B464046494600F062FF002280461F
:107A400089465D4B2046294600F0A6FDDDE90A2364
:107A500000F0A2FD02460B463046394600F09CFD80
:107A6000DDE9042300F04CFF224606460F462B4674
:107A7000DDE9060100F044FF02460B463046394678
:107A800000F08CFD06460F4602460B46404649462E
:107A9000CDE9048900F082FD02983DA3D3E90023DB
:107AA00004460D4600F02CFFDDE90423804689469C
:107AB0002046294600F070FD02460B463046394606
:107AC00000F06AFD34A3D3E9002300F019FF34A3CA
:107AD000D3E9002306460F462046294600F010FF52
:107AE00002460B463046394600F058FDDDE90E23CC
:107AF00000F054FD06460D980F4600F09BFE3246FE
:107B000004460D463B464046494600F047FDDDE948
:107B1000082300F043FD22462B4600F03FFD02986B
:107B200022462B46CDE9020100F036FDDDE90823AF
:107B300000F032FD42464B4600F02EFD02460B4659
:107B40003046394600F028FD8046894636E000BFC1
:107B50000000000000000000000000000000F03FF6
:107B6000EF4E454A287ECA3F65DBC9934A86CD3F22
:107B700001411DA96074D13F4D268F515555D53F08
:107B8000FFAB6FDBB66DDB3F033333333333E33FA0
:107B9000000000E009C7EE3FFD033ADC09C7EE3FF5
:107BA000F5015B14E02F3EBE000040438E980300B9
:107BB00079B60B000000F03F000008400BF1FF33E6
:107BC00053EA0A0300F088819FEDD77B8DED067B99
:107BD000DDE900AB53465C46CDE900340023009359
:107BE000DDE90045504622462B46594600F0D4FCBC
:107BF000DDE9022300F084FE524606460F465B464E
:107C00004046494600F07CFE02460B463046394667
:107C100000F0C4FC2246804689462B46DDE902017D
:107C2000CDE9048900F06CFE0B46024606460F467D
:107C30004046494600F0B2FCD54B994204460D46F9
:107C40008A4640F3238101F13F4303F5E0030343F8
:107C500040F01882B6A3D3E90023DDE9040100F067
:107C60009DFC3246804689463B462046294600F028
:107C700093FC02460B464046494601F0D1F80028E5
:107C800040F00082A8464FEA28534FF48012A3F236
:107C9000FE3342FA03F35344C3F30A52BD4DA2F23A
:107CA000FF321541C3F3130B0020C2F1140423EA81
:107CB00005014BF4801BBAF1000F02460B464BFA4C
:107CC00004FB30463946B8BFCBF1000B00F064FC32
:107CD00002460B4606460F46DDE9040100F05EFC55
:107CE0004FEA0B5A002494A3D3E9002320460D4603
:107CF00000F006FE3246804689463B46204629462D
:107D000000F04AFC02460B46DDE9040100F044FCA9
:107D10008BA3D3E9002300F0F3FD8BA3D3E9002369
:107D200006460F462046294600F0EAFD02460B466D
:107D30003046394600F032FC06460F4602460B46F6
:107D40004046494600F02AFC42464B4604460D4652
:107D500000F022FC02460B463046394600F01CFC7F
:107D60002246804689462B462046294600F0C8FD1B
:107D700077A3D3E9002306460F4600F0C1FD76A3A2
:107D8000D3E9002300F008FC32463B4600F0B8FD82
:107D900073A3D3E9002300F001FC32463B4600F018
:107DA000AFFD71A3D3E9002300F0F6FB32463B465A
:107DB00000F0A6FD6EA3D3E9002300F0EFFB3246EE
:107DC0003B4600F09DFD02460B462046294600F04A
:107DD000E3FB06460F4602460B462046294600F0C6
:107DE0008FFD0022CDE900014FF080433046394637
:107DF00000F0D2FB02460B46DDE9000100F0AAFECE
:107E0000424606460F464B462046294600F078FD7E
:107E100042464B4600F0C2FB02460B46304639460E
:107E200000F0BAFB22462B4600F0B6FB02460B469A
:107E30000020594900F0B0FB8A44BAF5801F024681
:107E40000B46C0F25B815146DDE9062300F058FD88
:107E500041EC100B49E404F1404404F5801454EA69
:107E60000B0300F03781BBF1010F7FF480AC0246B9
:107E700001F1004343EC102B37E432463B463046D9
:107E8000394600F03DFD41EC100B2EE4434B21F050
:107E90000048984540F31581414B0B4403430CD1F6
:107EA00032463B4600F078FB02460B46DDE9040112
:107EB00000F0A2FF00283FF4E6AE2FA3D3E9002391
:107EC000DDE9060100F01CFD2BA3D3E9002300F03F
:107ED00017FD41EC100B08E49FED297B8DED067B2F
:107EE00076E6B9F1000FBFF68EACDDE9003400EEA6
:107EF000103A04F1004300EE903AFFF7F6BB024659
:107F00000B460020244900F025FE2DE49FED1E7B4A
:107F10008DED087B8DED0E7B9FED037B4FF0000810
:107F20008DED067BBEE400BF000000000000F03FC6
:107F3000FE822B654715973C00000000432EE63F6C
:107F4000EF39FAFE422EE63F396CA80C615C20BE88
:107F5000D0A4BE726937663EF16BD2C541BDBB3E4F
:107F60002CDE25AF6A56113F93BDBE166CC1663F2D
:107F70003E5555555555C53F59F3F8C21F6EA501DD
:107F8000000000000000F0BF000000000000000042
:107F9000FFFF8F40FFFF0F000000F03FFFCB90403E
:107FA00000346F3F6C4B9C427FF72AAC6B4B9C427A
:107FB0003FF7C3AB0022694B00F0EEFA56A3D3E9BA
:107FC000002304460D4600F09BFC55A3D3E9002393
:107FD000804689462046294600F092FC0022CDE9E1
:107FE00002015F4B2046294600F08AFC02460B4600
:107FF0004DA1D1E9000100F0CFFA22462B4600F056
:108000007FFC02460B460020564900F0C5FA224686
:108010002B4606460F462046294600F071FC0246D4
:108020000B463046394600F06BFC41A3D3E90023F0
:1080300000F066FC02460B46DDE9020100F0ACFAF6
:1080400002460B4604460D464046494600F0A6FA55
:1080500042464B460020CDE9020100F09DFA02465F
:108060000B462046294600F097FA80468946A5E54A
:1080700032463B460020394900F06CFD41EC100BC4
:10808000FFF733BB2CA3D3E90023DDE9060100F0A1
:1080900037FC29A3D3E9002300F032FC41EC100B9C
:1080A000FFF723BBBEF1000F7FF42AABC3F114032B
:1080B00048FA03F202FA03F3984527D0F346FFF794
:1080C000F7BA284B98453FF7DEADDDE900349A4614
:1080D0009B4607E602460B46FFF789BB9FED187BE0
:1080E0008DED087B9FED187B8DED0E7B9FED187B52
:1080F0004FF480288DED067BFFF7D4BB584643EC48
:10810000102B00F0B1F951EC100B9DE602F00102CA
:10811000C2F1020BFFF7CCBA000000604715F73F31
:1081200044DF5DF80BAE543E555555555555D53F7A
:10813000FE822B654715F73F9C7500883CE4377E2F
:108140000000004003B8E23F06D0CF43EBFD4C3EB9
:10815000000000000000F83FFEFFEF3F0000F03F8E
:108160000000D03F0000E03F2DE9F041654955ECAB
:10817000104B0E462940B14200F09780002D2B464F
:1081800010EE102A74DD2F157FD0A7F2FF37C3F34E
:108190001303F90743F4801365D403EBD27100266F
:1081A0000B447F105200B64616204FF400110EEB20
:1081B00001049C424FEAD2754FEA420203DC1B1BCA
:1081C00004EB010E0E44013805EB43034FEA510165
:1081D000EDD1844620244FF0004109E020D003EB8C
:1081E000D275013C4FEA51012B444FEA420220D0A4
:1081F0009E4501EB0C05F1DA002D05EB010C09DBC6
:10820000F0469542CEEB030300D9013B521B0844D4
:10821000C646E4E7BCF1000FF2DB0EF10108F0E71F
:1082200095421ED8002D05EB010C50DB984600232B
:10823000ECE7134304D0421C4DD000F00103184476
:1082400040087110F30701F17F5101F5001148BF9B
:1082500040F0004001EB0753024643EC102BBDE811
:10826000F0817346BBE75B0003EBD273520094E7E7
:1082700025F00041214328D0ADBB2F46D30A153F3E
:108280005205002BFAD0DD0228D4002100E001467F
:108290005B00DC0201F10100F9D5C0F1200422FAF3
:1082A00004F423437F1A82406FE710EE102A2B4616
:1082B00010EE100A294600F023FB22462B4600F060
:1082C0006DF941EC100BBDE8F081BDE8F081BCF127
:1082D000000FA2DAAAE701362046B2E720244FF0C9
:1082E000FF310020DBE710EE102A2B4620462946FE
:1082F00000F052F902460B4600F02CFC41EC100B4A
:10830000BDE8F0810000F07F53EC102B23F0004318
:1083100043EC102B704700BF10EE903A43F0004042
:1083200000F58010C00F704700207047000000006B
:108330009FED010B704700BF000000000000F87FB8
:10834000F0B553EC102BC3F30A56A6F2FF301328F6
:1083500083B019464FEAD37410EE105A2FDC002870
:1083600049DB3F4E064103EA060717432CD0760847
:1083700033401D430CD04FF48023132821EA060616
:1083800043FA00F141EA06010CBF4FF00045002519
:10839000344800EBC4042A46D4E9004510462B4675
:1083A000224600F0FBF8CDE9000122462B46DDE92C
:1083B000000100F0F1F841EC100B03B0F0BD3328E0
:1083C00006DDB0F5806F42D043EC102B03B0F0BD5A
:1083D000A6F213464FF0FF30F0400242F4D04008BE
:1083E0000242D5D04FF0804325EA000043FA06F65A
:1083F00046EA0005CCE723F00040104310EE107A67
:10840000E2D0C3F313000743784207431548590CE1
:108410003F0B490407F4002700EBC40047EA0103BF
:10842000D0E90067194610463B46324600F0B6F8E0
:10843000CDE900013B463246DDE9000100F0ACF831
:1084400021F0004343EAC47141EC100BBEE710EE8B
:10845000100A194600F0A2F841EC100BB6E700BF75
:10846000FFFF0F00889D0D0053EC102B70B5C3F378
:108470000A541946054614BB23F0004111432AD083
:1084800019460022384B394E10EE100A00F038FA27
:10849000B54202460B461FDBC1F30A54363C2C445E
:1084A00040F2FE7084421FDC002C2DDD21F0FF41E4
:1084B00021F4E00141EA045343EC102B70BD40F27B
:1084C000FF708442EBD110EE100A194600F066F8F6
:1084D00041EC100B70BD70BD1FA3D3E9002300F069
:1084E0000FFA41EC100B70BD43EC112B9FED1C0BF0
:1084F00000F040F81AA3D3E9002351EC100B00F070
:10850000FFF941EC100B70BD14F1350F13DA4CF28A
:1085100050318D4243EC112BE8DC9FED0F0B00F046
:1085200029F80DA3D3E9002351EC100B00F0E8F972
:1085300041EC100B70BD21F0FF4121F4E001363415
:1085400041EA0453104619460022094B00F0D8F9BD
:1085500041EC100B70BD00BF59F3F8C21F6EA501AE
:108560009C7500883CE4377E00005043B03CFFFF20
:108570000000903C53EC102B11EE900A23F00041C8
:1085800000F0004041EA000343EC102B704700BFAD
:1085900081F0004102E000BF83F0004330B54FEAB4
:1085A00041044FEA430594EA050F08BF90EA020F21
:1085B0001FBF54EA000C55EA020C7FEA645C7FEAB4
:1085C000655C00F0E2804FEA5454D4EB5555B8BFD7
:1085D0006D420CDD2C4480EA020281EA030382EA48
:1085E000000083EA010180EA020281EA0303362DDA
:1085F00088BF30BD11F0004F4FEA01314FF4801CAD
:108600004CEA113102D0404261EB410113F0004FBE
:108610004FEA03334CEA133302D0524263EB430375
:1086200094EA050F00F0A780A4F10104D5F1200E13
:108630000DDB02FA0EFC22FA05F2801841F100016E
:1086400003FA0EF2801843FA05F359410EE0A5F142
:1086500020050EF1200E012A03FA0EFC28BF4CF073
:10866000020C43FA05F3C01851EBE37101F0004529
:1086700007D54FF0000EDCF1000C7EEB00006EEB36
:108680000101B1F5801F1BD3B1F5001F0CD34908C0
:108690005FEA30004FEA3C0C04F101044FEA445217
:1086A00012F5800F80F09A80BCF1004F08BF5FEA9E
:1086B000500C50F1000041EB045141EA050130BD7E
:1086C0005FEA4C0C404141EB010111F4801FA4F121
:1086D0000104E9D191F0000F04BF01460020B1FA76
:1086E00081F308BF2033A3F10B03B3F120020CDAAE
:1086F0000C3208DD02F1140CC2F10C0201FA0CF08C
:1087000021FA02F10CE002F11402D8BFC2F1200CF0
:1087100001FA02F120FA0CFCDCBF41EA0C019040A6
:10872000E41AA2BF01EB0451294330BD6FEA0404EF
:108730001F3C1CDA0C340EDC04F11404C4F12002DA
:1087400020FA04F001FA02F340EA030021FA04F3EC
:1087500045EA030130BDC4F10C04C4F1200220FA43
:1087600002F001FA04F340EA0300294630BD21FA81
:1087700004F0294630BD94F0000F83F4801306BF47
:1087800081F480110134013D4EE77FEA645C18BF3B
:108790007FEA655C29D094EA050F08BF90EA020FD2
:1087A00005D054EA000C04BF1946104630BD91EACA
:1087B000030F1EBF0021002030BD5FEA545C05D1CD
:1087C0004000494128BF41F0004130BD14F580040C
:1087D0003CBF01F5801130BD01F0004545F0FE4180
:1087E00041F470014FF0000030BD7FEA645C1ABFB5
:1087F000194610467FEA655C1CBF0B46024650EAEC
:10880000013406BF52EA033591EA030F41F4002117
:1088100030BD00BF90F0000F04BF0021704730B59D
:108820004FF4806404F132044FF000054FF0000172
:1088300050E700BF90F0000F04BF0021704730B533
:108840004FF4806404F1320410F0004548BF404208
:108850004FF000013EE700BF42004FEAE2014FEA5D
:1088600031014FEA02701FBF12F07F4393F07F4F38
:1088700081F06051704792F0000F14BF93F07F4F6A
:10888000704730B54FF4607401F0004521F00041AD
:1088900020E700BF50EA010208BF704730B54FF033
:1088A00000050AE050EA010208BF704730B511F038
:1088B000004502D5404261EB41014FF4806404F170
:1088C00032045FEA915C3FF4DCAE4FF003025FEAF2
:1088D000DC0C18BF03325FEADC0C18BF033202EB7A
:1088E000DC02C2F1200300FA03FC20FA02F001FAD4
:1088F00003FE40EA0E0021FA02F11444C1E600BF73
:1089000070B54FF0FF0C4CF4E06C1CEA11541DBF25
:108910001CEA135594EA0C0F95EA0C0F00F0DEF8F0
:108920002C4481EA030621EA4C5123EA4C5350EAD5
:10893000013518BF52EA033541F4801143F4801326
:1089400038D0A0FB02CE4FF00005E1FB02E506F0B7
:108950000042E0FB03E54FF00006E1FB03569CF00C
:10896000000F18BF4EF0010EA4F1FF04B6F5007F12
:1089700064F5407404D25FEA4E0E6D4146EB060684
:1089800042EAC62141EA55514FEAC52040EA5E500D
:108990004FEACE2EB4F1FD0C88BFBCF5E06F1ED8B7
:1089A000BEF1004F08BF5FEA500E50F1000041EBEE
:1089B000045170BD06F0004646EA010140EA02009B
:1089C00081EA0301B4EB5C04C2BFD4EB0C0541EABD
:1089D000045170BD41F480114FF0000E013C00F3D2
:1089E000AB8014F1360FDEBF002001F0004170BDF6
:1089F000C4F10004203C35DA0C341BDC04F114040F
:108A0000C4F1200500FA05F320FA04F001FA05F29A
:108A100040EA020001F0004221F0004110EBD37067
:108A200021FA04F642EB06015EEA430E08BF20EA93
:108A3000D37070BDC4F10C04C4F1200500FA04F336
:108A400020FA05F001FA04F240EA020001F00041C8
:108A500010EBD37041F100015EEA430E08BF20EA3B
:108A6000D37070BDC4F1200500FA05F24EEA020E83
:108A700020FA04F301FA05F243EA020321FA04F0B2
:108A800001F0004121FA04F220EA020000EBD37069
:108A90005EEA430E08BF20EAD37070BD94F0000F69
:108AA0000FD101F00046400041EB010111F4801F9D
:108AB00008BF013CF7D041EA060195F0000F18BF4E
:108AC000704703F00046520043EB030313F4801F8A
:108AD00008BF013DF7D043EA0603704794EA0C0F44
:108AE0000CEA135518BF95EA0C0F0CD050EA41065A
:108AF00018BF52EA4306D1D181EA030101F00041D7
:108B00004FF0000070BD50EA410606BF10461946FE
:108B100052EA430619D094EA0C0F02D150EA01360A
:108B200013D195EA0C0F05D152EA03361CBF10464B
:108B300019460AD181EA030101F0004141F0FE41EA
:108B400041F470014FF0000070BD41F0FE4141F46E
:108B5000780170BD70B54FF0FF0C4CF4E06C1CEA6E
:108B600011541DBF1CEA135594EA0C0F95EA0C0F23
:108B700000F0A7F8A4EB050481EA030E52EA0335DE
:108B80004FEA013100F088804FEA03334FF08055FF
:108B900045EA131343EA12634FEA022245EA11152C
:108BA00045EA10654FEA00260EF000419D4208BFDD
:108BB000964244F1FD0404F5407402D25B084FEA8A
:108BC0003202B61A65EB03055B084FEA32024FF436
:108BD00080104FF4002CB6EB020E75EB030E22BF93
:108BE000B61A754640EA0C005B084FEA3202B6EB53
:108BF000020E75EB030E22BFB61A754640EA5C0002
:108C00005B084FEA3202B6EB020E75EB030E22BF91
:108C1000B61A754640EA9C005B084FEA3202B6EB92
:108C2000020E75EB030E22BFB61A754640EADC0051
:108C300055EA060E18D04FEA051545EA16754FEAB3
:108C400006164FEAC30343EA52734FEAC2025FEAD1
:108C50001C1CC0D111F4801F0BD141EA00014FF060
:108C600000004FF0004CB6E711F4801F04BF014331
:108C70000020B4F1FD0C88BFBCF5E06F3FF6AFAE4D
:108C8000B5EB030C04BFB6EB020C5FEA500C50F1DD
:108C9000000041EB045170BD0EF0004E4EEA113160
:108CA00014EB5C04C2BFD4EB0C0541EA045170BD67
:108CB00041F480114FF0000E013C90E645EA060EAB
:108CC0008DE60CEA135594EA0C0F08BF95EA0C0FD9
:108CD0003FF43BAF94EA0C0F0AD150EA01347FF421
:108CE00034AF95EA0C0F7FF425AF104619462CE7F8
:108CF00095EA0C0F06D152EA03353FF4FDAE10465B
:108D0000194622E750EA410618BF52EA43067FF4AB
:108D1000C5AE50EA41047FF40DAF52EA43057FF43B
:108D2000EBAE12E74FF0FF3C06E000BF4FF0010C46
:108D300002E000BF4FF0010C4DF804CD4FEA410CAA
:108D40007FEA6C5C4FEA430C18BF7FEA6C5C1BD077
:108D500001B050EA410C0CBF52EA430C91EA030FF8
:108D600002BF90EA020F0020704710F1000F91EA55
:108D7000030F58BF994208BF90422CBFD8176FEA23
:108D8000E37040F0010070474FEA410C7FEA6C5CF1
:108D900002D150EA013C07D14FEA430C7FEA6C5CF8
:108DA000D6D152EA033CD3D05DF8040B704700BF24
:108DB0008446104662468C461946634600E000BF72
:108DC00001B5FFF7B7FF002848BF10F1000F01BD44
:108DD0004DF808EDFFF7F4FF0CBF012000205DF80F
:108DE00008FB00BF4DF808EDFFF7EAFF34BF012094
:108DF00000205DF808FB00BF4DF808EDFFF7E0FF2D
:108E000094BF012000205DF808FB00BF4DF808ED7D
:108E1000FFF7CEFF94BF012000205DF808FB00BFE4
:108E20004DF808EDFFF7C4FF34BF012000205DF8C6
:108E300008FB00BF4FEA410C7FEA6C5C02D150EAAC
:108E4000013C0AD14FEA430C7FEA6C5C02D152EA42
:108E5000033C02D14FF0000070474FF00100704713
:108E60004FEA4102B2F1E04324BFB3F5001CDCF14C
:108E7000FE5C0DD901F0004C4FEAC0024CEA507084
:108E8000B2F1004F40EB830008BF20F001007047B3
:108E900011F0804F21D113F13872BCBF01F00040B6
:108EA000704741F480114FEA5252C2F11802C2F1E8
:108EB000200C10FA0CF320FA02F018BF40F0010069
:108EC0004FEAC1234FEAD32303FA0CFC40EA0C001B
:108ED00023FA02F34FEA4303CCE77FEA625307D158
:108EE00050EA01331EBF4FF0FE4040F4400070478F
:108EF00001F0004040F0FE4040F40000704700BF29
:108F000080F0004002E000BF81F0004142001FBF3E
:108F10005FEA410392EA030F7FEA226C7FEA236C47
:108F20006AD04FEA1262D2EB1363C1BFD21841403C
:108F300048404140B8BF5B42192B88BF704710F0D2
:108F4000004F40F4000020F07F4018BF404211F075
:108F5000004F41F4000121F07F4118BF494292EADD
:108F6000030F3FD0A2F1010241FA03FC10EB0C0009
:108F7000C3F1200301FA03F100F0004302D5494296
:108F800060EB4000B0F5000F13D3B0F1807F06D343
:108F900040084FEA310102F10102FE2A51D2B1F13B
:108FA000004F40EBC25008BF20F0010040EA030030
:108FB0007047490040EB000010F4000FA2F10102DD
:108FC000EDD1B0FA80FCACF1080CB2EB0C0200FA67
:108FD0000CF0AABF00EBC25052421843BCBFD040B5
:108FE0001843704792F0000F81F4000106BF80F42F
:108FF00000000132013BB5E74FEA41037FEA226CF2
:1090000018BF7FEA236C21D092EA030F04D092F0BC
:10901000000F08BF0846704790EA010F1CBF0020F0
:10902000704712F07F4F04D1400028BF40F000404D
:10903000704712F100723CBF00F50000704700F06D
:10904000004343F0FE4040F4000070477FEA226294
:1090500016BF08467FEA23630146420206BF5FEA65
:10906000412390EA010F40F4800070474FF0000365
:1090700004E000BF10F0004348BF40425FEA000C2C
:1090800008BF704743F0964301464FF000001CE0D4
:1090900050EA010208BF70474FF000030AE000BF2A
:1090A00050EA010208BF704711F0004302D5404268
:1090B00061EB41015FEA010C02BF844601460020DA
:1090C00043F0B64308BFA3F18053A3F50003BCFAF5
:1090D0008CF2083AA3EBC25310DB01FA02FC6344A2
:1090E00000FA02FCC2F12002BCF1004F20FA02F2A9
:1090F00043EB020008BF20F00100704702F120029C
:1091000001FA02FCC2F1200250EA4C0021FA02F2FC
:1091100043EB020008BF20EADC7070477BB972B9EC
:109120000029BEBF00204FF0004106E008BF002824
:109130001CBF6FF000414FF0FF3000F0B1B9ADF14E
:10914000080C6DE904CE002909DB002B1ADB00F0C6
:1091500035F8DDF804E0DDE9022304B07047404251
:1091600061EB4101002B1BDB00F028F8DDF804E087
:10917000DDE9022304B0404261EB4101524263EB5E
:1091800043037047524263EB430300F017F8DDF8E6
:1091900004E0DDE9022304B0404261EB4101704785
:1091A000524263EB430300F009F8DDF804E0DDE927
:1091B000022304B0524263EB430370472DE9F047AA
:1091C0008C460E460446089D002B50D18A42174615
:1091D0006CD9B2FA82FEBEF1000F0BD0CEF12004A2
:1091E00020FA04F401FA0EF644EA060C02FA0EF72D
:1091F00000FA0EF44FEA1749220CBCFBF9F01FFAF3
:1092000087F809FB10C642EA064600FB08F3B342A2
:1092100009D9F61900F1FF3280F02281B34240F201
:109220001F8102383E44F61AA2B2B6FBF9F309FBDD
:10923000136642EA064403FB08F8A04509D9E4197D
:1092400003F1FF3280F00A81A04540F20781023B22
:109250003C44C8EB040443EA00400021002D62D0E6
:1092600024FA0EF400232C606B60BDE8F0878B427B
:1092700007D9002D55D0002185E841000846BDE8FA
:10928000F087B3FA83F1002940F09080B34202D313
:10929000824200F2F880841A66EB03060120B4468D
:1092A000002D40D085E81010BDE8F08712B90127E5
:1092B000B7FBF2F7B7FA87FEBEF1000F35D1F31B0B
:1092C0004FEA17481FFA87FC0121B3FBF8F0220C84
:1092D00008FB103642EA06460CFB00F3B34207D9FE
:1092E000F61900F1FF3202D2B34200F2CE801046EE
:1092F000F61AA2B2B6FBF8F308FB136642EA06447C
:109300000CFB03FCA44507D9E41903F1FF3202D298
:10931000A44500F2B5801346CCEB040443EA0040B8
:109320009CE729462846BDE8F087CEF1200106FAE1
:109330000EF307FA0EF720FA01F94FEA1748CE406C
:1093400049EA0309B6FBF8FA4FEA194408FB1A6622
:109350001FFA87FC44EA06430AFB0CF29A4200FA21
:109360000EF40AD9DB190AF1FF3180F087809A42A6
:1093700040F28480AAF1020A3B449B1A1FFA89F941
:10938000B3FBF8F108FB113349EA034301FB0CF688
:109390009E4207D9DB1901F1FF326BD29E4269D997
:1093A00002393B449B1B41EA0A418EE7C1F1200E82
:1093B00022FA0EF48B40234320FA0EF706FA01F44A
:1093C0004FEA134C26FA0EF63C43B6FBFCF9270C89
:1093D0000CFB19661FFA83F847EA064609FB08F7F3
:1093E000B74202FA01F200FA01FA08D9F61809F1B7
:1093F000FF3041D2B7423FD9A9F102091E44F61B02
:10940000A0B2B6FBFCF40CFB146640EA064704FB72
:1094100008F8B84507D9FF1804F1FF3028D2B8453D
:1094200026D9023C1F4444EA0940C8EB0707A0FBC9
:1094300002894F4544464E4614D329D065B3BAEB52
:10944000040367EB060707FA0EFECB40CF404EEA57
:10945000030385E888000021BDE8F0871346F8E69D
:109460001046E0E6B8EB020469EB03060138E5E7D5
:109470000446D8E7114695E78146C0E78A467CE76F
:10948000023B3C4448E708460AE702383E442FE7DF
:10949000C245E7D33E46D1E72946BDE8F08700BF85
:1094A000704700BF10B5054C13462CB10A46014663
:1094B0000220AFF3008010BD204610BD0000000068
:1094C00010B5431E0A44914204D011F8014B03F831
:1094D000014FF8E710BD02440346934202D003F85F
:1094E000011BFAE77047000038B5124B1C68A36BEC
:1094F0000546D3B91820FCF7E3FA43F20E33A06314
:1095000003804AF6CD33438041F2342383804EF208
:109510006D63C3804DF6EC630381052343810B2308
:10952000838101220023C0E90423A36B00221D6173
:109530005A6138BD48E30320024B0146186800F029
:1095400003B800BF48E3032070B5064608460C4642
:1095500000F00DF8451C29463046FCF7D9FA0646BE
:1095600018B12A462146FFF7ABFF304670BD0346CF
:1095700013F8012B002AFBD1181A0138704700009C
:1095800021400D005D400D0089400D008D400D0013
:10959000000000000000000000000000B9400D00C5
:1095A000CD400D00416972205175616C697479205C
:1095B00053656E736F722072656164792E00416924
:1095C00072205175616C6974792053656E736F7286
:1095D000204552524F5221005061727469636C658C
:1095E00000416972205175616C697479004D6F6E2C
:1095F00069746F7200424D453238302053656E7386
:109600006F722072656164792E00424D45323830A8
:109610002053656E736F72204552524F5221004E97
:109620006F6E650044616E67657200486967682007
:10963000506F6C6C7574696F6E004C6F7720506F53
:109640006C6C7574696F6E00467265736820416951
:1096500072004C504F3A20256400526174696F3A91
:10966000202566252500436F6E63656E74726174F4
:10967000696F6E3A202566207063732F4C00546525
:109680006D703A2000430048756D69646974793AD9
:10969000200050726573733A2000206850610044C6
:1096A0007573743A200074656D700068756D696437
:1096B000697479007072657373757265006169729F
:1096C0002D7175616C69747900647573742D6C709B
:1096D0006F00256C7500647573742D726174696F09
:1096E00000647573742D636F6E63656E747261745C
:1096F000696F6E00656E762D76616C73000A416944
:1097000072205175616C6974793A20257300546533
:109710006D703A2025640050726573737572653AF6
:109720002025640048756D69646974793A20256460
:10973000000000000000000000000000A1470D0034
:1097400064656661756C7420004D5342004C534251
:10975000003C53504953657474696E6773206465A7
:109760006661756C743E003C53504953657474696E
:109770006E6773202573256C75202573204D4F442B
:109780004525643E000000000000000000000000CD
:10979000BD500D00D9500D00000000000000000079
:1097A000ED500D0001510D0025303478005C752519
:1097B00030345800747275650066616C73650025FD
:1097C0002E2A6600256600252E2A6C6600256C660A
:1097D0000000000002000000030000000100000083
:1097E00000000000000000000000000000005F001A
:1097F00000000000000007000700000000147F14B4
:109800007F14000000242A7F2A120000002313087E
:109810006462000000364955225000000000050334
:1098200000000000001C2241000000000041221C3A
:109830000000000000082A1C2A0800000008083E5A
:109840000808000000A060000000000000080808F0
:109850000808000000606000000000000020100800
:1098600004020000003E5149453E00000000427FD6
:109870004000000000625149494600000022414971
:1098800049360000001814127F10000000274545DB
:1098900045390000003C4A49493000000001710987
:1098A00005030000003649494936000000064949D1
:1098B000291E000000003636000000000000AC6CDD
:1098C00000000000000814224100000000141414DD
:1098D000141400000041221408000000000201518D
:1098E0000906000000324979413E0000007E090966
:1098F000097E0000007F494949360000003E414191
:1099000041220000007F4141221C0000007F4949A4
:1099100049410000007F090909010000003E414162
:1099200051720000007F0808087F000000417F415D
:1099300000000000002040413F010000007F0814AB
:1099400022410000007F404040400000007F020CA8
:10995000027F0000007F0408107F0000003E4141AC
:10996000413E0000007F090909060000003E415108
:10997000215E0000007F09192946000000264949A0
:10998000493200000001017F01010000003F40401A
:10999000403F0000001F2040201F0000003F4038D3
:1099A000403F0000006314081463000000030478C3
:1099B000040300000061514945430000007F41411C
:1099C0000000000000020408102000000041417F58
:1099D00000000000000402010204000000808080FA
:1099E00080800000000102040000000000205454A8
:1099F00054780000007F4844443800000038444454
:109A00002800000000384444487F000000385454C7
:109A10005418000000087E09020000000018A4A4E9
:109A2000A47C0000007F08040478000000007D0092
:109A3000000000000080847D00000000007F1028EE
:109A40004400000000417F4000000000007C04183A
:109A500004780000007C08047C00000000384444C6
:109A60003800000000FC2424180000000018242402
:109A7000FC00000000007C08040000000048545472
:109A80002400000000047F4400000000003C40402F
:109A90007C000000001C2040201C0000003C4030E6
:109AA000403C00000044281028440000001CA0A0F6
:109AB0007C000000004464544C440000000836411F
:109AC0000000000000007F00000000000041360898
:109AD0000000000000020101020100000002050573
